:100000000C9486180C94B7180C94B7180C94B71865
:100010000C94B7180C94B7180C94B7180C94B71824
:100020000C94B7180C94B7180C94B7180C94B71814
:100030000C94B7180C94B7180C94B7180C94B71804
:100040000C94B7180C9467810C94B7180C94B718DB
:100050000C94B7180C94B7180C947AA00D94B40AA9
:100060000C94B7180C9466A30C94B7180C94B7189A
:100070000C94B7180C94B7180C94B7180C94B718C4
:100080000C94B7180C94B7180C94B7180C94B718B4
:100090000C94B7180C94B7180C94B7180C94B718A4
:1000A0000C94B7180C94B7180C94B7180C94B71894
:1000B0000C94B7180C94B7180C94B7180C94B71884
:1000C0000C94B7180C94B7180C94B7180C945D9D49
:1000D0000C94349D0C94B7180C94B7180C94B71862
:1000E0000C94B7182F1B581C851DBA1C96309630DF
:1000F000A51F30206220963096301622FE2342241F
:1001000096304B2796309630AA28963096304F2B53
:100110002B1B9630622DEB2D698C6C8C738C768C3E
:100120007A8C708C7D8C808C848C878C8A8C8E8C65
:10013000918C948C708C988C9B8C9E8CB08ECF8E76
:10014000EE8E118F348FD390578F788F998FBC8F0D
:10015000DF8F029025904890D3906B908E90B19055
:1001600099A39FA3B0A3BBA3C3A3D8A3C7A3D8A39A
:10017000CBA3CFA3D8A3D5A30601460110012E011E
:10018000320114013A013C012C010C0136013E01FF
:1001900016014C011401260122012801340130010D
:1001A0003801180108011A01200124010A011E0169
:1001B000420144010E012A011A0148011C014001BB
:1001C000084AD73B3BCE016E84BCBFFDC12F3D6CBE
:1001D00074319ABD56833DDA3D00C77F11BED9E424
:1001E000BB4C3E916BAAAABE000000803F05A84C04
:1001F000CDB2D44EB93836A9020C50B991868808D0
:100200003CA6AAAA2ABE000000803F000D947B08ED
:100210000D94CF090D94E9090D9490080D94160AD8
:100220000D946D080D9475170D94B5080D949E08E6
:100230000D94C5090D94480A0D94340A0D94F309E0
:100240000D94D9090D94AC080D94E1090D94A808FA
:100250000D94B0080D94200A0D948C080D9471082B
:100260000D94B6090D9477080D94B1090D94940876
:100270000D94BB090D9482080D9486080D949A087C
:100280000D943E0A0D94FD090D94070A0D947E0805
:100290000D942A0A0D9454170D94A2084E414E490C
:1002A0004E495459494E46CDCCCC3D0AD7233C1734
:1002B000B7D13877CC2B329595E6241FB14F0A0081
:1002C0000020410000C84200401C4620BCBE4CCA71
:1002D0001B0E5AAEC59D7400407A10F35A00A072EE
:1002E0004E18090010A5D4E80000E8764817000071
:1002F000E40B54020000CA9A3B000000E1F505003F
:100300000080969800000040420F000000A0860187
:10031000000000102700000000E803000000006457
:1003200000000000000A00000000000100000000C2
:10033000002C76D888DC674F0823DFC1DFAE59E197
:10034000B1B796E5E3E453C63AE651997696E8E606
:10035000C28426EB898C9B62ED407C6FFCEFBC9CD9
:100360009F40F2BAA56FA5F490055A2AF75C936BEB
:100370006CF9676DC11BFCE0E40D47FEF520E6B5A6
:1003800000D0ED902E0300943577050080841E0880
:100390000000204E0A000000C80C333333330F989E
:1003A0006E12831141EF8D2114893BE65516CFFE65
:1003B000E6DB18D1844B381BF77C1D901DA4BBE4F1
:1003C00024203284725E228100C9F124ECA1E53D33
:1003D000274D3234004D3233202573004D313039F2
:1003E00020532569004D3234004D333030000A204F
:1003F0002A2A2A7265636461742E646174615B30B9
:100400005D203D0047312046313030205A31302EBA
:100410003200473238004D343230205330004D34F2
:1004200032302053310047312046313030205A30AD
:10043000004731205833302059323730204635308C
:1004400030300047312046313030205A333B0047AE
:10045000312046313030205A300047312058323771
:100460003020593237302046353030300047312087
:1004700046313030205A333B00473120463130304E
:10048000205A30004731205832373020593330203D
:1004900046353030300047312046313030205A3335
:1004A0003B0047312046313030205A300047312060
:1004B0005833302059333020463530303000473102
:1004C0002046313030205A333B004731204631300E
:1004D00030205A30004731205831353020593135DD
:1004E0003020463530303000473120463130302022
:1004F0005A333B0047312046313030205A302E30BD
:1005000000473120583135302059313530204635BB
:100510003030300047312046313030205A31302ED3
:10052000323B004732390047312046323030205AC2
:10053000302E3000473930004732382058302059AB
:1005400030205A300047312046313530205A302E85
:100550003000473238205A3000473238004D3834A6
:100560000047312046313530205A302E3000473296
:1005700038002F2F616374696F6E3A726573756D01
:10058000650A004D31303920532569004D32340061
:100590004D3235002F2F616374696F6E3A7061754B
:1005A00073650A0046726F6D2050617573657072D5
:1005B000696E740A0A000A205254535570646174BB
:1005C000652057616974776179004D3235002F2FAE
:1005D000616374696F6E3A70617573650A000A46EB
:1005E000726F6D2052756E6F75740A0A00434F4D1D
:1005F0004D554E49434154494F4E0044525952556E
:100600004E004552524F525300494E464F0045430B
:10061000484F0047322F4733206261642070617277
:10062000616D65746572730A00205A3A2000205982
:100630003A200042656420583A20004D65736820D6
:10064000706F696E742063616E6E6F7420626520D6
:100650007265736F6C7665640A00456E6420666926
:100660006C65206C6973740A00426567696E206668
:10067000696C65206C6973740A004D31323500284D
:100680006E6F2066696C65290043757272656E74C1
:100690002066696C653A20005072696E7420746936
:1006A0006D653A20006F6E2E0A006F66662E0A0096
:1006B00047323620446562756720000E060906023F
:1006C00006FB05ED056F66660044454255473A0056
:1006D0004D3131332053006F6B00544845524D412A
:1006E0004C5F50524F54454354494F4E004155546E
:1006F0004F5245504F52545F53445F5354415455E9
:100700005300454D455247454E43595F5041525362
:10071000455200434153455F4C494748545F42525C
:10072000494748544E45535300544F47474C455F43
:100730004C494748545300534F4654574152455F24
:10074000504F574552004255494C445F5045524323
:10075000454E54004C4556454C494E475F44415424
:1007600041005A5F50524F4245004155544F4C454D
:1007700056454C005052494E545F4A4F4200505229
:100780004F4752455353004155544F5245504F52D5
:10079000545F54454D5000564F4C554D45545249A9
:1007A0004300454550524F4D0053455249414C5F1F
:1007B000584F4E5F584F4646004649524D5741529A
:1007C000455F4E414D453A4D61726C696E20312E48
:1007D000312E395F423620544D3344205353534415
:1007E0004E4220534F555243455F434F44455F555A
:1007F000524C3A68747470733A2F2F676974687535
:10080000622E636F6D2F496E73616E6974794175E5
:10081000746F6D6174696F6E2F4D61726C696E2FAC
:100820002050524F544F434F4C5F56455253494FFF
:100830004E3A312E30204D414348494E455F545980
:1008400050453A43522D3130532050726F20455855
:100850005452554445525F434F554E543A312055FA
:100860005549443A63656465326132662D343161BD
:10087000322D343734382D396231322D63353563BA
:1008800036326633363766660A002F2F2000205432
:1008900000205200416363656C65726174696F6E1C
:1008A0003A2050005741524E494E4721204C6F7715
:1008B000205A204A65726B206D6179206C656164F5
:1008C00020746F20756E77616E7465642070617539
:1008D0007365732E0A00546F6F2066617220667212
:1008E0006F6D207265666572656E636520706F69F5
:1008F0006E740A0020466C6F773A200043290A0084
:1009000061626C656420286D696E2074656D70206D
:1009100000436F6C64206578747275646573206140
:100920007265200020643A0020693A0020703A0085
:100930004E6F2063617365206C696768740A004DAF
:1009400065736820706F696E742063616E6E6F747A
:10095000206265207265736F6C7665640A004D34A1
:10096000323120696E636F727265637420706172D8
:10097000616D657465722075736167650A00454530
:1009800050524F4D204F4B0A003F5A206F75742034
:100990006F662072616E676520282D323020746F7B
:1009A000203230290A003A200050726F6265205AC6
:1009B000204F6666736574004163746976652045EF
:1009C000787472756465723A2000496E76616C695C
:1009D000642065787472756465720A000A20696E15
:1009E0006974207A70726F62655F7A6F666673658C
:1009F00074203D20004D34323020533100202050EF
:100A00006C616E6E65724275666665724279746578
:100A1000733A20002046726565204D656D6F7279CE
:100A20003A2000436F6D70696C65643A204D6179BE
:100A300020313520323031390A00207C2041757454
:100A4000686F723A2054696E794D616368696E65AA
:100A50007333440A00323031392D30332D323000B7
:100A6000204C61737420557064617465643A200091
:100A7000312E312E395F42360A004D61726C696E3B
:100A80000020536F667477617265205265736574D8
:100A90000A00205761746368646F6720526573654C
:100AA000740A002042726F776E206F757420526551
:100AB0007365740A002045787465726E616C20520B
:100AC000657365740A00506F77657255700A00731C
:100AD000746172740A004D3234004D323320257334
:100AE000006175746F25692E67006572726F7220E0
:100AF00077726974696E6720746F2066696C650A25
:100B000000205A3A0020593A0020583A00656E6495
:100B100073746F7073206869743A2000446F6E6557
:100B200020736176696E672066696C652E0A004DD8
:100B30003239002F2F616374696F6E3A7265737575
:100B40006D650A0050726F62696E67206661696C3C
:100B500065640050726F62696E67206661696C65DA
:100B6000640A00205A3A200020593A200042656465
:100B700020583A20002066697273740A005A00599E
:100B8000005800486F6D6520002F2F616374696FF6
:100B90006E3A63616E63656C0A004D3834002F2F26
:100BA000616374696F6E3A63616E63656C0A0042DB
:100BB000696C696E656172204C6576656C696E67FB
:100BC00020477269643A0A00486F6D6520585920C1
:100BD00066697273740A0020643A0020693A002042
:100BE000703A00496E76616C69642065787472753C
:100BF0006465720A004B64200023646566696E6553
:100C00002044454641554C545F004B692000236405
:100C10006566696E652044454641554C545F004BFE
:100C200070200023646566696E6520444546415521
:100C30004C545F00504944204175746F74756E6563
:100C40002066696E6973686564212050757420742C
:100C50006865206C617374204B702C204B69206197
:100C60006E64204B6420636F6E7374616E747320C6
:100C700066726F6D2062656C6F7720696E746F208D
:100C8000436F6E66696775726174696F6E2E680A6C
:100C900000504944204175746F74756E652066611B
:100CA000696C6564212074696D656F75740A00450F
:100CB0003120544845524D414C2052554E415741E8
:100CC000590042454420544845524D414C2052550C
:100CD0004E4157415900546865726D616C205275E0
:100CE0006E617761790045312048656174696E678E
:100CF000206661696C6564004265642068656174A2
:100D0000696E67206661696C656400486561746935
:100D10006E67206661696C656400504944204175C6
:100D2000746F74756E65206661696C65642120540A
:100D3000656D706572617475726520746F6F20687F
:100D40006967680A00204B643A2000204B693A200A
:100D500000204B703A20000A20436C617373696372
:100D600020504944200A002054753A2000204B7539
:100D70003A2000206D61783A2000206D696E3A209B
:100D80000020643A200020626961733A20005049D3
:100D900044204175746F74756E65206661696C6579
:100DA00064212042616420657874727564657220E4
:100DB0006E756D6265720A00504944204175746F0A
:100DC00074756E652073746172740A004F66660AEA
:100DD0000046616465204865696768742000426563
:100DE00064204C6576656C696E6720004661696CAD
:100DF000656420746F20656E61626C652042656475
:100E0000204C6576656C696E670A00496E73657281
:100E1000742066696C616D656E7420616E64207308
:100E2000656E64204D3130380A0053656E64204D84
:100E300031303820746F2068656174206E6F7A7A63
:100E40006C650A00496E736572742066696C616D29
:100E5000656E7420616E64207072657373206275B4
:100E600074746F6E20286F72204D313038290A005B
:100E700020746F6F206C6F6E672065787472757365
:100E8000696F6E2070726576656E7465640A002005
:100E9000636F6C6420657874727573696F6E20700F
:100EA000726576656E7465640A00526573656E647A
:100EB0003A20002042002050006F6B0020746F6FBA
:100EC000206C6F6E6720657874727573696F6E2021
:100ED00070726576656E7465640A0020636F6C6479
:100EE00020657874727573696F6E207072657665AF
:100EF0006E7465640A0024F4D43050C38E20C2A2FC
:100F00004017828B7011127A910D816CD90AA861F9
:100F1000E108C7586607615143061E4B5D05C14590
:100F2000A7041A411104093D980371393103403671
:100F3000DB0265339102D4305402802E1D02632CF3
:100F4000EE01752AC501B028A001102781018F2567
:100F500064012B244B01E0223401AC211F018D20C0
:100F60000D01801FFC00841EED00971DDF00B81CE2
:100F7000D200E61BC600201BBC00641AB200B219E6
:100F8000A8000A19A0006A189900D117910040170B
:100F90008B00B516840031167E00B31579003A1522
:100FA0007300C7146F0058146A00EE1366008813AC
:100FB000630025135E00C7125B006C125700151208
:100FC0005400C111510070114F0021114B00D61077
:100FD00049008D1047004610440002104200C00F27
:100FE0004000800F3E00420F3C00060F3B00CB0E3E
:100FF0003800930E37005C0E3500270E3400F30DD9
:101000003200C10D3100900D3000600D2E00320D08
:101010002D00050D2C00D90C2B00AE0C2900850CE1
:1010200029005C0C2700350C27000E0C2600E80B6D
:101030002400C40B2400A00B23007D0B23005A0BBB
:101040002100390B2100180B2000F80A1F00D90AD3
:101050001E00BB0A1E009D0A1D00800A1D00630AB7
:101060001C00470A1B002C0A1B00110A1A00F70972
:101070001A00DD091900C4091900AB091900920909
:1010800017007B091800630917004C091600360980
:101090001600200916000A091500F5081500E008D9
:1010A0001400CC081400B8081400A4081400900818
:1010B00013007D0812006B08130058081200460840
:1010C0001200340811002308110012081100010851
:1010D0001100F0071000E0071000D0071000C00753
:1010E0001000B0070F00A107100091070E00830742
:1010F0000F0074070F0065070E0057070E00490721
:101100000E003B070D002E070E0020070D001307F1
:101110000D0006070D00F9060C00ED060D00E006B7
:101120000C00D4060C00C8060C00BC060C00B0066F
:101130000C00A4060B0099060C008D060B0082061D
:101140000B0077060B006C060B0061060A005706C1
:101150000B004C060A0042060A0038060A002E065A
:101160000A0024060A001A060A00100609000706EB
:101170000A00FD050900F4050900EB050900E20578
:101180000900D9050900D0050900C7050900BE05F9
:101190000900B5050800AD050800A50509009C0576
:1011A0000800940508008C050800840508007C05EB
:1011B0000800740508006C050700650508005D055A
:1011C0000700560508004E050700470507004005C3
:1011D000080038050700310507002A050700230528
:1011E00007001C050600160507000F050700080587
:1011F000060002050700FB040600F5040700EE04E4
:101200000600E8040600E2040700DB040600D5043B
:101210000600CF040600C9040600C3040600BD048E
:101220000600B7040600B1040500AC040600A604DD
:101230000600A00405009B04060095040500900428
:1012400006008A04050085040500800406007A046F
:10125000050075040500700405006B0405006604B4
:101260000500610405005C040500570405005204F4
:1012700005004D04050048040500430405003E0434
:1012800004003A04050035040500300404002C0471
:10129000050027040400230405001E0404001A04AA
:1012A000040016040500110404000D0404000904E0
:1012B00005000404040000040400FC030400F80317
:1012C0000400F4030400F0030400EC030400E8034A
:1012D0000400E4030400E0030400DC030400D8037A
:1012E0000400D4030400D0030400CC030400C803AA
:1012F0000300C503030024F404D9201BC40C5C0EB6
:101300009804C4095F0265077101F405F900FB0444
:10131000B30048048700C103690058035500030364
:101320004500BE023A008402310053022A0029021D
:10133000250004022000E4011C00C8011900AF01CF
:10134000170098011400840113007101100061015D
:10135000100051010E0043010D0036010B002B015E
:101360000B0020010B00150109000C01090003010D
:101370000800FB000800F3000800EB000700E40091
:101380000600DE000600D8000600D2000600CC00F1
:101390000500C7000500C2000500BD000400B9003B
:1013A0000400B5000400B1000400AD000400A90071
:1013B0000400A5000300A20003009F0004009B009E
:1013C00003009800030095000200930003009000C2
:1013D00003008D0002008B000300880002008600DD
:1013E000020084000300810002007F0002007D00F3
:1013F00002007B0002007900020077000100760005
:1014000002007400020072000100710002006F000F
:1014100002006D0001006C0002006A00010069001A
:101420000200670001006600010065000100640021
:1014300002006200010061000100600001005F0025
:1014400002005D0001005C0001005B0001005A0029
:10145000010059000100580001005700010056002A
:10146000010055000100540001005300000053002A
:1014700001005200010051000100500001004F0026
:1014800001004E0000004E0001004D0001004C0024
:1014900001004B0000004B0001004A000100490020
:1014A000010048000000480001004700010046001C
:1014B0000000460001004500000045000100440016
:1014C0000100430000004300010042000000420010
:1014D00001004100000041000100400001003F0008
:1014E00000003F0001003E0000003E0001003D0002
:1014F00000003D0001003C0000003C0000003C00FA
:1015000001003B0000003B0001003A0000003A00EF
:1015100001003900000039000100380000003800E7
:1015200000003800010037000000370001003600DD
:1015300000003600000036000100350000003500D4
:1015400000003500010034000000340000003400C9
:1015500001003300000033000000330001003200BE
:1015600000003200000032000100310000003100B4
:1015700000003100010030000000300000003000A9
:1015800001002F0000002F0000002F0000002F009E
:1015900001002E0000002E0000002E0001002D0092
:1015A00000002D0000002D0000002D0001002C0087
:1015B00000002C0000002C0000002C0001002B007B
:1015C00000002B0000002B0000002B0001002A006F
:1015D00000002A0000002A0000002A000100290063
:1015E0000000290000002900000029000000290057
:1015F000010028000000280000002800000028004A
:10160000000028000100270000002700000027003C
:10161000000027000000270001002600000026002F
:101620000000260000002600000026000100250022
:101630000000250000002500000025000000250016
:101640000000250001002400000024000000240008
:1016500000002400000024000100230000002300FB
:1016600000002300000023000000230000002300EE
:1016700000002300010022000000220000002200E0
:1016800000002200000022000000220001002100D2
:1016900000002100000021000000210000002100C6
:1016A00000002100000021000100200000002000B7
:1016B00000002000000020000000200000002000AA
:1016C000000020000000200001001F0000001F009B
:1016D00000001F0000001F0000001F0000001F008E
:1016E00000001F0001001E0000001E0000001E0080
:1016F00000001E000000043700001E290000511BDE
:1017000000005810000010090000CC04000078020E
:101710000000410100005A5F535445505F50494E4C
:10172000005A5F4D494E5F50494E005A5F454E4149
:10173000424C455F50494E005A5F4449525F504900
:101740004E005A5F43535F50494E00595F53544512
:10175000505F50494E00595F4D494E5F50494E0011
:10176000595F454E41424C455F50494E00595F44D8
:1017700049525F50494E00595F43535F50494E00F4
:10178000585F535445505F50494E00585F4D494E85
:101790005F50494E00585F454E41424C455F5049AD
:1017A0004E00585F4449525F50494E00585F4353C2
:1017B0005F50494E0053535F50494E0053455256B7
:1017C0004F335F50494E00534552564F325F504998
:1017D0004E00534552564F315F50494E00534552CB
:1017E000564F305F50494E00534453530053445FAB
:1017F0004445544543545F50494E0053434B5F505A
:10180000494E0052414D50535F44395F50494E009C
:1018100052414D50535F44385F50494E0052414D44
:1018200050535F4431305F50494E0050535F4F4E2C
:101830005F50494E004D4F53495F50494E004D494E
:10184000534F5F50494E004D4158363637355F5340
:1018500053004C45445F50494E0048454154455261
:101860005F4245445F50494E004845415445525FF0
:10187000305F50494E0046494C5F52554E4F5554CB
:101880005F50494E0046414E5F50494E0045315F22
:10189000535445505F50494E0045315F454E4142DB
:1018A0004C455F50494E0045315F4449525F5049B5
:1018B0004E0045315F43535F50494E0045305F5302
:1018C0005445505F50494E0045305F454E41424CB3
:1018D000455F50494E0045305F4449525F50494E84
:1018E0000045305F43535F50494E00455F4D5558AA
:1018F000325F50494E00455F4D5558315F50494E5B
:1019000000455F4D5558305F50494E004156525F7B
:1019100053535F50494E004156525F53434B5F5003
:10192000494E004156525F4D4F53495F50494E005A
:101930004156525F4D49534F5F50494E0054454DFB
:10194000505F4245445F50494E0054454D505F3111
:101950005F50494E0054454D505F305F50494E0036
:1019600046494C57494454485F50494E00545844E6
:10197000005258440046696C652064656C65746566
:10198000643A0044656C6574696F6E206661696CC9
:1019900065642C2046696C653A20000001363726C4
:1019A00003FFFFFF353C3D380EFFFFFF312E303E79
:1019B00012FFFFFFFF28FF0C0809FFFFFF1A1C188A
:1019C000FFFF2A08440AFF4350726F746563746511
:1019D000642050696E0A002020206E6F6E2D737493
:1019E000616E646172642050574D206D6F646500B4
:1019F000433A2000423A2000413A20002020202093
:101A0000434F4D00202020636F6D70617265206927
:101A10006E7465727275707420656E61626C656457
:101A2000002020206F766572666C6F7720696E7477
:101A300065727275707420656E61626C6564003ADF
:101A400020002020202054494D534B00423A2000D2
:101A5000202020205443435200413A2000202020DF
:101A60002054434352002020202043533A2000209A
:101A700020202057474D3A200050574D3A2020252E
:101A800034640050574D3A20202534640047004804
:101A900000000088008A008C00B300B400000098A9
:101AA000009A009C00A800AA00AC0028012A012C82
:101AB000012020202054494D455200440045006E2D
:101AC00000800081006F00B000B1007000900091B4
:101AD000007100A000A1007200200121017300200C
:101AE000697320616C736F207469656420746F2062
:101AF000746869732070696E0054494D45523143D2
:101B0000000A202E002020002020506F72743A20FE
:101B1000004F7574707574203D2000496E707574A7
:101B200020203D200050574D3A202025346400509D
:101B3000574D3A20202534640050574D3A20202537
:101B400034640050574D3A20202534640050574DDE
:101B50003A20202534640050574D3A202025346423
:101B60000050574D3A20202534640050574D3A20FC
:101B7000202534640050574D3A202025346400500D
:101B8000574D3A20202534640050574D3A202025E7
:101B900034640050574D3A20202534640050574D8E
:101BA0003A20202534640050574D3A2020253464D3
:101BB0000050574D3A20202534640050574D3A20AC
:101BC000202534640020202000202020416E616CFC
:101BD0006F6720696E203D20253564003C756E7569
:101BE0007365642F756E6B6E6F776E3E00202841B3
:101BF00025326429202000257350494E3A20253390
:101C0000642000416E616C6F6720696E203D202565
:101C100035640070726F74656374656420002028F9
:101C20004125326429202000257350494E3A202551
:101C300033642000711900016D19010160193B0026
:101C4000551943004A1945003D1944003019320125
:101C500023193301171934010C1935010119280111
:101C6000F6182A01EB182C01E1182A01D6181C01DC
:101C7000C8181801BC181A01B2182C01A7182201A3
:101C800099181E018D182401851809017618020182
:101C900069180A015A18080152180D014718420123
:101CA0003E183201351833012B180C011D180A019A
:101CB0001018080103180901FB173401ED17310151
:101CC000E8173501DD170B01D2170601C71705010B
:101CD000BC170401B5173501AC173501A217370140
:101CE000951726018B1703018017360177173101ED
:101CF0006D173D016017380156170E014B173C0157
:101D000042172801381730012B173E012117120105
:101D100016172E014572726F722077726974696EA0
:101D20006720746F20454550524F4D210A004545AC
:101D300050524F4D206461746173697A65206572F9
:101D4000726F722E0A00290A002062797465733B53
:101D500020637263200053657474696E6773205347
:101D6000746F72656420280070012C0190012701B6
:101D7000B0012201C0011D01F00118011002130180
:101D800030020E016002090190020401C002FF004E
:101D90000003FA004003F5008003F000D003EB00DD
:101DA0002004E6007004E100E004DC004005D700F8
:101DB000C005D2004006CD00D006C8008007C30091
:101DC0003008BE00F008B900C009B400B00AAF0086
:101DD000B00BAA00D00CA500000EA000500F9B0075
:101DE000C01096005012910000148C00C01587009E
:101DF000B0178200B0197D00D01B7800001E730060
:101E000040206E0090226900F024640040275F00AB
:101E100090295A00E02B5500102E500020304B0026
:101E200010324600E033410090353C001037370057
:101E300070383200A0392D00B03A2800A03B2300B2
:101E4000603C1E00103D1900903D1400103E0F0034
:101E5000703E0A00C03E0500003F0000403FFBFF0F
:101E6000803FF6FFC03FF1FF1000C90210012C01B6
:101E70004001220170011801B0010E01F0010401BE
:101E80005002FA00B002F0003003E600D003DC009C
:101E90009004D2007005C800A006BE000008B4007F
:101EA000B009AA00D00BA000600E960060118C0053
:101EB0000015820020197800C01D6E00A022640069
:101EC000B0275A00902C500000314600E0343C000E
:101ED00010383200903A2800603C1E00A03D1400EB
:101EE000803E0A00203F0000453120544845524DB5
:101EF000414C2052554E41574159004245442054CF
:101F00004845524D414C2052554E4157415900547D
:101F10006865726D616C2052756E61776179004DF4
:101F2000383420582059205A204500202F002042C4
:101F3000403A0020403A002C2065793D0029202DB0
:101F40003E202865783D002C2073793D0020436FAA
:101F50006E6E656374696E67207769746820766554
:101F600072746963616C206C696E65202873783DBA
:101F7000002C2065793D0029202D3E202865783DE4
:101F8000002C2073793D0020436F6E6E6563746989
:101F90006E67207769746820686F72697A6F6E74F3
:101FA000616C206C696E65202873783D003F53702A
:101FB0006563696669656420582C5920636F6F7288
:101FC00064696E617465206F7574206F6620626F3E
:101FD000756E64732E0A003F28522965706561741E
:101FE0002076616C7565206E6F7420706C617573FE
:101FF00069626C653B206D75737420626520617445
:10200000206C6561737420312E0A003F28522965C7
:1020100070656174206D75737420626520737065DE
:10202000636966696564207768656E206E6F7420E9
:102030007573696E6720616E204C43442E0A003F21
:10204000537065636966696564206E6F7A7A6C6542
:102050002074656D7065726174757265206E6F7441
:1020600020706C61757369626C652E0A003F537055
:10207000656369666965642066696C616D656E7427
:102080002073697A65206E6F7420706C6175736956
:10209000626C652E0A003F5370656369666965640A
:1020A000207072696D65206C656E677468206E6F54
:1020B0007420706C61757369626C652E0A003F5004
:1020C00072696D65206C656E677468206D757374D8
:1020D000206265207370656369666965642077684E
:1020E000656E206E6F74207573696E6720616E2057
:1020F0004C43442E0A003F5370656369666965640A
:10210000206E6F7A7A6C652073697A65206E6F74C1
:1021100020706C61757369626C652E0A003F5370A4
:102120006563696669656420526574726163746988
:102130006F6E204D756C7469706C696572206E6F7E
:102140007420706C61757369626C652E0A003F5271
:10215000657472616374696F6E204D756C7469701B
:102160006C696572206D757374206265207370658B
:102170006369666965642E0A003F5370656369662A
:10218000696564206C617965722068656967687447
:10219000206E6F7420706C61757369626C652E0AB5
:1021A000003F5370656369666965642062656420F9
:1021B00074656D7065726174757265206E6F7420E0
:1021C000706C61757369626C65202834302D313410
:1021D0003043292E0A0047323620636F6D6D616EE1
:1021E0006420737461727465642E20576169746928
:1021F0006E6720666F722068656174657228732946
:102200002E0A002569730025696D20256973002554
:1022100069682025696D202569730025696420257A
:1022200069682025696D2025697300256979202555
:102230006964202569682025696D2025697300651A
:102240006E7175657565696E672022005072696EE2
:102250007465722073746F70706564206475652096
:10226000746F206572726F72732E204669782074C5
:102270006865206572726F7220616E642075736587
:10228000204D39393920746F20726573746172740E
:102290002E202854656D70657261747572652069B1
:1022A000732072657365742E2053657420697420E1
:1022B00061667465722072657374617274696E67A9
:1022C000290A004E6F20436865636B73756D207734
:1022D000697468206C696E65206E756D6265722C1C
:1022E000204C617374204C696E653A20004E6F205B
:1022F000436865636B73756D2077697468206C69DA
:102300006E65206E756D6265722C204C6173742051
:102310004C696E653A2000636865636B73756D2068
:102320006D69736D617463682C204C617374204C0B
:10233000696E653A20004C696E65204E756D626568
:1023400072206973206E6F74204C617374204C6925
:102350006E65204E756D6265722B312C204C617359
:1023600074204C696E653A20004D31313000776140
:1023700069740A004D333100534420726561642052
:102380006572726F720A00446F6E65207072696EBA
:1023900074696E672066696C650A0020496E766113
:1023A0006C69642065787472756465722000000041
:1023B0000000000000000000000000009B4300003F
:1023C0009B430000C843446F6E652E0A0061626C37
:1023D00065640A0064697300656E00656E647374F9
:1023E0006F70206D6F6E69746F7220005345525686
:1023F0004F206E6F742073657475700A0057617496
:102400006368696E672070696E730A005374616E49
:102410006461726420446576696174696F6E3A2004
:10242000002052616E67653A2000204D61783A20A5
:1024300000204D696E3A20004D65616E3A200046DD
:10244000696E6973686564210A002072616E676550
:102450003A2000206D61783A2000206D696E3A20A4
:1024600000207369676D613A2000206D65616E3AE6
:1024700020003A207A3A2000206F662000205A007F
:10248000205900205800476F696E6720746F3A002A
:10249000436C6F636B776973650A00436F756E7485
:1024A00065722D0020446972656374696F6E3A200D
:1024B00000202020616E676C653A200053746172C1
:1024C00074696E67207261646975733A2000506F99
:1024D000736974696F6E696E6720746865207072C5
:1024E0006F62652E2E2E0A003F4E756D626572205A
:1024F0006F66206C65677320696E206D6F76656D01
:10250000656E74206E6F7420706C61757369626C97
:10251000652028302D3135292E0A003F2028582CDF
:102520005929206F7574206F6620626F756E647311
:102530002E0A003F53616D706C652073697A6520C7
:102540006E6F7420706C61757369626C65202834DD
:102550002D3530292E0A004D3438205A2D50726FF7
:102560006265205265706561746162696C69747935
:1025700020546573740A003F2856296572626F7390
:1025800065206C6576656C20697320696D706C617F
:10259000757369626C652028302D34292E0A007C01
:1025A0003C3E5E2B3D3F2F5B5D3B2C2A225C006254
:1025B0007573793A2070617573656420666F722057
:1025C000696E7075740A00627573793A207061756E
:1025D00073656420666F7220757365720A00627598
:1025E00073793A2070726F63657373696E670A005E
:1025F0004B494C4C45442E20004B494C4C206361C8
:102600007573656420627920746F6F206D756368DF
:1026100020696E6163746976652074696D65202D2B
:102620002063757272656E7420636F6D6D616E6488
:102630003A20005072696E7465722068616C74652E
:10264000642E206B696C6C28292063616C6C656456
:10265000210A00000000000000000000000000004F
:1026600000F0420000F0420000C8420000000057A5
:1026700061726E696E673A20486F6D696E672042BD
:10268000756D702044697669736F72203C20310A41
:10269000000202040000A0400000A0400000004032
:1026A00000009B4300009B430000C843FFFFFF481E
:1026B0006F74656E6420746F6F20636F6C640A00C2
:1026C000496E736572742066696C616D656E742005
:1026D000616E6420707265737320627574746F6EBE
:1026E00020286F72204D313038290A00486F7465F8
:1026F0006E6420746F6F20636F6C640A002F2F610B
:102700006374696F6E3A70617573650A00205A3A96
:102710000020593A0020436F756E7420583A00200B
:10272000453A00205A3A0020593A00583A00446984
:10273000666665723A200046726F6D5374703A0097
:10274000537465707065723A00556E4C6576656CB1
:102750003A004C6576656C65643A005261773A20C0
:10276000202020000A4C6F676963616C3A002C20BE
:10277000002C20003A004361703A00205A00205992
:1027800000580020204D61783A2000205A0020593E
:1027900000580020204D696E3A20004F6E20004FF7
:1027A000666600536F667420656E6473746F707331
:1027B0003A200048617264636F6465642044656612
:1027C00061756C742053657474696E6773204C6F07
:1027D000616465640A00EE020000EE02000064001D
:1027E0000000190000000000FA430000FA43000056
:1027F00020410000C8410000A0420000A0420000AB
:10280000C84300000C433A0A0020286D6D290020BF
:10281000204D36303320002055004C0046696C6155
:102820006D656E74206C6F61642F756E6C6F616482
:10283000206C656E677468733A0A0020204D383545
:1028400031205A005A2D50726F6265204F666673B0
:1028500065740020204D3230392053004175746F6B
:102860002D526574726163743A20533D3020746F49
:102870002064697361626C652C203120746F20695B
:102880006E7465727072657420452D6F6E6C792060
:102890006D6F766573206173207265747261637405
:1028A0002F7265636F7665720A002046002057001C
:1028B00020204D3230382053005265636F766572A8
:1028C0003A20533C6C656E6774683E20463C756EDA
:1028D0006974732F6D3E0A00205A0020460020576D
:1028E0000020204D323037205300526574726163EE
:1028F000743A20533C6C656E6774683E20463C75A4
:102900006E6974732F6D3E205A3C6C6966743E0A82
:102910000020440020490020204D33303420500056
:1029200020440020490020204D33303120500050F9
:1029300049442073657474696E67733A0A00205ABB
:1029400000204A0020204732392057204900205AD1
:102950000020204D3432302053004175746F2042E6
:102960006564204C6576656C696E673A0A00205A8A
:102970000020590020204D323036205800486F6D1D
:1029800065206F66667365743A0A00204500205A18
:102990000020590020580020540020530020204DD2
:1029A00032303520510020453C6D61785F655F6AAB
:1029B00065726B3E0020583C6D61785F785F6A6598
:1029C000726B3E20593C6D61785F795F6A65726B0E
:1029D0003E205A3C6D61785F7A5F6A65726B3E009B
:1029E000416476616E6365643A20513C6D696E5F47
:1029F0007365676D656E745F74696D655F75733E51
:102A000020533C6D696E5F66656564726174653EF6
:102A100020543C6D696E5F74726176656C5F6665AB
:102A20006564726174653E002054002052002020CD
:102A30004D323034205000416363656C65726174BF
:102A4000696F6E2028756E6974732F7332293A206E
:102A5000503C7072696E745F616363656C3E2052B6
:102A60003C726574726163745F616363656C3E2080
:102A7000543C74726176656C5F616363656C3E0A99
:102A800000204500205A0020590020204D323031CE
:102A90002058004D6178696D756D20416363656CE8
:102AA00065726174696F6E2028756E6974732F7317
:102AB00032293A0A00204500205A002059002020DF
:102AC0004D3230332058004D6178696D756D206648
:102AD00065656472617465732028756E6974732FFF
:102AE00073293A0A00204500205A0020590020206E
:102AF0004D39322058005374657073207065722010
:102B0000756E69743A0A0020204D3230302044300E
:102B10000A0020204D323030204400204469736187
:102B2000626C65640A0046696C616D656E74207341
:102B3000657474696E67733A002020473231202033
:102B400020203B0053442063617264206F6B0A00B5
:102B50006F70656E526F6F74206661696C65640A90
:102B600000766F6C756D652E696E6974206661699B
:102B70006C65640A00534420696E6974206661695B
:102B80006C0A0057726974696E6720746F206669F9
:102B90006C653A20006F70656E206661696C6564D3
:102BA0002C2046696C653A20006F70656E20666166
:102BB000696C65642C2046696C653A200046696C36
:102BC000652073656C65637465640A002053697AD7
:102BD000653A200046696C65206F70656E65643AE1
:102BE00020002066696C653A2000646F696E67009A
:102BF0006672657368004E6F772000454E4420531F
:102C00005542524F5554494E450A002220706F7369
:102C1000002220706172656E743A22005355425250
:102C20004F5554494E452043414C4C2074617267C6
:102C300065743A22004B494C4C45442E2000747276
:102C400079696E6720746F2063616C6C20737562A4
:102C50002D67636F64652066696C6573207769749E
:102C60006820746F6F206D616E79206C6576656C7D
:102C7000732E204D4158206C6576656C2069733A3F
:102C8000004572726F723A006F70656E20666169FE
:102C90006C65642C2046696C653A20000A202A2A5B
:102CA0002A4E6F7A7A6C6554656D705374617475D1
:102CB000735B325D203D00486F6D696E6720666111
:102CC000696C656400545249474745524544006F5A
:102CD00070656E003A20007A5F6D696E00795F6DF5
:102CE000696E00785F6D696E005265706F7274690D
:102CF0006E6720656E6473746F7020737461747591
:102D0000730A00290A002062797465733B2063729C
:102D10006320002073746F72656420736574746936
:102D20006E67732072657472696576656420280029
:102D3000202863616C63756C6174656429210A00E5
:102D400020213D2000454550524F4D204352432005
:102D50006D69736D61746368202D202873746F72C0
:102D600065642920002053697A653A2000496E6421
:102D700065783A2000204D61726C696E3D5635359C
:102D8000290A0028454550524F4D3D0045455052B7
:102D90004F4D2076657273696F6E206D69736D613A
:102DA000746368200046696C616D656E742075738C
:102DB00065643A200053746174733A20002C204CEF
:102DC0006F6E67657374206A6F623A2000546F7487
:102DD000616C2074696D653A200053746174733AB4
:102DE00020002C204661696C65643A20002C204646
:102DF000696E69736865643A20005072696E747315
:102E00003A200053746174733A200020573A00202E
:102E1000573A0043616E6E6F74206F70656E207359
:102E2000756264697220006563686F3A00534420DC
:102E30007072696E74696E67206279746520004EE5
:102E40006F74205344207072696E74696E670A0053
:102E50006265640A002C2073797374656D20737445
:102E60006F7070656421204865617465725F4944C4
:102E70003A20004531204572723A204D4158544560
:102E80004D50004572723A204D415854454D5020E6
:102E9000424544004D415854454D50207472696775
:102EA0006765726564004531204572723A204D496C
:102EB0004E54454D50004572723A204D494E54458E
:102EC0004D5020424544004D494E54454D502074CC
:102ED0007269676765726564004265642068656150
:102EE00074696E67206661696C6564004865617429
:102EF000696E67206661696C6564004531204865CC
:102F00006174696E67206661696C6564004865611B
:102F100074696E67206661696C6564004B494C4C4E
:102F200045442E20004D3238302050302053393067
:102F300000202844525952554E2900473239204129
:102F400075746F20426564204C6576656C696E67A8
:102F5000003F20284C2C522C462C4229206F75749F
:102F6000206F6620626F756E64732E0A003F2856CC
:102F7000296572626F7365206C6576656C20697374
:102F800020696D706C61757369626C652028302DE5
:102F900034292E0A00426164205A2076616C7565DE
:102FA0000A004E6F2062696C696E656172206772FB
:102FB00069640A0000002100240027002A002D0077
:102FC0003000330001010000040107010A01000084
:102FD0002200250028002B002E00310034000201C1
:102FE0000000050108010B0100002000230026005D
:102FF00029002C002F00320000010000030106010F
:10300000090105050505070508080808020202026E
:103010000A0A080804040404010101010101010174
:103020000303030303030303040707070C0C0C0C3F
:103030000C0C0C0C02020202060606060606060628
:103040000B0B0B0B0B0B0B0B0102102020080810B5
:103050002040102040800201020108040201010208
:1030600004081020408080402010080402018004E1
:10307000020180402010080402010804020101023C
:103080000408102040800102040810204080000045
:103090000A0B02090C0D0E080703040100000000D2
:1030A0000000000000000000000000000000000020
:1030B00000000000000000000000121110000000DD
:1030C0000000000000000000000000000000000000
:1030D00000000000556E6B6E6F776E20636F6D6D34
:1030E000616E643A202200696E206D6F76655F74B0
:1030F0006F282920666565645F76616C756520665A
:103100006F722058593A000012014A0111241FBE63
:10311000CFEFD1E2DEBFCDBF00E00CBF16E0A0E0F4
:10312000B2E0E4E3F2E502E00BBF02C007900D92CB
:10313000AA30B107D9F72BE1AAE0B6E001C01D9291
:10314000AE32B207E1F718E1C5E8D8E100E006C009
:1031500021970109802FFE010F944F28C438D10711
:1031600080E00807A9F70F942F0D0D9409290C94FE
:1031700000002F923F924F925F926F927F928F92B8
:103180009F92AF92BF92CF92DF92EF92FF920F93F6
:103190001F93CF93DF93CDB7DEB7E2970FB6F894C6
:1031A000DEBF0FBECDBF0E948B4F80914A1682308A
:1031B000B9F480915817811145C0809130179091D2
:1031C0003117891B8F7009F03DC00AC00E9421E7AA
:1031D0008AEC95E09093FF088093FE080E94A9B0C6
:1031E0000E9498E000914C16002381F0E6EBF5E098
:1031F00084915F012FEFA21AB20A882321F00E9466
:103200007DB0F501F5CF802F0E947DB080914C16E6
:1032100081110C94A33081EA882E8AE1982E0AE16C
:1032200080E996E10E94259CA0901906B0901A06AC
:10323000181619060CF07BC03AE1A316B1040CF481
:103240004EC075C06499CCCF80914B168F5F809330
:103250004B1665E070E080E090E00F94700A80917A
:103260004B1683330CF4BCCF85E080934C16109240
:1032700058170F947F028091680690916906909389
:1032800031068093300681E080938B0D10924B16AF
:1032900010924A1684E08093080910928C0D1092C7
:1032A000EC1A1092EB1AEEEDF5E084915F010FEF4E
:1032B000A01AB00A811103C0EEECF5E004C00E9430
:1032C0007DB0F501F2CF84915F011FEFA11AB10A21
:1032D000882309F47BCF0E947DB0F501F4CF80E90B
:1032E00096E10E94039CF501EF55F54E8083809195
:1032F000A11A8A3571F01A141B040CF091CFD40175
:10330000E02F1D92EA95E9F710921A06109219061D
:1033100087CF6AE070E080E090E00F94700AFFEFE2
:10332000AF1ABF0AB0921A06A092190679CF1A14E2
:103330001B0414F00C94A3309091021A8091A11AEE
:10334000981322C09091031A8091A21A98131CC05E
:1033500003E0A016B104C4F09091A31A9093011A4F
:103360008091A41A8093041A9330D9F4982F9D7FEA
:103370009038B9F49091A51A9F3409F05AC09091F1
:10338000A61A9B3409F055C08AE1E1EAFAE1DF01AF
:103390001D928A95E9F710921A06109219060C945C
:1033A000A330833809F045C08091A51A9091A61AE0
:1033B000982789279827A0E0B0E08093051A90937A
:1033C000061AA093071AB093081A4091A71A50E062
:1033D00060E070E04093091A50930A1A60930B1A48
:1033E00070930C1A08EA802E0AE1902E80E090E09B
:1033F000DC0184179507A607B70708F048C09C01B1
:1034000035952795220F331FF901E35FF54E5F01D4
:10341000F401208130E0322F22270181202BF50199
:10342000318320830296A11DB11DF2E08F0E911C05
:10343000E0CF813861F58091A51A90E0A0E0B0E07E
:103440008093051A9093061AA093071AB093081A4E
:103450008091A61A482F50E060E070E04093091A6E
:1034600050930A1A60930B1A70930C1AA7EABAE1E8
:10347000EDE0FAE190E020E030E02817390739F07C
:103480004D9150E0419351932F5F3F4FF6CF8AE12A
:10349000E1EAFAE1DF011D928A95E9F710921A0636
:1034A0001092190604E813E0F80181918F01882336
:1034B00019F00E947DB0F8CF8AE00E947DB0809123
:1034C0004C1618161CF006EA13E015C00CEB13E0BE
:1034D000D8018D918D01882319F00E947DB0F8CF1D
:1034E00060914C16062E000C770B880B990B0E94EE
:1034F00037B50C949630F80181918F01882319F02B
:103500000E947DB0F8CF60910D1A70910E1A80E084
:1035100090E04AE00E948EB40BEC13E0D8018D914C
:103520008D01882319F00E947DB0F8CF6091051AB3
:103530007091061A8091071A9091081A4AE00E9429
:103540008EB48091051A9091061AA091071AB09135
:10355000081AE8E6F2E000E010E041915191619133
:1035600071914115510561057105D1F14817590750
:103570006A077B0791F5AC01BD01485050416109D4
:103580007109453051056105710568F1AC01BD0156
:10359000477F423350416105710541F18433F0E1C9
:1035A0009F07A105B10511F1AC01BD014654504181
:1035B000610971094730510561057105D0F0AC0111
:1035C000BD014455504161097109453051056105FE
:1035D000710588F402E110E00EC00F5F1F4FBDCFF0
:1035E0000FEF1FEF08C003E010E005C008E010E097
:1035F00002C00FE010E08A509042A109B109833D5A
:103600009105A105B10530F00F3F2FEF120721F40E
:103610000C94963009E110E08EED882E83E0982E10
:10362000F40181914F01882319F00E947DB0F8CFF9
:10363000B801012E000C880B990B0E9437B50A3196
:10364000110510F00C949630F8018827EE58FF4FC2
:103650008F4F0D944F280CEE13E00C94682B809143
:103660000D1A90910E1A8130910509F043C0109205
:10367000390281E080930B098FEF80930F090E943C
:103680008B4F0AEF13E0D8018D918D01882319F03B
:103690000E947DB0F8CF80914816882349F081E0E0
:1036A0009AE590935E1A80935D1A82E090E008C0DC
:1036B00081E09AE590935E1A80935D1A8EE290E025
:1036C0009093601A80935F1A87E08093511A82E882
:1036D0008093541A84E890E0A0E0B0E08093551AFB
:1036E0009093561AA093571AB093581A0E941AFA38
:1036F0000C9496308230910509F0BFC081E0809330
:10370000390210928C0D0E94615F8BE090E09093E3
:103710005E1A80935D1A05E00093511A12E8109327
:10372000541A80E092E1A0E0B0E08093551A9093A3
:10373000561AA093571AB093581A0E941AFA109268
:103740005E1A10925D1A0093511A1093541A8EE06B
:1037500090E1A0E0B0E08093551A9093561AA093A0
:10376000571AB093581A0E941AFA10925E1A1092C1
:103770005D1A0093511A1093541A8FE090E1A0E063
:10378000B0E08093551A9093561AA093571AB093AD
:10379000581A0E941AFA10925E1A10925D1A00933B
:1037A000511A1093541A86E190E1A0E0B0E08093A2
:1037B000551A9093561AA093571AB093581A0E940C
:1037C0001AFA62E070E080E090E00F94700A1092C4
:1037D0005E1A10925D1A0093511A1093541A80E1E8
:1037E00090E1A0E0B0E08093551A9093561AA09310
:1037F000571AB093581A0E941AFA10925E1A109231
:103800005D1A0093511A1093541A82E190E1A0E0DE
:10381000B0E08093551A9093561AA093571AB0931C
:10382000581A0E941AFA0F9464021092000910921A
:103830000109109202091092030904E214E0F80150
:1038400081918F01882319F00E947DB0F8CF80917B
:103850004816882349F081E09AE590935E1A809398
:103860005D1A81E090E02CCF81E09AE590935E1A9A
:1038700080935D1A8DE290E023CF8330910581F42F
:1038800081E08093390210928C0D0EE414E0D8018F
:103890008D918D01882309F42BC40E947DB0F7CF50
:1038A000049711F00C949630109239020C949630D3
:1038B00080910D1A90910E1A81309105D1F41092D9
:1038C000390280911D02882319F082E090E002C045
:1038D00083E090E090935E1A80935D1A85E0809378
:1038E000511A82E88093541A8EE190E1A0E0B0E092
:1038F000F5CE8230910509F076C008E714E0F801B2
:1039000081918F01882319F00E947DB0F8CF81E06A
:103910008093390290910809809148169330A1F460
:10392000882349F081E09AE590935E1A80935D1AAE
:103930008AE090E0C5CE81E09AE590935E1A80938C
:103940005D1A84E390E0BCCE9430C9F5882349F039
:1039500081E09AE590935E1A80935D1A8CE090E086
:10396000AFCE81E09AE590935E1A80935D1A86E36C
:1039700090E0A6CE8091051A9091061AA091071AA0
:10398000B091081A8830F0E19F07A105B10509F050
:1039900030C190918B0D80914816913009F4BFC0D1
:1039A0009111C5C020910D1A30910E1A203F31059A
:1039B00009F0BDC090910809933009F4B1CF882374
:1039C00049F081E09AE590935E1A80935D1A8BE04E
:1039D00090E076CE81E09AE590935E1A80935D1A2E
:1039E00085E390E06DCE8330910509F049C02091C8
:1039F0001D02222311F190935E1A80935D1A85E0D7
:103A00008093511A82E88093541A8EE190E1A0E0ED
:103A1000B0E08093551A9093561AA093571AB0931A
:103A2000581A0E941AFA8FEF90E090930A09809337
:103A3000090910921D020C94963082E090E0909358
:103A40005E1A80935D1A85E08093511A82E8809314
:103A5000541A8EE190E1A0E0B0E08093551A909363
:103A6000561AA093571AB093581A0E941AFA109235
:103A70000A091092090981E080931D020C94963086
:103A8000049711F00C94963080910C028823F1F089
:103A900082E090E090935E1A80935D1A85E08093B7
:103AA000511A82E88093541A8FE190E1A0E0B0E0CF
:103AB0008093551A9093561AA093571AB093581A98
:103AC0000E941AFA10920C020C94963083E090E057
:103AD00090935E1A80935D1A85E08093511A82E874
:103AE0008093541A8FE190E1A0E0B0E08093551AE2
:103AF0009093561AA093571AB093581A0E941AFA24
:103B000081E080930C020C94963080910D1A909174
:103B10000E1A90930B0280930A020C949630209117
:103B20000D1A30910E1A203F310509F40FCF88236A
:103B300049F081E09AE590935E1A80935D1A86E5DC
:103B400090E008C081E09AE590935E1A80935D1A38
:103B500087E590E09093601A80935F1A87E08093E6
:103B6000511A82E88093541A84E890E0A0E0B0E013
:103B70008093551A9093561AA093571AB093581AD7
:103B80000E941AFA10925E1A10925D1A05E00093D4
:103B9000511A12E81093541A80E190E1A0E0B0E0CD
:103BA0008093551A9093561AA093571AB093581AA7
:103BB0000E941AFA10925E1A10925D1A0093511A1E
:103BC0001093541A82E190E1A0E0B0E08093551A7E
:103BD0009093561AA093571AB093581A0E941AFA43
:103BE0001092EC1A1092EB1A10920C090E94B34634
:103BF0005FC18A3000E19007A105B10509F073C0EB
:103C000080910D1A90910E1A813F910511F00C943C
:103C1000963080914816882349F081E09AE5909388
:103C20005E1A80935D1A86E590E008C081E09AE50F
:103C300090935E1A80935D1A87E590E09093601AE6
:103C400080935F1A87E08093511A82E88093541A18
:103C500084E890E0A0E0B0E08093551A9093561A63
:103C6000A093571AB093581A0E941AFA81E08093D1
:103C70004C16109258170F947F02E4EAF5E08491F5
:103C80008F010F5F1F4F811103C0E4E9F5E004C00D
:103C90000E947DB0F801F3CF84918F010F5F1F4F19
:103CA000882321F00E947DB0F801F6CF809168064C
:103CB00090916906909331068093300681E080935D
:103CC0008B0D84E0809308091092EC1A1092EB1A85
:103CD0000E9421E780E995E09093FF088093FE0819
:103CE0000E94A9B0E5C08C309041A105B10509F052
:103CF000DFC080910D1A90910E1A019709F0D8C07B
:103D000080E090E00E94B4DB892BB1F1109218069C
:103D100010921706A5E0AA2EB2E8BB2E1EE8C12E0F
:103D200010E1D12EE12CF12C00911706109118060C
:103D30000530110514F00C94963010935E1A009320
:103D40005D1AA092511AB092541AC092551AD0928C
:103D5000561AE092571AF092581A0E941AFA60E91D
:103D600071E080E090E00F94700A0F5F1F4F109396
:103D7000180600931706D8CF8CE895E09093FF08BB
:103D80008093FE080E94A9B0ECE4F3E18EE1DF012C
:103D90001D928A95E9F7809131068F9380913006C4
:103DA0008F9383E895E09F938F93FF93EF930F9406
:103DB000611E8CE493E10E9484B00E9421E70F9081
:103DC0000F900F900F900F900F90E2E7F5E0849125
:103DD0008F010F5F1F4F882321F00E947DB0F801F3
:103DE000F6CF82E080934A161092080981E0809312
:103DF000390280EA9FE09093EC1A8093EB1A80914D
:103E00004816882329F010925E1A10925D1A06C097
:103E10008CE090E090935E1A80935D1A85E0809329
:103E2000511A82E88093541A84E190E1A0E0B0E056
:103E30008093551A9093561AA093571AB093581A14
:103E40000E941AFA10928B0D1092EC1A1092EB1A33
:103E500081E080930C0980914816882349F081E025
:103E60009AE590935E1A80935D1A8AE090E008C00C
:103E700081E09AE590935E1A80935D1A84E390E066
:103E80009093601A80935F1A87E08093511A82E8BA
:103E90008093541A84E890E0A0E0B0E08093551A33
:103EA0009093561AA093571AB093581A0E941AFA70
:103EB0008091051A9091061AA091071AB091081ADC
:103EC0008C309041A105B10511F00C949630809191
:103ED0000D1A90910E1A029711F00C94963081E011
:103EE00080931606109208098093390280EA9FE0B9
:103EF0009093EC1A8093EB1A8091300690913106E2
:103F0000909369068093680610921806109217061F
:103F100082E080934A1680914816882369F081E0F8
:103F20009AE590935E1A80935D1A87E090E09093F3
:103F3000601A80935F1AC9CB81E09AE590935E1A6C
:103F400080935D1A82E590E0BBCB20910D1A3091F1
:103F50000E1AB90180E090E037FF09C00F94931E5C
:103F600020E030E040E857E40F94592502C00F9458
:103F7000931E20E030E048EC52E40F943626609324
:103F800058067093590680935A0690935B06C0902A
:103F90005806D0905906E0905A06F0905B0620E053
:103FA00030E040EA51ECC701B6010F94812787FD4C
:103FB00053C020E030E040EA51E4C701B6010F945D
:103FC0008F1E18160CF448C0A70196016091A00836
:103FD0007091A1088091A2089091A3080F9459258F
:103FE00020E030E048EC53E40F94F41E90580F9416
:103FF0009E26CB010E9425DC6091580670915906DF
:1040000080915A0690915B066093A0087093A10876
:104010008093A2089093A30820E030E048EC52E49B
:104020000F94F41E0F949E2670935E1A60935D1A8F
:1040300085E08093511A82E88093541A86E290E1D9
:10404000A0E0B0E08093551A9093561AA093571AA7
:10405000B093581A0E941AFA0E9431920C9496302A
:1040600080910D1A90910E1A009739F481E0809397
:10407000390210928C0D0C9496309C01215031091C
:104080002230310510F40C9496308330910509F0FC
:104090005BC090911D02809148169923D1F12FEFBA
:1040A00030E030930A092093090910921D028823F9
:1040B00039F181E09AE590935E1A80935D1A8FE062
:1040C00090E0FECA8091051A9091061AA091071AF5
:1040D000B091081A8233F0E19F07A105B10509F0FC
:1040E00084C180910D1A90910E1A009709F050C169
:1040F0009091481680911D02911147C181111BC0FA
:1041000081E09AE590935E1A80935D1A89E390E0CE
:10411000D7CA10920A091092090991E090931D02E2
:10412000882349F081E09AE590935E1A80935D1AA6
:1041300080E190E0C5CA81E09AE590935E1A809391
:104140005D1A8AE390E0BCCA85309105A9F580E04C
:1041500090E0A3E4B3E48093000290930102A09363
:104160000202B093030283EC90E00F944D1710927B
:104170006D0610926C060E94E7A183EC90E090938C
:104180005E1A80935D1A05E00093511A12E81093AD
:10419000541A84E390E1A0E0B0E08093551A909324
:1041A000561AA093571AB093581A0E941AFA1092EE
:1041B0005E1A10925D1A3AC086309105E1F580E0F2
:1041C00090E0A0E7B3E48093000290930102A093F3
:1041D0000202B093030280EF90E00F944D17FEE6C9
:1041E000EF2EF12CF0926D06E0926C060E94E7A192
:1041F00080EF90E090935E1A80935D1A05E0009343
:10420000511A12E81093541A84E390E1A0E0B0E050
:104210008093551A9093561AA093571AB093581A30
:104220000E941AFAF0925E1AE0925D1A0093511AF7
:104230001093541AD5C0813F910511F00C9496301B
:104240008FEF90E090930A098093090910921D0264
:104250000E947FA210925E1A10925D1A05E00093F0
:10426000511A12E81093541A84E390E1A0E0B0E0F0
:104270008093551A9093561AA093571AB093581AD0
:104280000E941AFA61E070E080E090E00F94700AFA
:1042900010925E1A10925D1A0093511A1093541ADC
:1042A0008AE390E1A0E0B0E08093551A9093561A0B
:1042B000A093571AB093581A0E941AFA61E070E05E
:1042C00080E090E00F94700A80914816882309F1ED
:1042D00088E090E090935E1A80935D1A0093511AE3
:1042E0001093541A84E190E1A0E0B0E08093551A55
:1042F0009093561AA093571AB093581A0E941AFA1C
:1043000081E09AE590935E1A80935D1A8FE090E0C9
:1043100020C084E190E090935E1A80935D1A009330
:10432000511A1093541A84E190E1A0E0B0E0809318
:10433000551A9093561AA093571AB093581A0E9480
:104340001AFA81E09AE590935E1A80935D1A89E3E8
:1043500090E09093601A80935F1A87E08093511ADF
:104360001093541A84E890E0A0E0B0E08093551ACE
:104370009093561AA093571AB093581A0E941AFA9B
:1043800082E0809308090C9496308111CBCE91CEB7
:104390008130910599F41092690610926806109286
:1043A0005E1A10925D1A85E08093511A82E880931C
:1043B000541A84E390E1A0E0B0E090C9029711F0B4
:1043C0000C94963010926D0610926C0610925E1A44
:1043D00010925D1A85E08093511A82E88093541AF6
:1043E0008AE390E1A0E0B0E079C9843300E190076E
:1043F000A105B10551F480910D1A90910E1A909378
:104400006906809368060C9496308A339041A10522
:10441000B10511F00C94963080910D1A90910E1AFE
:1044200090936D0680936C060C94963080910D1AD3
:1044300090910E1A009709F419CE8130910509F078
:104440006CC080911102882319F082E090E002C0D4
:1044500083E090E090935E1A80935D1A85E08093EC
:10446000511A82E88093541A85E490E1A0E0B0E00C
:104470008093551A9093561AA093571AB093581ACE
:104480000E941AFA8AE090E090935E1A80935D1A77
:1044900085E08093511A82E88093541A80E092E17B
:1044A000A0E0B0E08093551A9093561AA093571A43
:1044B000B093581A0E941AFA12E010934C168EE626
:1044C00095E09093FF088093FE080E94A9B0109396
:1044D0004C1680E00E944F5481E695E09093FF08CF
:1044E0008093FE080E94A9B081E00E944F54809101
:1044F0004816882349F081E09AE590935E1A8093EC
:104500005D1A86E190E0DCC881E09AE590935E1A3E
:1045100080935D1A80E490E0D3C88230910509F061
:10452000B6C081E08093390210928C0D88E0ECE0F7
:10453000F6E0DF011D928A95E9F780E090E0A0E2C5
:10454000B1E480930C0690930D06A0930E06B093F1
:104550000F068093100690931106A0931206B09355
:10456000130684E690E090935E1A80935D1A05E04E
:104570000093511A12E81093541A84E590E1A0E0D8
:10458000B0E08093551A9093561AA093571AB0939F
:10459000581A0E941AFA20E030E040E251E460919B
:1045A00010067091110680911206909113060F94D7
:1045B000F41E0F949E2670935E1A60935D1A00930A
:1045C000511A1093541A88E590E1A0E0B0E080936E
:1045D000551A9093561AA093571AB093581A0E94DE
:1045E0001AFA6091820870918308809184089091F2
:1045F00085080F949E2670935E1A60935D1A00934F
:10460000511A1093541A86E390E1A0E0B0E0809331
:10461000551A9093561AA093571AB093581A0E949D
:104620001AFA809168069091690690935E1A8093B9
:104630005D1A0093511A1093541A84E390E1A0E09C
:10464000B0E08093551A9093561AA093571AB093DE
:10465000581A0E941AFA62E070E080E090E00F942D
:10466000700A80914816882349F081E09AE590937A
:104670005E1A80935D1A87E190E09CC781E09AE51D
:1046800090935E1A80935D1A81E490E093C7833023
:10469000910509F092C01092330C20E030E040E226
:1046A00051E46091DA087091DB088091DC08909108
:1046B000DD080F94F41E0F949E2670935E1A60938B
:1046C0005D1A05E00093511A12E81093541A88E419
:1046D00090E1A0E0B0E08093551A9093561AA09311
:1046E000571AB093581A0E941AFA20E030E040E2BC
:1046F00051E46091DE087091DF088091E0089091AC
:10470000E1080F94F41E0F949E2670935E1A609336
:104710005D1A0093511A1093541A8AE490E1A0E0B4
:10472000B0E08093551A9093561AA093571AB093FD
:10473000581A0E941AFA20E030E040E251E46091F9
:10474000E2087091E3088091E4089091E5080F94E5
:10475000F41E0F949E2670935E1A60935D1A009368
:10476000511A1093541A8CE490E1A0E0B0E08093C9
:10477000551A9093561AA093571AB093581A0E943C
:104780001AFA62E070E080E090E00F94700A809185
:104790004816882349F081E09AE590935E1A809349
:1047A0005D1A8DE190E006C781E09AE590935E1A6C
:1047B00080935D1A87E490E0FDC68430910511F482
:1047C0000C9496308530910551F44EE750E160E04D
:1047D00070E08FE994E00E9465DB0C9496300697B8
:1047E00011F00C9496308DE595E09093FF0880933E
:1047F000FE080E94A9B08BE090E03DC380910D1AA5
:1048000090910E1A0197A9F580EA9FE09093EC1A17
:104810008093EB1A1092390280914816882349F050
:1048200081E09AE590935E1A80935D1A85E190E0AD
:1048300008C081E09AE590935E1A80935D1A8FE339
:1048400090E09093601A80935F1A87E08093511AEA
:1048500082E88093541A84E890E0A0E0B0E080936E
:10486000551A9093561AA093571AB093581A0E944B
:104870001AFA80910D1A90910E1A029711F00C9469
:10488000963035CE80910D1A90910E1A8130910597
:1048900009F056C0809147168770873019F089E576
:1048A00095E002C082E595E09093FF088093FE08B2
:1048B0000E94A9B080E00E944F5485E495E0909357
:1048C000FF088093FE080E94A9B083E090E09093D7
:1048D0005E1A80935D1A05E00093511A12E8109356
:1048E000541A85E490E1A0E0B0E08093551A9093CB
:1048F000561AA093571AB093581A0E941AFA609148
:10490000A0087091A1088091A2089091A3086093DB
:1049100058067093590680935A0690935B0620E0E0
:1049200030E048EC52E40F94F41E0F949E267093EE
:104930005E1A60935D1A0093511A1093541A8BC239
:1049400082309105B1F52DEC3CEC4CEC5DE36091CF
:10495000A0087091A1088091A2089091A3080F94DB
:104960005A256B017C0120E030E040EA51EC0F94C5
:10497000812787FD7EC220E030E040EA51E4C70194
:10498000B6010F948F1E18160CF473C288E290E0E3
:104990000E9425DC2DEC3CEC4CEC5DE36091A00822
:1049A0007091A1088091A2089091A3080F945A25B4
:1049B00039C08330910509F068C02DEC3CEC4CEC1B
:1049C0005DE36091A0087091A1088091A208909188
:1049D000A3080F9459256B017C0120E030E040EAE8
:1049E00051EC0F94812787FD44C220E030E040EA7B
:1049F00051E4C701B6010F948F1E18160CF439C28A
:104A000088ED9FEF0E9425DC2DEC3CEC4CEC5DE347
:104A10006091A0087091A1088091A2089091A308CC
:104A20000F9459256093A0087093A1088093A20861
:104A30009093A308609358067093590680935A0682
:104A400090935B0620E030E048EC52E40F94F41EB3
:104A50000F949E2670935E1A60935D1A85E0809392
:104A6000511A82E88093541A86E290E1A0E0B0E007
:104A70008093551A9093561AA093571AB093581AC8
:104A80000E941AFA0E943192F4C18430910509F013
:104A90005AC084E080934C1688E395E09093FF0819
:104AA0008093FE080E94A9B084E395E09093FF08EC
:104AB0008093FE080E94A9B082E080934C1680E0AB
:104AC0000E944F5487E295E09093FF088093FE0880
:104AD0000E94A9B083E090E090935E1A80935D1AE3
:104AE00085E08093511A12E81093541A85E490E1FE
:104AF000A0E0B0E08093551A9093561AA093571AED
:104B0000B093581A0E941AFA80914816882349F0E7
:104B100081E09AE590935E1A80935D1A8CE190E0B3
:104B200008C081E09AE590935E1A80935D1A84E54F
:104B300090E09093601A80935F1A87E08093511AF7
:104B40001093541A10C28530910509F07DC083E09E
:104B500080934C1681E090E090935E1A80935D1AEA
:104B600085E08093511A12E81093541A8DE890E171
:104B7000A0E0B0E08093551A9093561AA093571A6C
:104B8000B093581A0E941AFA80914816882349F067
:104B900081E09AE590935E1A80935D1A8BE290E033
:104BA00008C081E09AE590935E1A80935D1A85E5CE
:104BB00090E09093601A80935F1A87E08093511A77
:104BC0001093541A84E890E0A0E0B0E08093551A66
:104BD0009093561AA093571AB093581A0E941AFA33
:104BE00083E295E09093FF088093FE080E94A9B0AD
:104BF00080E00E944F5484E195E09093FF088093F9
:104C0000FE080E94A9B081E095E09093FF08809390
:104C1000FE080E94A9B084EF94E09093FF0880936F
:104C2000FE080E94A9B083E090E090935E1A809302
:104C30005D1A85E08093511A82E88093541A85E4C6
:104C400090E1A0E0B0E00BC186309105C9F484E0AA
:104C500080934C1688EE94E09093FF088093FE08B2
:104C60000E94A9B085ED94E09093FF088093FE0820
:104C70000E94A9B082E080934C168AEC94E053C065
:104C800087309105C9F484E080934C168EEB94E054
:104C90009093FF088093FE080E94A9B08DEA94E0EB
:104CA0009093FF088093FE080E94A9B082E0809351
:104CB0004C1682EA94E037C088309105C9F484E04C
:104CC00080934C1686E994E09093FF088093FE0849
:104CD0000E94A9B084E894E09093FF088093FE08B6
:104CE0000E94A9B082E080934C1689E794E01BC033
:104CF00089309105F9F484E080934C168DE694E0B8
:104D00009093FF088093FE080E94A9B08AE594E082
:104D10009093FF088093FE080E94A9B082E08093E0
:104D20004C168FE494E09093FF088093FE080E9455
:104D3000A9B09FC08A309105C9F484E080934C16D5
:104D400083E494E09093FF088093FE080E94A9B04A
:104D500081E394E09093FF088093FE080E94A9B03D
:104D600082E080934C1686E294E0DDCF0B9709F049
:104D700080C0809111028823F9F083E090E0909345
:104D80005E1A80935D1A85E08093511A82E88093C1
:104D9000541A85E490E1A0E0B0E08093551A909316
:104DA000561AA093571AB093581A0E941AFA1092E2
:104DB00011028EE194E01FC082E090E090935E1AB1
:104DC00080935D1A85E08093511A82E88093541A8B
:104DD00085E490E1A0E0B0E08093551A9093561AD4
:104DE000A093571AB093581A0E941AFA81E0809340
:104DF000110286E194E09093FF088093FE080E94E0
:104E0000A9B08091580690915906A0915A06B09188
:104E10005B0680936A1390936B13A0936C13B0930B
:104E20006D1320E030E048EC52E46091A0087091EE
:104E3000A1088091A2089091A3080F94F41E0F94EA
:104E40009E2670935E1A60935D1A85E08093511AD6
:104E500082E88093541A86E290E1A0E0B0E080936B
:104E6000551A9093561AA093571AB093581A0E9445
:104E70001AFA8AE090E090935E1A80935D1A85E0BA
:104E80008093511A82E88093541A80E092E1A0E066
:104E9000B0E00C946E1B84E080934C168091051A50
:104EA0009091061AA091071AB091081A60910D1AF4
:104EB00070910E1A8834E0E19E07A105B10509F44E
:104EC0005AC08A34F0E19F07A105B10509F45BC01F
:104ED0008C3400E19007A105B10509F45DC086346A
:104EE0009041A105B10509F05FC06330710509F07B
:104EF0003FC082E194E09093FF088093FE080E94F7
:104F0000A9B084E094E09093FF088093FE080E948B
:104F1000A9B081E08093340C8093390210920B0683
:104F20001092EC1A1092EB1A80914816882349F0DF
:104F300081E09AE590935E1A80935D1A80E290E09A
:104F400008C081E09AE590935E1A80935D1A8AE426
:104F500090E09093601A80935F1A87E08093511AD3
:104F600082E88093541A84E890E0A0E0B0E077CF24
:104F70006093330CECC0C12CD12CEBE9EE2EE3E4B2
:104F8000FE2E312C11C0C12CD12C5BE9E52E53E44F
:104F9000F52E3324339408C0C12CD12C38ECE32EE9
:104FA00033E4F32E42E0342EA32CB12C80E090E0C9
:104FB0000F94931E20E030E040E251E40F94362637
:104FC0002B013C0120E030E0A9010F948F1EAA0CB8
:104FD000BB1CAA0CBB1C87FF08C0F501E652F74FAB
:104FE000108211821282138214C0A7019601C3019C
:104FF000B2010F948127F501E652F74F18162CF0F5
:10500000408251826282738204C0C082D182E28275
:10501000F38222E0321278C082E00E941AE020E09F
:1050200030E040E251E46091DA087091DB08809151
:10503000DC089091DD080F94F41E0F949E26709367
:105040005E1A60935D1A05E00093511A12E81093FE
:10505000541A88E490E1A0E0B0E08093551A909350
:10506000561AA093571AB093581A0E941AFA20E0C1
:1050700030E040E251E46091DE087091DF088091F9
:10508000E0089091E1080F94F41E0F949E2670930F
:105090005E1A60935D1A0093511A1093541A8AE4B1
:1050A00090E1A0E0B0E08093551A9093561AA09337
:1050B000571AB093581A0E941AFA20E030E040E2E2
:1050C00051E46091E2087091E3088091E4089091C6
:1050D000E5080F94F41E0F949E2670935E1A609359
:1050E0005D1A0093511A1093541A8CE490E1A0E0D9
:1050F000B0E08093551A9093561AA093571AB09324
:10510000581A0E941AFA03C0832D0E941AE061E027
:1051100070E080E090E00F94700A8AE090E0909355
:105120005E1A80935D1A85E08093511A82E880931D
:10513000541A80E092E1A0E0B0E08093551A909379
:10514000561AA093571AB093581A0E941AFA10923E
:105150004C16ECC783E090E00E94B4DB892B09F089
:10516000E5C78091051A9091061AA091071AB0918F
:10517000081A863530E19307A105B10509F055C23B
:1051800080910D1A90910E1A81309105C9F4809189
:10519000800880930A061092800820910C063091B6
:1051A0000D0640910E0650910F066091E608709131
:1051B000E7088091E8089091E9080F9459251CC0F0
:1051C0008230910509F0D6C08091800880930A064C
:1051D0001092800820910C0630910D0640910E0629
:1051E00050910F066091E6087091E7088091E808F9
:1051F0009091E9080F945A256093E6087093E708A8
:105200008093E8089093E90880911506882309F4B3
:1052100056C083E00E941AE020E030E040E251E412
:1052200060910C0670910D0680910E0690910F060C
:105230000F94F41E0F949E2670935E1A60935D1A6D
:1052400005E00093511A12E81093541A84E590E196
:10525000A0E0B0E08093551A9093561AA093571A85
:10526000B093581A0E941AFA20E030E040E251E46C
:1052700060911006709111068091120690911306AC
:105280000F94F41E0F949E2670935E1A60935D1A1D
:105290000093511A1093541A88E590E1A0E0B0E011
:1052A0008093551A9093561AA093571AB093581A90
:1052B0000E941AFA80910A068093800837C7C0902E
:1052C0000002D0900102E0900202F090030220E080
:1052D00030E040EA50E4C701B6010F9459259B0124
:1052E000AC0160918208709183088091840890914C
:1052F00085080F948F1E87FF8CCF81E08093150661
:10530000C701B6010F949E2670935E1A60935D1AD2
:1053100085E08093511A82E88093541A80E290E1EC
:10532000A0E0B0E08093551A9093561AA093571AB4
:10533000B093581A0E941AFA65E070E080E090E09D
:105340000F94700A80914816882351F081E09AE505
:1053500090935E1A80935D1A88E190E00C94601B34
:1053600081E09AE590935E1A80935D1A82E490E062
:105370000C94601B83309105D1F480918008809358
:105380000A0611E010938008209110063091110652
:1053900040911206509113066091E6087091E7085B
:1053A0008091E8089091E9080F9459251DC0843038
:1053B000910509F046C08091800880930A0611E0AB
:1053C000109380082091100630911106409112062A
:1053D000509113066091E6087091E7088091E80803
:1053E0009091E9080F945A256093E6087093E708B6
:1053F0008093E8089093E90880911506811109CF00
:10540000C0900002D0900102E0900202F0900302EE
:1054100020E030E040EA50E4C701B6010F9459257E
:105420009B01AC016091820870918308809184088F
:10543000909185080F948F1E87FFEBCE1093150671
:105440005FCF8530910509F0C0C081E080931406DC
:105450000091680610916906C0900002D090010288
:10546000E0900202F0900302B801012E000C880BBC
:10547000990B0F94951EA70196010F94812787FF22
:1054800005C0C701B6010F949E268B0110936906D3
:105490000093680620E030E048EC52E46091820816
:1054A0007091830880918408909185080F94F41E70
:1054B0006B017C01B801110F880B990B0F94951E9D
:1054C0009B01AC01C701B6010F9436260F94A326A9
:1054D0006436710510F064E670E070935E1A6093B4
:1054E0005D1A05E00093511A12E81093541A84E2F1
:1054F00090E1A0E0B0E08093551A9093561AA093E3
:10550000571AB093581A0E941AFA60918208709143
:10551000830880918408909185080F949E2670934B
:105520005E1A60935D1A0093511A1093541A86E321
:1055300090E1A0E0B0E08093551A9093561AA093A2
:10554000571AB093581A0E941AFA809168069091DF
:10555000690690935E1A80935D1A0093511A109316
:10556000541A84E390E1A0E0B0E08093551A909340
:10557000561AA093571AB093581A0E941AFA65E067
:1055800070E080E090E00F94700A809148168823C4
:1055900049F081E09AE590935E1A80935D1A8AE162
:1055A00090E008C081E09AE590935E1A80935D1ABE
:1055B00084E490E09093601A80935F1A87E0809370
:1055C000511A1093541A0C946A1B86309105D1F429
:1055D0001092150680914816882351F081E09AE5D3
:1055E00090935E1A80935D1A87E190E00C94601BA3
:1055F00081E09AE590935E1A80935D1A81E490E0D1
:105600000C94601B813F910559F41092150610927D
:10561000140661E070E080E090E00F94700ADACF49
:10562000803F910509F0F5CD81C58435E0E19E0705
:10563000A105B105B9F460910D1A70910E1A80E0C0
:1056400090E00F94931E20E030E040E251E40F948C
:10565000362660930C0670930D0680930E06909389
:105660000F0664C588359041A105B10509F05EC5F6
:1056700060910D1A70910E1A80E090E00F94931EC5
:1056800020E030E040E251E40F94362660931006AB
:1056900070931106809312069093130647C560918C
:1056A0000D1A70910E1A8EEE93E00E94D4888091AC
:1056B0000D1A90910E1A019711F40C942C2089EE7A
:1056C00093E09093FF088093FE080E94A9B02EC536
:1056D000D8018D918D01882319F00E947DB0F8CFFB
:1056E00080910D1A90910E1A8130910509F082C1B6
:1056F00080E090E00E94B4DB892B09F017C580910F
:105700004916813009F0EEC08CE196E00E9484B029
:1057100085EE93E09093FF088093FE080E94A9B065
:10572000C12C90E2D92EE12CF12C05E012E8109268
:105730005E1A10925D1A0093511A1093541AC09277
:10574000551AD092561AE092571AF092581A0E949F
:105750001AFABFEFCB1ADB0AEB0AFB0AEAE0CE1615
:10576000E0E2DE06E104F10411F700911B06F2E12C
:105770000F02800111240E59164FF80101900020EC
:10578000E9F7C8018E1B9F0B439697FD01967C019C
:10579000F594E7941E141F04DCF49E012F5F3F4F25
:1057A000690184E1D9011D928A95E9F7A70162EBAD
:1057B00074E0C9010F94C028B801C6018E0D9F1D69
:1057C0000F94AB2840E050E260E070E0C60105C0F5
:1057D00040E050E260E070E0C8010E9465DB62E0FA
:1057E00070E080E090E00F94700A80914816882362
:1057F00049F181E090E090935E1A80935D1A85E014
:105800008093511A12E81093541A84E190E1A0E0B9
:10581000B0E08093551A9093561AA093571AB093FC
:10582000581A0E941AFA62E070E080E090E00F944B
:10583000700A81E09AE590935E1A80935D1A8AE07F
:1058400090E028C08DE090E090935E1A80935D1AFE
:1058500085E08093511A12E81093541A84E190E184
:10586000A0E0B0E08093551A9093561AA093571A6F
:10587000B093581A0E941AFA62E070E080E090E05B
:105880000F94700A81E09AE590935E1A80935D1AF6
:1058900084E390E09093601A80935F1A87E080938E
:1058A000511A1093541A84E890E0A0E0B0E080937D
:1058B000551A9093561AA093571AB093581A0E94EB
:1058C0001AFA81E08093390280938C0D8093070946
:1058D00093E09093080980930C0910928B0D10921D
:1058E0001B0681C0823009F081C08E010F5F1F4FFF
:1058F0008EE1F80111928A95E9F7809131068F9334
:10590000809130068F938CED93E09F938F931F933C
:105910000F930F94611EC8010E9484B00F900F90E6
:105920000F900F900F900F9080915917882319F0C6
:1059300081E0809358170E94088980914816882337
:1059400019F081E090E002C08DE090E090935E1A43
:1059500080935D1A85E08093511A82E88093541AEF
:1059600084E190E1A0E0B0E08093551A9093561A3C
:10597000A093571AB093581A0E941AFA10928B0DDE
:1059800083E08093080981E080930C098091481698
:10599000882349F081E09AE590935E1A80935D1A1E
:1059A0008AE090E008C081E09AE590935E1A8093C7
:1059B0005D1A84E390E09093601A80935F1A87E009
:1059C0008093511A82E88093541A84E890E0A0E012
:1059D000B0E08093551A9093561AA093571AB0933B
:1059E000581A0E941AFA10924916A0C3833009F07F
:1059F0009DC3F0CD892B09F099C380914916813060
:105A000081F580914816882349F081E09AE59093CA
:105A10005E1A80935D1A82E090E008C081E09AE50A
:105A200090935E1A80935D1A8EE290E09093601AD4
:105A300080935F1A87E08093511A82E88093541A0A
:105A400084E890E0A0E0B0E08093551A9093561A55
:105A5000A093571AB093581A0E941AFA1092070985
:105A6000C2CF8230B1F480914816882349F081E09A
:105A70009AE590935E1A80935D1A8CE090E09BCF3C
:105A800081E09AE590935E1A80935D1A86E390E038
:105A900092CF833009F0A7CF80914816882349F030
:105AA00081E09AE590935E1A80935D1A87E190E019
:105AB00082CF81E09AE590935E1A80935D1A81E42B
:105AC00090E079CF80910D1A90910E1A8F3F910539
:105AD00031F028F08FEF90E0A0E0B0E002C0A0E04D
