:100000000C9478170C94A9170C94A9170C94A917A1
:100010000C94A9170C94A9170C94A9170C94A91760
:100020000C94A9170C94A9170C94A9170C94A91750
:100030000C94A9170C94A9170C94A9170C94A91740
:100040000C94A9170C9410810C94A9170C94A9175F
:100050000C94A9170C94A9170C9401A70D943504BE
:100060000C94A9170C94EDA90C94A9170C94A9173A
:100070000C94A9170C94A9170C94A9170C94A91700
:100080000C94A9170C94A9170C94A9170C94A917F0
:100090000C94A9170C94A9170C94A9170C94A917E0
:1000A0000C94A9170C94A9170C94A9170C94A917D0
:1000B0000C94A9170C94A9170C94A9170C94A917C0
:1000C0000C94A9170C94A9170C94A9170C94CDA300
:1000D0000C94A4A30C94A9170C94A9170C94A91719
:1000E0000C94A917211A4A1B771CAC1B882F882F48
:1000F000971E221F541F882F882F0821F022342397
:10010000882F3D26882F882F9C27882F882F412ACB
:100110001D1A882F542CDD2C128C158C1C8C1F8CD6
:10012000238C198C268C298C2D8C308C338C378C1D
:100130003A8C3D8C198C418C448C478C598E788E2E
:10014000978EBA8EDD8E7C90008F218F428F658FC7
:10015000888FAB8FCE8FF18F7C90149037905A9010
:1001600020AA26AA37AA42AA4AAA5FAA4EAA5FAA2A
:1001700052AA56AA5FAA5CAA100134012A014601BC
:100180002601400112013A014C011C010E0130010F
:1001900044011E014001420118012E0122012401E7
:1001A00028013E011A010A01380114010601320139
:1001B0002C014A01480108010A0116010C013C0109
:1001C000084AD73B3BCE016E84BCBFFDC12F3D6CBE
:1001D00074319ABD56833DDA3D00C77F11BED9E424
:1001E000BB4C3E916BAAAABE000000803F05A84C04
:1001F000CDB2D44EB93836A9020C50B991868808D0
:100200003CA6AAAA2ABE000000803F000D946A0303
:100210000D94A1030D94C9030D94B5030D9415021B
:100220000D94FC010D9403020D9462030D94AB0335
:100230000D942D020D9450030D9411020D94230280
:100240000D94D1100D9432030D9437030D94F801E1
:100250000D943C030D94EE010D947E030D94310238
:100260000D941B020D9474030D94FF010D94F21074
:100270000D945A030D9407020D94BF030D94460389
:100280000D9436020D9429020D941F020D94F20173
:100290000D9497030D9488030D940D024E414E4921
:1002A0004E495459494E46CDCCCC3D0AD7233C1734
:1002B000B7D13877CC2B329595E6241FB14F0A0081
:1002C0000020410000C84200401C4620BCBE4CCA71
:1002D0001B0E5AAEC59D7400407A10F35A00A072EE
:1002E0004E18090010A5D4E80000E8764817000071
:1002F000E40B54020000CA9A3B000000E1F505003F
:100300000080969800000040420F000000A0860187
:10031000000000102700000000E803000000006457
:1003200000000000000A00000000000100000000C2
:10033000002C76D888DC674F0823DFC1DFAE59E197
:10034000B1B796E5E3E453C63AE651997696E8E606
:10035000C28426EB898C9B62ED407C6FFCEFBC9CD9
:100360009F40F2BAA56FA5F490055A2AF75C936BEB
:100370006CF9676DC11BFCE0E40D47FEF520E6B5A6
:1003800000D0ED902E0300943577050080841E0880
:100390000000204E0A000000C80C333333330F989E
:1003A0006E12831141EF8D2114893BE65516CFFE65
:1003B000E6DB18D1844B381BF77C1D901DA4BBE4F1
:1003C00024203284725E228100C9F124ECA1E53D33
:1003D000274D3234004D3233202573004D313039F2
:1003E00020532569004D3234004D333030000A204F
:1003F0002A2A2A7265636461742E646174615B30B9
:100400005D203D0047312046313030205A31302EBA
:100410003200473238004D343230205330004D34F2
:1004200032302053310047312046313030205A30AD
:10043000004731205833302059323730204635308C
:1004400030300047312046313030205A333B0047AE
:10045000312046313030205A300047312058323771
:100460003020593237302046353030300047312087
:1004700046313030205A333B00473120463130304E
:10048000205A30004731205832373020593330203D
:1004900046353030300047312046313030205A3335
:1004A0003B0047312046313030205A300047312060
:1004B0005833302059333020463530303000473102
:1004C0002046313030205A333B004731204631300E
:1004D00030205A30004731205831353020593135DD
:1004E0003020463530303000473120463130302022
:1004F0005A333B0047312046313030205A302E30BD
:1005000000473120583135302059313530204635BB
:100510003030300047312046313030205A31302ED3
:10052000323B004732390047312046323030205AC2
:10053000302E3000473930004732382058302059AB
:1005400030205A300047312046313530205A302E85
:100550003000473238205A3000473238004D3834A6
:100560000047312046313530205A302E3000473296
:1005700038002F2F616374696F6E3A726573756D01
:10058000650A004D31303920532569004D32340061
:100590004D3235002F2F616374696F6E3A7061754B
:1005A00073650A0046726F6D2050617573657072D5
:1005B000696E740A0A000A205254535570646174BB
:1005C000652057616974776179004D3235002F2FAE
:1005D000616374696F6E3A70617573650A000A46EB
:1005E000726F6D2052756E6F75740A0A00434F4D1D
:1005F0004D554E49434154494F4E0044525952556E
:100600004E004552524F525300494E464F0045430B
:10061000484F0047322F4733206261642070617277
:10062000616D65746572730A00205A3A2000205982
:100630003A200042656420583A20004D65736820D6
:10064000706F696E742063616E6E6F7420626520D6
:100650007265736F6C7665640A00456E6420666926
:100660006C65206C6973740A00426567696E206668
:10067000696C65206C6973740A004D31323500284D
:100680006E6F2066696C65290043757272656E74C1
:100690002066696C653A20005072696E7420746936
:1006A0006D653A20006F6E2E0A006F66662E0A0096
:1006B00047323620446562756720000E060906023F
:1006C00006FB05ED056F66660044454255473A0056
:1006D0004D3131332053006F6B00544845524D412A
:1006E0004C5F50524F54454354494F4E004155546E
:1006F0004F5245504F52545F53445F5354415455E9
:100700005300454D455247454E43595F5041525362
:10071000455200434153455F4C494748545F42525C
:10072000494748544E45535300544F47474C455F43
:100730004C494748545300534F4654574152455F24
:10074000504F574552004255494C445F5045524323
:10075000454E54004C4556454C494E475F44415424
:1007600041005A5F50524F4245004155544F4C454D
:1007700056454C005052494E545F4A4F4200505229
:100780004F4752455353004155544F5245504F52D5
:10079000545F54454D5000564F4C554D45545249A9
:1007A0004300454550524F4D0053455249414C5F1F
:1007B000584F4E5F584F4646004649524D5741529A
:1007C000455F4E414D453A4D61726C696E20312E48
:1007D000312E395F534820544D33442053535344F2
:1007E0004E5520534F555243455F434F44455F5547
:1007F000524C3A68747470733A2F2F676974687535
:10080000622E636F6D2F73696879656F6E2F4D610E
:10081000726C696E2D435231305350524F2F20501D
:10082000524F544F434F4C5F56455253494F4E3AE7
:10083000312E30204D414348494E455F5459504573
:100840003A43522D3130532050726F204558545244
:10085000554445525F434F554E543A312055554902
:10086000443A63656465326132662D343161322DFC
:10087000343734382D396231322D633535633632B1
:100880006633363766660A002F2F2000205400207A
:100890005200416363656C65726174696F6E3A20E2
:1008A00050005741524E494E4721204C6F77205AF5
:1008B000204A65726B206D6179206C6561642074DB
:1008C0006F20756E77616E746564207061757365F5
:1008D000732E0A00546F6F206661722066726F6D0E
:1008E000207265666572656E636520706F696E74EF
:1008F0000A0020466C6F773A200020643A00206995
:100900003A0020703A00496E76616C69642065781F
:100910007472756465720A0043290A0061626C652D
:100920006420286D696E2074656D702000436F6CC3
:100930006420657874727564657320617265200047
:1009400020643A0020693A0020703A004E6F20631C
:10095000617365206C696768740A004D657368206F
:10096000706F696E742063616E6E6F7420626520B3
:100970007265736F6C7665640A004D34323120699C
:100980006E636F727265637420706172616D6574FD
:1009900065722075736167650A00454550524F4D79
:1009A000204F4B0A003F5A206F7574206F662072EB
:1009B000616E676520282D323020746F2032302917
:1009C0000A003A200050726F6265205A204F666616
:1009D0007365740041637469766520457874727537
:1009E0006465723A2000496E76616C6964206578AE
:1009F0007472756465720A000A20696E6974207ADF
:100A000070726F62655F7A6F6666736574203D20F1
:100A1000004D343230205331002020506C616E6E16
:100A2000657242756666657242797465733A200034
:100A30002046726565204D656D6F72793A200043DE
:100A40006F6D70696C65643A204D61792031392091
:100A5000323031390A00207C20417574686F723A57
:100A600020536948796F656E0A00323031392D3074
:100A7000352D313900204C617374205570646174D8
:100A800065643A2000312E312E395F53480A004DFB
:100A900061726C696E0020536F66747761726520B5
:100AA00052657365740A00205761746368646F67E8
:100AB0002052657365740A002042726F776E206F52
:100AC00075742052657365740A00204578746572E8
:100AD0006E616C2052657365740A00506F776572A1
:100AE00055700A0073746172740A004D3234004DFF
:100AF0003233202573006175746F25692E67006598
:100B000072726F722077726974696E6720746F20D9
:100B100066696C650A00205A3A0020593A0020584C
:100B20003A00656E6473746F7073206869743A205C
:100B300000446F6E6520736176696E672066696C2C
:100B4000652E0A004D323900205A00205900580005
:100B500020204D61783A2000205A0020590058008A
:100B600020204D696E3A20004F6E20004F666600CF
:100B7000536F667420656E6473746F70733A2000EF
:100B80004B64200023646566696E652044454641D8
:100B9000554C545F004B69200023646566696E659F
:100BA0002044454641554C545F004B70200023645F
:100BB0006566696E652044454641554C545F00505A
:100BC0004944204175746F74756E652066696E695D
:100BD00073686564212050757420746865206C61A9
:100BE0007374204B702C204B6920616E64204B6421
:100BF00020636F6E7374616E74732066726F6D2004
:100C000062656C6F7720696E746F20436F6E6669E2
:100C10006775726174696F6E2E680A0050494420CE
:100C20004175746F74756E65206661696C656421C9
:100C30002074696D656F75740A004531205448450C
:100C4000524D414C2052554E415741590042454466
:100C500020544845524D414C2052554E4157415920
:100C600000546865726D616C2052756E61776179B0
:100C70000045312048656174696E67206661696C62
:100C80006564004265642068656174696E6720660A
:100C900061696C65640048656174696E67206661AE
:100CA000696C656400504944204175746F74756EB9
:100CB00065206661696C6564212054656D7065729C
:100CC000617475726520746F6F20686967680A00C7
:100CD000204B643A2000204B693A2000204B703AA8
:100CE00020000A20436C61737369632050494420DB
:100CF0000A002054753A2000204B753A2000206DE0
:100D000061783A2000206D696E3A200020643A2014
:100D10000020626961733A20005049442041757493
:100D20006F74756E65206661696C6564212042612F
:100D300064206578747275646572206E756D626585
:100D4000720A00504944204175746F74756E6520B5
:100D500073746172740A004F66660A0046616465C6
:100D6000204865696768742000426564204C657698
:100D7000656C696E6720004661696C656420746FFC
:100D800020656E61626C6520426564204C65766505
:100D90006C696E670A00496E736572742066696CCF
:100DA000616D656E7420616E642073656E64204DA4
:100DB0003130380A0053656E64204D31303820746C
:100DC0006F2068656174206E6F7A7A6C650A0049DD
:100DD0006E736572742066696C616D656E742061F6
:100DE0006E6420707265737320627574746F6E2008
:100DF000286F72204D313038290A002F2F6163741B
:100E0000696F6E3A726573756D650A0050726F6234
:100E1000696E67206661696C65640050726F626913
:100E20006E67206661696C65640A00205A3A20008A
:100E300020593A200042656420583A200020666913
:100E40007273740A005A0059005800486F6D65208B
:100E5000002F2F616374696F6E3A63616E63656C16
:100E60000A004D3834002F2F616374696F6E3A6346
:100E7000616E63656C0A0042696C696E656172201F
:100E80004C6576656C696E6720477269643A0A0042
:100E9000486F6D652058592066697273740A002086
:100EA000746F6F206C6F6E672065787472757369EC
:100EB0006F6E2070726576656E7465640A002063DB
:100EC0006F6C6420657874727573696F6E207072D0
:100ED0006576656E7465640A00526573656E643A82
:100EE00020002042002050006F6B0020746F6F20A4
:100EF0006C6F6E6720657874727573696F6E2070A1
:100F0000726576656E7465640A0020636F6C642098
:100F1000657874727573696F6E2070726576656E30
:100F20007465640A0024F4D43050C38E20C2A240F9
:100F300017828B7011127A910D816CD90AA861E128
:100F400008C7586607615143061E4B5D05C145A79A
:100F5000041A411104093D9803713931034036DB0D
:100F60000265339102D4305402802E1D02632CEEB0
:100F700001752AC501B028A001102781018F2564C1
:100F8000012B244B01E0223401AC211F018D200DE7
:100F900001801FFC00841EED00971DDF00B81CD2ED
:100FA00000E61BC600201BBC00641AB200B219A8E0
:100FB000000A19A0006A189900D117910040178BF8
:100FC00000B516840031167E00B31579003A15730A
:100FD00000C7146F0058146A00EE1366008813638C
:100FE0000025135E00C7125B006C125700151254E7
:100FF00000C111510070114F0021114B00D6104952
:10100000008D1047004610440002104200C00F40FF
:1010100000800F3E00420F3C00060F3B00CB0E3815
:1010200000930E37005C0E3500270E3400F30D32AE
:1010300000C10D3100900D3000600D2E00320D2DDD
:1010400000050D2C00D90C2B00AE0C2900850C29B5
:10105000005C0C2700350C27000E0C2600E80B2442
:1010600000C40B2400A00B23007D0B23005A0B218E
:1010700000390B2100180B2000F80A1F00D90A1EA6
:1010800000BB0A1E009D0A1D00800A1D00630A1C89
:1010900000470A1B002C0A1B00110A1A00F7091A44
:1010A00000DD091900C4091900AB091900920917DC
:1010B000007B091800630917004C09160036091651
:1010C00000200916000A091500F5081500E00814AB
:1010D00000CC081400B8081400A4081400900813E9
:1010E000007D0812006B0813005808120046081211
:1010F0000034081100230811001208110001081122
:1011000000F0071000E0071000D0071000C0071023
:1011100000B0070F00A107100091070E0083070F12
:101120000074070F0065070E0057070E0049070EF1
:10113000003B070D002E070E0020070D0013070DC2
:101140000006070D00F9060C00ED060D00E0060C88
:1011500000D4060C00C8060C00BC060C00B0060C3F
:1011600000A4060B0099060C008D060B0082060BEE
:101170000077060B006C060B0061060A0057060B91
:10118000004C060A0042060A0038060A002E060A2B
:101190000024060A001A060A001006090007060ABB
:1011A00000FD050900F4050900EB050900E2050949
:1011B00000D9050900D0050900C7050900BE0509C9
:1011C00000B5050800AD050800A50509009C050847
:1011D00000940508008C050800840508007C0508BB
:1011E00000740508006C050700650508005D05072B
:1011F00000560508004E0507004705070040050892
:101200000038050700310507002A050700230507F8
:10121000001C050600160507000F05070008050657
:101220000002050700FB040600F5040700EE0406B3
:1012300000E8040600E2040700DB040600D504060B
:1012400000CF040600C9040600C3040600BD04065E
:1012500000B7040600B1040500AC040600A60406AD
:1012600000A00405009B04060095040500900406F8
:10127000008A04050085040500800406007A040540
:101280000075040500700405006B04050066040584
:1012900000610405005C04050057040500520405C4
:1012A000004D04050048040500430405003E040405
:1012B000003A04050035040500300404002C040540
:1012C0000027040400230405001E0404001A04047B
:1012D0000016040500110404000D040400090405AF
:1012E000000404040000040400FC030400F80304E8
:1012F00000F4030400F0030400EC030400E803041A
:1013000000E4030400E0030400DC030400D8030449
:1013100000D4030400D0030400CC030400C803037A
:1013200000C503030024F404D9201BC40C5C0E98F0
:1013300004C4095F0265077101F405F900FB04B3F9
:101340000048048700C103690058035500030345A2
:1013500000BE023A008402310053022A002902250D
:101360000004022000E4011C00C8011900AF0117AD
:101370000098011400840113007101100061011034
:101380000051010E0043010D0036010B002B010B33
:101390000020010B00150109000C010900030108E0
:1013A00000FB000800F3000800EB000700E4000663
:1013B00000DE000600D8000600D2000600CC0005C2
:1013C00000C7000500C2000500BD000400B900040C
:1013D00000B5000400B1000400AD000400A9000441
:1013E00000A5000300A20003009F0004009B00036F
:1013F0000098000300950002009300030090000392
:10140000008D0002008B00030088000200860002AD
:101410000084000300810002007F0002007D0002C2
:10142000007B0002007900020077000100760002D4
:10143000007400020072000100710002006F0002DF
:10144000006D0001006C0002006A000100690002EA
:1014500000670001006600010065000100640002F1
:10146000006200010061000100600001005F0002F5
:10147000005D0001005C0001005B0001005A0001FA
:1014800000590001005800010057000100560001FA
:1014900000550001005400010053000000530001FA
:1014A000005200010051000100500001004F0001F6
:1014B000004E0000004E0001004D0001004C0001F4
:1014C000004B0000004B0001004A000100490001F0
:1014D00000480000004800010047000100460000ED
:1014E00000460001004500000045000100440001E5
:1014F00000430000004300010042000000420001E0
:10150000004100000041000100400001003F0000D8
:10151000003F0001003E0000003E0001003D0000D1
:10152000003D0001003C0000003C0000003C0001C8
:10153000003B0000003B0001003A0000003A0001BF
:1015400000390000003900010038000000380000B8
:1015500000380001003700000037000100360000AD
:1015600000360000003600010035000000350000A4
:101570000035000100340000003400000034000198
:10158000003300000033000000330001003200008F
:101590000032000000320001003100000031000084
:1015A0000031000100300000003000000030000178
:1015B000002F0000002F0000002F0000002F00016E
:1015C000002E0000002E0000002E0001002D000063
:1015D000002D0000002D0000002D0001002C000057
:1015E000002C0000002C0000002C0001002B00004B
:1015F000002B0000002B0000002B0001002A00003F
:10160000002A0000002A0000002A00010029000032
:101610000029000000290000002900000029000125
:10162000002800000028000000280000002800001A
:10163000002800010027000000270000002700000C
:1016400000270000002700010026000000260000FF
:1016500000260000002600000026000100250000F2
:1016600000250000002500000025000000250000E6
:1016700000250001002400000024000000240000D8
:1016800000240000002400010023000000230000CB
:1016900000230000002300000023000000230000BE
:1016A00000230001002200000022000000220000B0
:1016B00000220000002200000022000100210000A2
:1016C0000021000000210000002100000021000096
:1016D0000021000000210001002000000020000087
:1016E000002000000020000000200000002000007A
:1016F0000020000000200001001F0000001F00006B
:10170000001F0000001F0000001F0000001F00005D
:10171000001F0001001E0000001E0000001E00004F
:10172000001E000000043700001E290000511B00AD
:10173000005810000010090000CC040000780200DE
:1017400000410100005A5F535445505F50494E001C
:101750005A5F4D494E5F50494E005A5F454E4142D7
:101760004C455F50494E005A5F4449525F50494EC4
:10177000005A5F43535F50494E00595F53544550E0
:101780005F50494E00595F4D494E5F50494E0059D8
:101790005F454E41424C455F50494E00595F4449B8
:1017A000525F50494E00595F43535F50494E0058B5
:1017B0005F535445505F50494E00585F4D494E5F4E
:1017C00050494E00585F454E41424C455F50494E8E
:1017D00000585F4449525F50494E00585F43535F81
:1017E00050494E0053535F50494E00534552564F97
:1017F000335F50494E00534552564F325F50494E69
:1018000000534552564F315F50494E005345525692
:101810004F305F50494E00534453530053445F448C
:1018200045544543545F50494E0053434B5F504924
:101830004E0052414D50535F44395F50494E005263
:10184000414D50535F44385F50494E0052414D5016
:10185000535F4431305F50494E0050535F4F4E5FED
:1018600050494E004D4F53495F50494E004D49532A
:101870004F5F50494E004D4158363637355F535310
:10188000004C45445F50494E004845415445525F25
:101890004245445F50494E004845415445525F30EF
:1018A0005F50494E0046494C5F52554E4F55545F6C
:1018B00050494E0046414E5F50494E0045315F53FE
:1018C0005445505F50494E0045315F454E41424CB2
:1018D000455F50494E0045315F4449525F50494E83
:1018E0000045315F43535F50494E0045305F5354CC
:1018F00045505F50494E0045305F454E41424C4592
:101900005F50494E0045305F4449525F50494E0098
:1019100045305F43535F50494E00455F4D55583247
:101920005F50494E00455F4D5558315F50494E005C
:10193000455F4D5558305F50494E004156525F53F8
:10194000535F50494E004156525F53434B5F5049DD
:101950004E004156525F4D4F53495F50494E004132
:1019600056525F4D49534F5F50494E0054454D50BC
:101970005F4245445F50494E0054454D505F315FD2
:1019800050494E0054454D505F305F50494E00461F
:10199000494C57494454485F50494E0054584400FC
:1019A0005258440046696C652064656C65746564D2
:1019B0003A0044656C6574696F6E206661696C6598
:1019C000642C2046696C653A2000000136372603F6
:1019D000FFFFFF353C3D380EFFFFFF312E303E123A
:1019E000FFFFFFFF28FF0C0809FFFFFF1A1C18FF6D
:1019F000FF2A08440AFF4350726F7465637465647C
:101A00002050696E0A002020206E6F6E2D73746165
:101A10006E646172642050574D206D6F64650043A1
:101A20003A2000423A2000413A2000202020204362
:101A30004F4D00202020636F6D7061726520696ECC
:101A40007465727275707420656E61626C65640095
:101A50002020206F766572666C6F7720696E7465E2
:101A6000727275707420656E61626C6564003A20F4
:101A7000002020202054494D534B00423A200020A2
:101A80002020205443435200413A200020202020AF
:101A900054434352002020202043533A200020206A
:101AA000202057474D3A200050574D3A20202534EA
:101AB000640050574D3A2020253464004700480008
:101AC000000088008A008C00B300B4000000980079
:101AD0009A009C00A800AA00AC0028012A012C0151
:101AE0002020202054494D455200440045006E00FE
:101AF000800081006F00B000B10070009000910084
:101B00007100A000A1007200200121017300206972
:101B10007320616C736F207469656420746F207426
:101B20006869732070696E0054494D455231430015
:101B30000A202E002020002020506F72743A2000CE
:101B40004F7574707574203D2000496E7075742057
:101B5000203D200050574D3A202025346400505736
:101B60004D3A20202534640050574D3A202025342A
:101B7000640050574D3A20202534640050574D3AA8
:101B800020202534640050574D3A2020253464002D
:101B900050574D3A20202534640050574D3A2020AC
:101BA0002534640050574D3A2020253464005057A6
:101BB0004D3A20202534640050574D3A20202534DA
:101BC000640050574D3A20202534640050574D3A58
:101BD00020202534640050574D3A202025346400DD
:101BE00050574D3A20202534640050574D3A20205C
:101BF0002534640020202000202020416E616C6F7D
:101C00006720696E203D20253564003C756E757334
:101C100065642F756E6B6E6F776E3E0020284125D0
:101C2000326429202000257350494E3A2025336420
:101C30002000416E616C6F6720696E203D20253564
:101C4000640070726F7465637465642000202841BD
:101C500025326429202000257350494E3A2025332F
:101C6000642000A01900019C1901018F193B008418
:101C7000194300791945006C1944005F193201526B
:101C8000193301461934013B193501301928012552
:101C9000192A011A192C0110192A0105191C01F71A
:101CA000181801EB181A01E1182C01D6182201C8E6
:101CB000181E01BC182401B4180901A518020198C6
:101CC000180A018918080181180D01761842016D62
:101CD000183201641833015A180C014C180A013FDC
:101CE000180801321809012A1834011C183101178B
:101CF0001835010C180B0101180601F6170501EB48
:101D0000170401E4173501DB173501D1173701C47A
:101D1000172601BA170301AF173601A61731019C28
:101D2000173D018F17380185170E017A173C017195
:101D3000172801671730015A173E01501712014545
:101D4000172E014572726F722077726974696E671F
:101D500020746F20454550524F4D210A0045455093
:101D6000524F4D206461746173697A6520657272A7
:101D70006F722E0A00290A002062797465733B2075
:101D8000637263200053657474696E6773205374C3
:101D90006F72656420280020573A00205A3A0020CC
:101DA000593A0020436F756E7420583A0020453A26
:101DB00000205A3A0020593A00583A0044696666B1
:101DC00065723A200046726F6D5374703A00537416
:101DD00065707065723A00556E4C6576656C3A00B8
:101DE0004C6576656C65643A005261773A20202034
:101DF00020000A4C6F676963616C3A002C20002C4C
:101E000020003A004361703A0070012C01900127D4
:101E100001B0012201C0011D01F0011801100213DF
:101E20000130020E016002090190020401C002FFAC
:101E3000000003FA004003F5008003F000D003EB3C
:101E4000002004E6007004E100E004DC004005D757
:101E500000C005D2004006CD00D006C8008007C3F0
:101E6000003008BE00F008B900C009B400B00AAFE5
:101E700000B00BAA00D00CA500000EA000500F9BD4
:101E800000C01096005012910000148C00C01587FD
:101E900000B0178200B0197D00D01B7800001E73BF
:101EA0000040206E0090226900F024640040275F0B
:101EB0000090295A00E02B5500102E500020304B86
:101EC0000010324600E033410090353C00103737B7
:101ED0000070383200A0392D00B03A2800A03B2312
:101EE00000603C1E00103D1900903D1400103E0F94
:101EF00000703E0A00C03E0500003F0000403FFB6E
:101F0000FF803FF6FFC03FF1FF4531205448455266
:101F10004D414C2052554E415741590042454420B5
:101F2000544845524D414C2052554E41574159005D
:101F3000546865726D616C2052756E6177617900CD
:101F40004D383420582059205A204500202F002099
:101F500042403A0020403A002C2065793D0029207B
:101F60002D3E202865783D002C2073793D002043CC
:101F70006F6E6E656374696E67207769746820762A
:101F80006572746963616C206C696E652028737872
:101F90003D002C2065793D0029202D3E20286578C4
:101FA0003D002C2073793D0020436F6E6E65637495
:101FB000696E67207769746820686F72697A6F6EDE
:101FC00074616C206C696E65202873783D003F5306
:101FD000706563696669656420582C5920636F6F6A
:101FE0007264696E617465206F7574206F6620621B
:101FF0006F756E64732E0A003F2852296570656103
:10200000742076616C7565206E6F7420706C6175DC
:102010007369626C653B206D757374206265206125
:1020200074206C6561737420312E0A003F28522998
:102030006570656174206D757374206265207370BE
:1020400065636966696564207768656E206E6F7484
:10205000207573696E6720616E204C43442E0A0020
:102060003F537065636966696564206E6F7A7A6C48
:10207000652074656D7065726174757265206E6F30
:102080007420706C61757369626C652E0A003F5331
:1020900070656369666965642066696C616D656E0B
:1020A000742073697A65206E6F7420706C6175732B
:1020B00069626C652E0A003F5370656369666965E5
:1020C00064207072696D65206C656E677468206E3F
:1020D0006F7420706C61757369626C652E0A003FC5
:1020E0005072696D65206C656E677468206D7573DC
:1020F0007420626520737065636966696564207722
:1021000068656E206E6F74207573696E6720616EEE
:10211000204C43442E0A003F53706563696669652D
:1021200064206E6F7A7A6C652073697A65206E6FB1
:102130007420706C61757369626C652E0A003F5380
:102140007065636966696564205265747261637461
:10215000696F6E204D756C7469706C696572206E64
:102160006F7420706C61757369626C652E0A003F34
:1021700052657472616374696F6E204D756C746919
:10218000706C696572206D75737420626520737060
:10219000656369666965642E0A003F53706563690B
:1021A00066696564206C6179657220686569676835
:1021B00074206E6F7420706C61757369626C652E2B
:1021C0000A003F53706563696669656420626564EF
:1021D0002074656D7065726174757265206E6F74C0
:1021E00020706C61757369626C65202834302D3104
:1021F000343043292E0A0047323620636F6D6D61FB
:102200006E6420737461727465642E205761697402
:10221000696E6720666F72206865617465722873E5
:10222000292E0A002569730025696D202569730030
:102230002569682025696D2025697300256964205A
:102240002569682025696D20256973002569792035
:10225000256964202569682025696D20256973003A
:10226000656E7175657565696E67202200507269CB
:102270006E7465722073746F707065642064756528
:1022800020746F206572726F72732E2046697820F9
:10229000746865206572726F7220616E6420757358
:1022A00065204D39393920746F20726573746172FD
:1022B000742E202854656D70657261747572652086
:1022C00069732072657365742E2053657420697478
:1022D0002061667465722072657374617274696ED0
:1022E00067290A004E6F20436865636B73756D2024
:1022F00077697468206C696E65206E756D626572B1
:102300002C204C617374204C696E653A20004E6F2E
:1023100020436865636B73756D2077697468206C02
:10232000696E65206E756D6265722C204C617374E8
:10233000204C696E653A2000636865636B73756D48
:10234000206D69736D617463682C204C6173742017
:102350004C696E653A20004C696E65204E756D6261
:102360006572206973206E6F74204C617374204C09
:10237000696E65204E756D6265722B312C204C6143
:102380007374204C696E653A20004D31313000770E
:102390006169740A004D33310053442072656164F1
:1023A000206572726F720A00446F6E6520707269E8
:1023B0006E74696E672066696C650A0020496E76E6
:1023C000616C6964206578747275646572200000C0
:1023D000000000000000000000000000009B43001F
:1023E000009B430000C8437C3C3E5E2B3D3F2F5B7F
:1023F0005D3B2C2A225C00627573793A207061750E
:1024000073656420666F7220696E7075740A00626D
:102410007573793A2070617573656420666F7220F8
:10242000757365720A00627573793A2070726F6312
:10243000657373696E670A004B494C4C45442E2006
:10244000004B494C4C2063617573656420627920B0
:10245000746F6F206D75636820696E61637469764F
:10246000652074696D65202D2063757272656E74C8
:1024700020636F6D6D616E643A20005072696E74F6
:1024800065722068616C7465642E206B696C6C28C1
:10249000292063616C6C6564210A00000000000063
:1024A000000000000000000000F0420000F04200C8
:1024B00000C842000000005761726E696E673A20E2
:1024C000486F6D696E672042756D7020446976694A
:1024D000736F72203C20310A000202040000A04009
:1024E0000000A0400000004000009B4300009B4310
:1024F0000000C843FFFFFF486F74656E6420746F6F
:102500006F20636F6C640A00496E73657274206695
:10251000696C616D656E7420616E642070726573A4
:102520007320627574746F6E20286F72204D313085
:1025300038290A00486F74656E6420746F6F2063D9
:102540006F6C640A002F2F616374696F6E3A70615B
:102550007573650A0048617264636F646564204442
:10256000656661756C742053657474696E67732059
:102570004C6F616465640A00EE020000EE02000028
:1025800064000000190000000000FA430000FA4354
:102590000000A041000070420000A0420000A042E4
:1025A0000000C84300000C433A0A0020286D6D2942
:1025B0000020204D36303320002055004C00466965
:1025C0006C616D656E74206C6F61642F756E6C6FDD
:1025D0006164206C656E677468733A0A0020204D50
:1025E000383531205A005A2D50726F6265204F667F
:1025F000667365740020204D3230392053004175D8
:10260000746F2D526574726163743A20533D3020AB
:10261000746F2064697361626C652C203120746F63
:1026200020696E7465727072657420452D6F6E6CD2
:1026300079206D6F766573206173207265747261A5
:1026400063742F7265636F7665720A0020460020FE
:10265000570020204D3230382053005265636F768A
:1026600065723A20533C6C656E6774683E20463C48
:10267000756E6974732F6D3E0A00205A0020460063
:1026800020570020204D323037205300526574729D
:102690006163743A20533C6C656E6774683E2046F3
:1026A0003C756E6974732F6D3E205A3C6C6966747C
:1026B0003E0A0020440020490020204D33303420C1
:1026C000500020440020490020204D33303120505C
:1026D000005049442073657474696E67733A0A0048
:1026E000205A00204A002020473239205720490034
:1026F000205A0020204D3432302053004175746F31
:1027000020426564204C6576656C696E673A0A0004
:10271000205A0020590020204D32303620580048E1
:102720006F6D65206F66667365743A0A0020450018
:10273000205A002059002058002054002053002027
:10274000204D32303520510020453C6D61785F6569
:102750005F6A65726B3E0020583C6D61785F785F00
:102760006A65726B3E20593C6D61785F795F6A657E
:10277000726B3E205A3C6D61785F7A5F6A65726B5E
:102780003E00416476616E6365643A20513C6D6938
:102790006E5F7365676D656E745F74696D655F7597
:1027A000733E20533C6D696E5F666565647261744B
:1027B000653E20543C6D696E5F74726176656C5F36
:1027C00066656564726174653E00205400205200A5
:1027D00020204D323034205000416363656C6572B7
:1027E0006174696F6E2028756E6974732F73322956
:1027F0003A20503C7072696E745F616363656C3E31
:1028000020523C726574726163745F616363656CCE
:102810003E20543C74726176656C5F616363656CE5
:102820003E0A00204500205A0020590020204D3249
:1028300030312058004D6178696D756D20416363BA
:10284000656C65726174696F6E2028756E6974734A
:102850002F7332293A0A00204500205A00205900DF
:1028600020204D3230332058004D6178696D756DF0
:10287000206665656472617465732028756E69747D
:10288000732F73293A0A00204500205A002059006E
:1028900020204D39322058005374657073207065C4
:1028A0007220756E69743A0A0020204D3230302053
:1028B00044300A0020204D3230302044002044694A
:1028C0007361626C65640A0046696C616D656E7463
:1028D0002073657474696E67733A00202047323143
:1028E000202020203B0053442063617264206F6BE2
:1028F0000A006F70656E526F6F74206661696C6557
:10290000640A00766F6C756D652E696E6974206659
:1029100061696C65640A00534420696E69742066BD
:1029200061696C0A0057726974696E6720746F2060
:1029300066696C653A20006F70656E206661696C2F
:1029400065642C2046696C653A20006F70656E20C6
:102950006661696C65642C2046696C653A200046A6
:10296000696C652073656C65637465640A00205347
:10297000697A653A200046696C65206F70656E65FE
:10298000643A20002066696C653A2000646F696EC5
:1029900067006672657368004E6F772000454E448D
:1029A00020535542524F5554494E450A002220703B
:1029B0006F73002220706172656E743A2200535565
:1029C00042524F5554494E452043414C4C2074616E
:1029D000726765743A22004B494C4C45442E2000E6
:1029E000747279696E6720746F2063616C6C2073F8
:1029F00075622D67636F64652066696C6573207707
:102A000069746820746F6F206D616E79206C6576D3
:102A1000656C732E204D4158206C6576656C20697D
:102A2000733A004572726F723A006F70656E20667D
:102A300061696C65642C2046696C653A20000A2047
:102A40002A2A2A4E6F7A7A6C6554656D70537461C8
:102A50007475735B325D203D00486F6D696E672051
:102A60006661696C65640054524947474552454464
:102A7000006F70656E003A20007A5F6D696E0079B4
:102A80005F6D696E00785F6D696E005265706F7280
:102A900074696E6720656E6473746F7020737461FF
:102AA0007475730A00290A002062797465733B20EB
:102AB00063726320002073746F72656420736574A1
:102AC00074696E67732072657472696576656420D7
:102AD0002800202863616C63756C6174656429212A
:102AE0000A0020213D2000454550524F4D204352C1
:102AF00043206D69736D61746368202D20287374A1
:102B00006F7265642920002053697A653A20004974
:102B10006E6465783A2000204D61726C696E3D5696
:102B20003535290A0028454550524F4D3D00454551
:102B300050524F4D2076657273696F6E206D6973C8
:102B40006D617463682000446F6E652E0A006162D7
:102B50006C65640A0064697300656E00656E647379
:102B6000746F70206D6F6E69746F722000534552E0
:102B7000564F206E6F742073657475700A0057612C
:102B8000746368696E672070696E730A0046696CC9
:102B9000616D656E7420757365643A2000537461CD
:102BA00074733A20002C204C6F6E67657374206A32
:102BB0006F623A2000546F74616C2074696D653ADD
:102BC000200053746174733A20002C204661696CB4
:102BD00065643A20002C2046696E69736865643A22
:102BE00020005072696E74733A20005374617473DC
:102BF0003A200020573A0043616E6E6F74206F7068
:102C0000656E2073756264697220006563686F3A4F
:102C1000005344207072696E74696E672062797423
:102C20006520004E6F74205344207072696E746981
:102C30006E670A006265640A002C207379737465FC
:102C40006D2073746F7070656421204865617465D0
:102C5000725F49443A20004531204572723A204D56
:102C6000415854454D50004572723A204D415854D8
:102C7000454D5020424544004D415854454D50204B
:102C800074726967676572656400453120457272C8
:102C90003A204D494E54454D50004572723A204DF0
:102CA000494E54454D5020424544004D494E5445EF
:102CB0004D5020747269676765726564004265648F
:102CC0002068656174696E67206661696C6564007F
:102CD00048656174696E67206661696C656400456A
:102CE000312048656174696E67206661696C65644E
:102CF0000048656174696E67206661696C6564008F
:102D00004B494C4C45442E20004D32383020503039
:102D10002053393000202844525952554E2900473B
:102D20003239204175746F20426564204C657665A8
:102D30006C696E67003F20284C2C522C462C42298F
:102D4000206F7574206F6620626F756E64732E0A33
:102D5000003F2856296572626F7365206C65766541
:102D60006C20697320696D706C61757369626C6544
:102D70002028302D34292E0A00426164205A207602
:102D8000616C75650A004E6F2062696C696E6561E1
:102D90007220677269640A00000021002400270085
:102DA0002A002D003000330001010000040107015A
:102DB0000A0100002200250028002B002E0031000F
:102DC000340002010000050108010B010000200091
:102DD0002300260029002C002F00320000010000F3
:102DE000030106010901050505050705080808088E
:102DF000020202020A0A0808040404040101010193
:102E0000010101010303030303030303040707078D
:102E10000C0C0C0C0C0C0C0C020202020606060632
:102E2000060606060B0B0B0B0B0B0B0B01021020FF
:102E300020080810204010204080020102010804F0
:102E40000201010204081020408080402010080484
:102E500002018004020180402010080402010804DD
:102E60000201010204081020408001020408102021
:102E7000408000000A0B02090C0D0E080703040134
:102E80000000000000000000000000000000000042
:102E9000000000000000000000000000000012110F
:102EA0001000000000000000000000000000000012
:102EB0000000000000000000556E6B6E6F776E2002
:102EC000636F6D6D616E643A202200696E206D6FD4
:102ED00076655F746F282920666565645F76616C2E
:102EE000756520666F722058593A0000360120013E
:102EF00011241FBECFEFD1E2DEBFCDBF00E00CBF7B
:102F000016E0A0E0B2E0EEE2F5E402E00BBF02C0A2
:102F100007900D92AC30B107D9F72BE1ACE0B6E0E9
:102F200001C01D92A633B207E1F717E1C7E7D7E169
:102F300000E006C021970109802FFE010F94CC21EB
:102F4000C637D10780E00807A9F70F94B0060D94A3
:102F500086220C9400002F923F924F925F926F92C4
:102F60007F928F929F92AF92BF92CF92DF92EF9219
:102F7000FF920F931F93CF93DF93CDB7DEB7E29706
:102F80000FB6F894DEBF0FBECDBF0E94755A809178
:102F900053168230B9F480916017811145C0809139
:102FA000381790913917891B8F7009F03DC00AC0FE
:102FB0000E94FEE08AEC95E0909305098093040955
:102FC0000E942FB70E9475DA00915516002381F0F8
:102FD000E6EBF5E084915F012FEFA21AB20A882395
:102FE00021F00E9403B7F501F5CF802F0E9403B7AF
:102FF0008091551681110C94952F89EA882E8AE1CB
:10300000982E0AE188E996E10E9495A2A0901B06FD
:10301000B0901C06181619060CF07BC03AE1A316F6
:10302000B1040CF44EC075C06499CCCF8091541695
:103030008F5F8093541665E070E080E090E00F941D
:10304000F1038091541683330CF4BCCF85E0809358
:103050005516109260170E9400FC80916A069091AC
:103060006B06909333068093320681E08093910D36
:10307000109254161092531684E080930E09109209
:10308000920D1092F41A1092F31AEEEDF5E084917D
:103090005F010FEFA01AB00A811103C0EEECF5E05A
:1030A00004C00E9403B7F501F2CF84915F011FEFC6
:1030B000A11AB10A882309F47BCF0E9403B7F50156
:1030C000F4CF88E996E10E9473A2F501E755F54E29
:1030D00080838091A91A8A3571F01A141B040CF0B0
:1030E00091CFD401E02F1D92EA95E9F710921C06CA
:1030F00010921B0687CF6AE070E080E090E00F94AA
:10310000F103FFEFAF1ABF0AB0921C06A0921B0694
:1031100079CF1A141B0414F00C94952F90910A1A6D
:103120008091A91A981322C090910B1A8091AA1A23
:1031300098131CC003E0A016B104C4F09091AB1A20
:103140009093091A8091AC1A80930C1A9330D9F499
:10315000982F9D7F9038B9F49091AD1A9F3409F063
:103160005AC09091AE1A9B3409F055C08AE1E9EA41
:10317000FAE1DF011D928A95E9F710921C06109280
:103180001B060C94952F833809F045C08091AD1A29
:103190009091AE1A982789279827A0E0B0E08093F5
:1031A0000D1A90930E1AA0930F1AB093101A409113
:1031B000AF1A50E060E070E04093111A5093121A79
:1031C0006093131A7093141A00EB802E0AE1902E6C
:1031D00080E090E0DC0184179507A607B70708F0A8
:1031E00048C09C0135952795220F331FF901EB5EEE
:1031F000F54E5F01F401208130E0322F222701815A
:10320000202BF501318320830296A11DB11DF2E030
:103210008F0E911CE0CF813861F58091AD1A90E05E
:10322000A0E0B0E080930D1A90930E1AA0930F1AAD
:10323000B093101A8091AE1A482F50E060E070E011
:103240004093111A5093121A6093131A7093141A20
:10325000AFEABAE1E5E1FAE190E020E030E02817DA
:10326000390739F04D9150E0419351932F5F3F4F13
:10327000F6CF8AE1E9EAFAE1DF011D928A95E9F7E2
:1032800010921C0610921B0600E813E0F8018191D1
:103290008F01882319F00E9403B7F8CF8AE00E94BB
:1032A00003B78091551618161CF002EA13E015C0FA
:1032B00008EB13E0D8018D918D01882319F00E944D
:1032C00003B7F8CF60915516062E000C770B880BCC
:1032D000990B0E94BABB0C94882FF80181918F0141
:1032E000882319F00E9403B7F8CF6091151A7091E6
:1032F000161A80E090E04AE00E9411BB07EC13E050
:10330000D8018D918D01882319F00E9403B7F8CF61
:1033100060910D1A70910E1A80910F1A9091101AE7
:103320004AE00E9411BB80910D1A90910E1AA09153
:103330000F1AB091101AE4E6F2E000E010E04191BB
:103340005191619171914115510561057105D1F15D
:10335000481759076A077B0791F5AC01BD01485032
:10336000504161097109453051056105710568F1E8
:10337000AC01BD01477F423350416105710541F108
:103380008433F0E19F07A105B10511F1AC01BD0146
:103390004654504161097109473051056105710575
:1033A000D0F0AC01BD01445550416109710945306F
:1033B00051056105710588F402E110E00EC00F5F50
:1033C0001F4FBDCF0FEF1FEF08C003E010E005C097
:1033D00008E010E002C00FE010E08A509042A1091E
:1033E000B109833D9105A105B10530F00F3F2FEFE5
:1033F000120721F40C94882F09E110E08AED882E41
:1034000083E0982EF40181914F01882319F00E94E6
:1034100003B7F8CFB801012E000C880B990B0E945E
:10342000BABB0A31110510F00C94882FF8018827D7
:10343000EE58FF4F8F4F0D94CC2108EE13E00C9403
:103440005A2A8091151A9091161A8130910509F027
:1034500043C01092350281E0809311098FEF809371
:1034600015090E94755A06EF13E0D8018D918D0160
:10347000882319F00E9403B7F8CF80915116882352
:1034800049F081E09AE59093661A8093651A82E08C
:1034900090E008C081E09AE59093661A8093651ADF
:1034A0008EE290E09093681A8093671A87E0809389
:1034B000591A82E880935C1A84E890E0A0E0B0E0BA
:1034C00080935D1A90935E1AA0935F1AB093601A6E
:1034D0000E949BF30C94882F8230910509F0BFC0A5
:1034E00081E0809335021092920D0E94274B8BE071
:1034F00090E09093661A8093651A05E00093591A3C
:1035000012E810935C1A80E092E1A0E0B0E08093B2
:103510005D1A90935E1AA0935F1AB093601A0E948E
:103520009BF31092661A1092651A0093591A109321
:103530005C1A8EE090E1A0E0B0E080935D1A909379
:103540005E1AA0935F1AB093601A0E949BF31092C8
:10355000661A1092651A0093591A10935C1A8FE03C
:1035600090E1A0E0B0E080935D1A90935E1AA09382
:103570005F1AB093601A0E949BF31092661A109221
:10358000651A0093591A10935C1A86E190E1A0E045
:10359000B0E080935D1A90935E1AA0935F1AB09387
:1035A000601A0E949BF362E070E080E090E00F946C
:1035B000F1031092661A1092651A0093591A10932B
:1035C0005C1A80E190E1A0E0B0E080935D1A9093F6
:1035D0005E1AA0935F1AB093601A0E949BF3109238
:1035E000661A1092651A0093591A10935C1A82E1B8
:1035F00090E1A0E0B0E080935D1A90935E1AA093F2
:103600005F1AB093601A0E949BF30E94E5FB109230
:10361000060910920709109208091092090900E2A0
:1036200014E0F80181918F01882319F00E9403B7FB
:10363000F8CF80915116882349F081E09AE5909364
:10364000661A8093651A81E090E02CCF81E09AE5BC
:103650009093661A8093651A8DE290E023CF8330B1
:10366000910581F481E0809335021092920D0AE475
:1036700014E0D8018D918D01882309F42BC40E9498
:1036800003B7F7CF049711F00C94882F10923502EE
:103690000C94882F8091151A9091161A81309105FB
:1036A000D1F41092350280911902882319F082E03A
:1036B00090E002C083E090E09093661A8093651AD0
:1036C00085E08093591A82E880935C1A8EE190E13C
:1036D000A0E0B0E0F5CE8230910509F076C004E7B5
:1036E00014E0F80181918F01882319F00E9403B73B
:1036F000F8CF81E08093350290910E0980915116A8
:103700009330A1F4882349F081E09AE59093661AFA
:103710008093651A8AE090E0C5CE81E09AE59093A7
:10372000661A8093651A84E390E0BCCE9430C9F5A4
:10373000882349F081E09AE59093661A8093651A90
:103740008CE090E0AFCE81E09AE59093661A80938A
:10375000651A86E390E0A6CE80910D1A90910E1A1C
:10376000A0910F1AB091101A8830F0E19F07A105BF
:10377000B10509F030C19091910D809151169130B1
:1037800009F4BFC09111C5C02091151A3091161AC5
:10379000203F310509F0BDC090910E09933009F426
:1037A000B1CF882349F081E09AE59093661A80931F
:1037B000651A8BE090E076CE81E09AE59093661AE8
:1037C0008093651A85E390E06DCE8330910509F012
:1037D00049C020911902222311F19093661A809317
:1037E000651A85E08093591A82E880935C1A8EE10D
:1037F00090E1A0E0B0E080935D1A90935E1AA093F0
:103800005F1AB093601A0E949BF38FEF90E0909341
:10381000100980930F09109219020C94882F82E0EE
:1038200090E09093661A8093651A85E08093591A08
:1038300082E880935C1A8EE190E1A0E0B0E0809392
:103840005D1A90935E1AA0935F1AB093601A0E945B
:103850009BF31092100910920F0981E080931902D6
:103860000C94882F049711F00C94882F80910C02EF
:103870008823F1F082E090E09093661A8093651AB5
:1038800085E08093591A82E880935C1A8FE190E179
:10389000A0E0B0E080935D1A90935E1AA0935F1A47
:1038A000B093601A0E949BF310920C020C94882F24
:1038B00083E090E09093661A8093651A85E0809388
:1038C000591A82E880935C1A8FE190E1A0E0B0E0A1
:1038D00080935D1A90935E1AA0935F1AB093601A5A
:1038E0000E949BF381E080930C020C94882F8091BE
:1038F000151A9091161A90930B0280930A020C9459
:10390000882F2091151A3091161A203F310509F49D
:103910000FCF882349F081E09AE59093661A80934F
:10392000651A86E590E008C081E09AE59093661AF2
:103930008093651A87E590E09093681A8093671AE0
:1039400087E08093591A82E880935C1A84E890E0BB
:10395000A0E0B0E080935D1A90935E1AA0935F1A86
:10396000B093601A0E949BF31092661A1092651A27
:1039700005E00093591A12E810935C1A80E190E177
:10398000A0E0B0E080935D1A90935E1AA0935F1A56
:10399000B093601A0E949BF31092661A1092651AF7
:1039A0000093591A10935C1A82E190E1A0E0B0E014
:1039B00080935D1A90935E1AA0935F1AB093601A79
:1039C0000E949BF31092F41A1092F31A10921209AB
:1039D0000E949D515FC18A3000E19007A105B105A9
:1039E00009F073C08091151A9091161A813F9105C4
:1039F00011F00C94882F80915116882349F081E0B2
:103A00009AE59093661A8093651A86E590E008C05F
:103A100081E09AE59093661A8093651A87E590E0B5
:103A20009093681A8093671A87E08093591A82E806
:103A300080935C1A84E890E0A0E0B0E080935D1A87
:103A400090935E1AA0935F1AB093601A0E949BF342
:103A500081E080935516109260170E9400FCE4EA02
:103A6000F5E084918F010F5F1F4F811103C0E4E9DE
:103A7000F5E004C00E9403B7F801F3CF84918F01F1
:103A80000F5F1F4F882321F00E9403B7F801F6CF84
:103A900080916A0690916B0690933306809332066C
:103AA00081E08093910D84E080930E091092F41AC6
:103AB0001092F31A0E94FEE080E995E090930509C8
:103AC000809304090E942FB7E5C08C309041A10576
:103AD000B10509F0DFC08091151A9091161A01976F
:103AE00009F0D8C080E090E00E9491D5892BB1F117
:103AF00010921A0610921906A5E0AA2EB2E8BB2E63
:103B00001EE8C12E10E1D12EE12CF12C00911906F6
:103B100010911A060530110514F00C94882F10939B
:103B2000661A0093651AA092591AB0925C1AC09254
:103B30005D1AD0925E1AE0925F1AF092601A0E94AB
:103B40009BF360E971E080E090E00F94F1030F5F78
:103B50001F4F10931A0600931906D8CF8CE895E0F2
:103B600090930509809304090E942FB7E6E5F3E1DD
:103B70008EE1DF011D928A95E9F7809133068F93DC
:103B8000809132068F9383E895E09F938F93FF9304
:103B9000EF930F94DE1786E593E10E940AB70E9427
:103BA000FEE00F900F900F900F900F900F90E2E7B4
:103BB000F5E084918F010F5F1F4F882321F00E9451
:103BC00003B7F801F6CF82E08093531610920E09E6
:103BD00081E08093350280EA9FE09093F41A80930D
:103BE000F31A80915116882329F01092661A1092C8
:103BF000651A06C08CE090E09093661A8093651A6F
:103C000085E08093591A82E880935C1A84E190E100
:103C1000A0E0B0E080935D1A90935E1AA0935F1AC3
:103C2000B093601A0E949BF31092910D1092F41AB7
:103C30001092F31A81E08093120980915116882323
:103C400049F081E09AE59093661A8093651A8AE0BC
:103C500090E008C081E09AE59093661A8093651A17
:103C600084E390E09093681A8093671A87E08093CA
:103C7000591A82E880935C1A84E890E0A0E0B0E0F2
:103C800080935D1A90935E1AA0935F1AB093601AA6
:103C90000E949BF380910D1A90910E1AA0910F1A19
:103CA000B091101A8C309041A105B10511F00C941F
:103CB000882F8091151A9091161A029711F00C9482
:103CC000882F81E08093180610920E0980933502A8
:103CD00080EA9FE09093F41A8093F31A8091320661
:103CE0009091330690936B0680936A0610921A06A1
:103CF0001092190682E08093531680915116882302
:103D000069F081E09AE59093661A8093651A87E0DE
:103D100090E09093681A8093671AC9CB81E09AE586
:103D20009093661A8093651A82E590E0BBCB209150
:103D3000151A3091161AB90180E090E037FF09C0DA
:103D40000F94101820E030E040E857E40F94D61E9E
:103D500002C00F94101820E030E048EC52E40F94B9
:103D6000B31F60935A0670935B0680935C06909332
:103D70005D06C0905A06D0905B06E0905C06F0901D
:103D80005D0620E030E040EA51ECC701B6010F9437
:103D9000FE2087FD53C020E030E040EA51E4C70137
:103DA000B6010F940C1818160CF448C0A701960120
:103DB0006091A6087091A7088091A8089091A90821
:103DC0000F94D61E20E030E048EC53E40F947118B5
:103DD00090580F941B20CB010E9402D660915A0686
:103DE00070915B0680915C0690915D066093A608D9
:103DF0007093A7088093A8089093A90820E030E06A
:103E000048EC52E40F9471180F941B207093661ABB
:103E10006093651A85E08093591A82E880935C1A52
:103E200086E290E1A0E0B0E080935D1A90935E1A84
:103E3000A0935F1AB093601A0E949BF30E94DA91DC
:103E40000C94882F8091151A9091161A009739F4C6
:103E500081E0809335021092920D0C94882F9C0182
:103E6000215031092230310510F40C94882F833011
:103E7000910509F05BC09091190280915116992328
:103E8000D1F12FEF30E03093100920930F091092F9
:103E90001902882339F181E09AE59093661A80939C
:103EA000651A8FE090E0FECA80910D1A90910E1A6B
:103EB000A0910F1AB091101A8233F0E19F07A1056B
:103EC000B10509F084C18091151A9091161A0097D6
:103ED00009F050C19091511680911902911147C17A
:103EE00081111BC081E09AE59093661A8093651A50
:103EF00089E390E0D7CA1092100910920F0991E05F
:103F000090931902882349F081E09AE59093661A0C
:103F10008093651A80E190E0C5CA81E09AE59093AC
:103F2000661A8093651A8AE390E0BCCA85309105D1
:103F3000A9F580E090E0A3E4B3E4809300029093BD
:103F40000102A0930202B093030283EC90E00F946D
:103F5000CA1010926F0610926E060E946EA883EC33
:103F600090E09093661A8093651A05E00093591AC1
:103F700012E810935C1A84E390E1A0E0B0E0809333
:103F80005D1A90935E1AA0935F1AB093601A0E9414
:103F90009BF31092661A1092651A3AC0863091050A
:103FA000E1F580E090E0ACE5B3E48093000290930B
:103FB0000102A0930202B09303028CED90E00F94F3
:103FC000CA10FCE3EF2EF12CF0926F06E0926E0621
:103FD0000E946EA88CED90E09093661A8093651A0B
:103FE00005E00093591A12E810935C1A84E390E1FB
:103FF000A0E0B0E080935D1A90935E1AA0935F1AE0
:10400000B093601A0E949BF3F092661AE092651AD0
:104010000093591A10935C1AD5C0813F910511F095
:104020000C94882F8FEF90E09093100980930F09E4
:10403000109219020E9406A91092661A1092651A2F
:1040400005E00093591A12E810935C1A84E390E19A
:10405000A0E0B0E080935D1A90935E1AA0935F1A7F
:10406000B093601A0E949BF361E070E080E090E002
:104070000F94F1031092661A1092651A0093591A60
:1040800010935C1A8AE390E1A0E0B0E080935D1A9F
:1040900090935E1AA0935F1AB093601A0E949BF3EC
:1040A00061E070E080E090E00F94F10380915116A0
:1040B000882309F188E090E09093661A8093651A4E
:1040C0000093591A10935C1A84E190E1A0E0B0E0EB
:1040D00080935D1A90935E1AA0935F1AB093601A52
:1040E0000E949BF381E09AE59093661A8093651A8B
:1040F0008FE090E020C084E190E09093661A809376
:10410000651A0093591A10935C1A84E190E1A0E0BB
:10411000B0E080935D1A90935E1AA0935F1AB093FB
:10412000601A0E949BF381E09AE59093661A80934F
:10413000651A89E390E09093681A8093671A87E084
:104140008093591A10935C1A84E890E0A0E0B0E0E4
:1041500080935D1A90935E1AA0935F1AB093601AD1
:104160000E949BF382E080930E090C94882F8111AA
:10417000CBCE91CE8130910599F410926B061092BE
:104180006A061092661A1092651A85E08093591A91
:1041900082E880935C1A84E390E1A0E0B0E090C9EB
:1041A000029711F00C94882F10926F0610926E06F1
:1041B0001092661A1092651A85E08093591A82E867
:1041C00080935C1A8AE390E1A0E0B0E079C984337F
:1041D00000E19007A105B10551F48091151A909165
:1041E000161A90936B0680936A060C94882F8A3374
:1041F0009041A105B10511F00C94882F8091151AFA
:104200009091161A90936F0680936E060C94882FE7
:104210008091151A9091161A009709F419CE8130E1
:10422000910509F06CC080910D02882319F082E09D
:1042300090E002C083E090E09093661A8093651A44
:1042400085E08093591A82E880935C1A85E490E1B6
:10425000A0E0B0E080935D1A90935E1AA0935F1A7D
:10426000B093601A0E949BF38AE090E09093661AE4
:104270008093651A85E08093591A82E880935C1ACE
:1042800080E092E1A0E0B0E080935D1A90935E1A26
:10429000A0935F1AB093601A0E949BF312E01093F0
:1042A00055168EE695E090930509809304090E94C7
:1042B0002FB71093551680E00E94395F81E695E094
:1042C00090930509809304090E942FB781E00E9412
:1042D000395F80915116882349F081E09AE59093E7
:1042E000661A8093651A86E190E0DCC881E09AE561
:1042F0009093661A8093651A80E490E0D3C8823068
:10430000910509F0B6C081E0809335021092920DBC
:1043100088E0EEE0F6E0DF011D928A95E9F780E0A3
:1043200090E0A0E2B1E480930E0690930F06A09374
:104330001006B09311068093120690931306A09373
:104340001406B093150684E690E09093661A809365
:10435000651A05E00093591A12E810935C1A84E577
:1043600090E1A0E0B0E080935D1A90935E1AA09374
:104370005F1AB093601A0E949BF320E030E040E2A5
:1043800051E4609112067091130680911406909189
:1043900015060F9471180F941B207093661A609382
:1043A000651A0093591A10935C1A88E590E1A0E011
:1043B000B0E080935D1A90935E1AA0935F1AB09359
:1043C000601A0E949BF3609188087091890880911F
:1043D0008A0890918B080F941B207093661A609343
:1043E000651A0093591A10935C1A86E390E1A0E0D5
:1043F000B0E080935D1A90935E1AA0935F1AB09319
:10440000601A0E949BF380916A0690916B069093CC
:10441000661A8093651A0093591A10935C1A84E304
:1044200090E1A0E0B0E080935D1A90935E1AA093B3
:104430005F1AB093601A0E949BF362E070E080E024
:1044400090E00F94F10380915116882349F081E0A8
:104450009AE59093661A8093651A87E190E09CC76D
:1044600081E09AE59093661A8093651A81E490E062
:1044700093C78330910509F092C01092390C20E067
:1044800030E040E251E46091E0087091E1088091F1
:10449000E2089091E3080F9471180F941B20709319
:1044A000661A6093651A05E00093591A12E8109392
:1044B0005C1A88E490E1A0E0B0E080935D1A9093EC
:1044C0005E1AA0935F1AB093601A0E949BF320E0DB
:1044D00030E040E251E46091E4087091E508809199
:1044E000E6089091E7080F9471180F941B207093C1
:1044F000661A6093651A0093591A10935C1A8AE43D
:1045000090E1A0E0B0E080935D1A90935E1AA093D2
:104510005F1AB093601A0E949BF320E030E040E203
:1045200051E46091E8087091E9088091EA0890915F
:10453000EB080F9471180F941B207093661A609308
:10454000651A0093591A10935C1A8CE490E1A0E06C
:10455000B0E080935D1A90935E1AA0935F1AB093B7
:10456000601A0E949BF362E070E080E090E00F949C
:10457000F10380915116882349F081E09AE59093E8
:10458000661A8093651A8DE190E006C781E09AE58E
:104590009093661A8093651A87E490E0FDC6843094
:1045A000910511F40C94882F8530910551F44EE754
:1045B00050E160E070E08BE994E00E9442D50C94F9
:1045C000882F069711F00C94882F8DE595E0909335
:1045D0000509809304090E942FB78BE090E03DC34A
:1045E0008091151A9091161A0197A9F580EA9FE01B
:1045F0009093F41A8093F31A109235028091511619
:10460000882349F081E09AE59093661A8093651AB1
:1046100085E190E008C081E09AE59093661A809366
:10462000651A8FE390E09093681A8093671A87E089
:104630008093591A82E880935C1A84E890E0A0E0A5
:10464000B0E080935D1A90935E1AA0935F1AB093C6
:10465000601A0E949BF38091151A9091161A029786
:1046600011F00C94882F35CE8091151A9091161A5E
:104670008130910509F056C08091501687708730BF
:1046800019F089E595E002C082E595E0909305096F
:10469000809304090E942FB780E00E94395F85E46F
:1046A00095E090930509809304090E942FB783E059
:1046B00090E09093661A8093651A05E00093591A6A
:1046C00012E810935C1A85E490E1A0E0B0E08093DA
:1046D0005D1A90935E1AA0935F1AB093601A0E94BD
:1046E0009BF36091A6087091A7088091A80890910B
:1046F000A90860935A0670935B0680935C069093BA
:104700005D0620E030E048EC52E40F9471180F94FD
:104710001B207093661A6093651A0093591A1093C0
:104720005C1A8BC282309105B1F52DEC3CEC4CEC5F
:104730005DE36091A6087091A7088091A808909108
:10474000A9080F94D71E6B017C0120E030E040EAFD
:1047500051EC0F94FE2087FD7EC220E030E040EA5D
:1047600051E4C701B6010F940C1818160CF473C26B
:1047700088E290E00E9402D62DEC3CEC4CEC5DE32C
:104780006091A6087091A7088091A8089091A90847
:104790000F94D71E39C08330910509F068C02DEC05
:1047A0003CEC4CEC5DE36091A6087091A708809109
:1047B000A8089091A9080F94D61E6B017C0120E0F7
:1047C00030E040EA51EC0F94FE2087FD44C220E027
:1047D00030E040EA51E4C701B6010F940C181816F6
:1047E0000CF439C288ED9FEF0E9402D62DEC3CEC10
:1047F0004CEC5DE36091A6087091A7088091A80831
:104800009091A9080F94D61E6093A6087093A708EC
:104810008093A8089093A90860935A0670935B064A
:1048200080935C0690935D0620E030E048EC52E413
:104830000F9471180F941B207093661A6093651A79
:1048400085E08093591A82E880935C1A86E290E1B1
:10485000A0E0B0E080935D1A90935E1AA0935F1A77
:10486000B093601A0E949BF30E94DA91F4C18430E5
:10487000910509F05AC084E08093551688E395E0CD
:1048800090930509809304090E942FB784E395E073
:1048900090930509809304090E942FB782E08093CA
:1048A000551680E00E94395F87E295E090930509F4
:1048B000809304090E942FB783E090E09093661ADA
:1048C0008093651A85E08093591A12E810935C1A58
:1048D00085E490E1A0E0B0E080935D1A90935E1AC9
:1048E000A0935F1AB093601A0E949BF380915116B7
:1048F000882349F081E09AE59093661A8093651ABF
:104900008CE190E008C081E09AE59093661A80936C
:10491000651A84E590E09093681A8093671A87E09F
:104920008093591A10935C1A10C28530910509F0D2
:104930007DC083E08093551681E090E09093661AE5
:104940008093651A85E08093591A12E810935C1AD7
:104950008DE890E1A0E0B0E080935D1A90935E1A3C
:10496000A0935F1AB093601A0E949BF38091511636
:10497000882349F081E09AE59093661A8093651A3E
:104980008BE290E008C081E09AE59093661A8093EC
:10499000651A85E590E09093681A8093671A87E01E
:1049A0008093591A10935C1A84E890E0A0E0B0E07C
:1049B00080935D1A90935E1AA0935F1AB093601A69
:1049C0000E949BF383E295E090930509809304098C
:1049D0000E942FB780E00E94395F84E195E09093B8
:1049E0000509809304090E942FB781E095E0909318
:1049F0000509809304090E942FB784EF94E09093F7
:104A00000509809304090E942FB783E090E09093FA
:104A1000661A8093651A85E08093591A82E880931C
:104A20005C1A85E490E1A0E0B0E00BC1863091050E
:104A3000C9F484E08093551688EE94E090930509BC
:104A4000809304090E942FB785ED94E090930509A7
:104A5000809304090E942FB782E0809355168AEC58
:104A600094E053C087309105C9F484E080935516D3
:104A70008EEB94E090930509809304090E942FB770
:104A80008DEA94E090930509809304090E942FB762
:104A900082E08093551682EA94E037C08830910511
:104AA000C9F484E08093551686E994E09093050953
:104AB000809304090E942FB784E894E0909305093D
:104AC000809304090E942FB782E08093551689E7EE
:104AD00094E01BC089309105F9F484E08093551669
:104AE0008DE694E090930509809304090E942FB706
:104AF0008AE594E090930509809304090E942FB7FA
:104B000082E0809355168FE494E09093050980939A
:104B100004090E942FB79FC08A309105C9F484E030
:104B20008093551683E494E09093050980930409DB
:104B30000E942FB781E394E09093050980930409C4
:104B40000E942FB782E08093551686E294E0DDCF75
:104B50000B9709F080C080910D028823F9F083E063
:104B600090E09093661A8093651A85E08093591AB5
:104B700082E880935C1A85E490E1A0E0B0E0809345
:104B80005D1A90935E1AA0935F1AB093601A0E9408
:104B90009BF310920D028EE194E01FC082E090E042
:104BA0009093661A8093651A85E08093591A82E87B
:104BB00080935C1A85E490E1A0E0B0E080935D1AF8
:104BC00090935E1AA0935F1AB093601A0E949BF3B1
:104BD00081E080930D0286E194E090930509809333
:104BE00004090E942FB780915A0690915B06A0910C
:104BF0005C06B0915D068093741390937513A09337
:104C00007613B093771320E030E048EC52E46091E3
:104C1000A6087091A7088091A8089091A9080F9400
:104C200071180F941B207093661A6093651A85E0C3
:104C30008093591A82E880935C1A86E290E1A0E0A2
:104C4000B0E080935D1A90935E1AA0935F1AB093C0
:104C5000601A0E949BF38AE090E09093661A80931A
:104C6000651A85E08093591A82E880935C1A80E087
:104C700092E1A0E0B0E00C94601A84E080935516B5
:104C800080910D1A90910E1AA0910F1AB091101ADE
:104C90006091151A7091161A8834E0E19E07A105FB
:104CA000B10509F45AC08A34F0E19F07A105B105A6
:104CB00009F45BC08C3400E19007A105B10509F44B
:104CC0005DC086349041A105B10509F05FC0633035
:104CD000710509F03FC082E194E09093050980934B
:104CE00004090E942FB784E094E090930509809313
:104CF00004090E942FB781E080933A0C809335021B
:104D000010920D061092F41A1092F31A8091511617
:104D1000882349F081E09AE59093661A8093651A9A
:104D200080E290E008C081E09AE59093661A809353
:104D3000651A8AE490E09093681A8093671A87E076
:104D40008093591A82E880935C1A84E890E0A0E08E
:104D5000B0E077CF6093390CECC0C12CD12CEBE9DB
:104D6000EE2EE3E4FE2E312C11C0C12CD12C5BE9D8
:104D7000E52E53E4F52E3324339408C0C12CD12CF6
:104D800038ECE32E33E4F32E42E0342EA32CB12C86
:104D900080E090E00F94101820E030E040E251E411
:104DA0000F94B31F2B013C0120E030E0A9010F94C8
:104DB0000C18AA0CBB1CAA0CBB1C87FF08C0F50171
:104DC000E052F74F108211821282138214C0A701A1
:104DD0009601C301B2010F94FE20F501E052F74F96
:104DE00018162CF0408251826282738204C0C08205
:104DF000D182E282F38222E0321278C082E00E9405
:104E0000F7D920E030E040E251E46091E008709191
:104E1000E1088091E2089091E3080F9471180F94D3
:104E20001B207093661A6093651A05E00093591A67
:104E300012E810935C1A88E490E1A0E0B0E080935F
:104E40005D1A90935E1AA0935F1AB093601A0E9445
:104E50009BF320E030E040E251E46091E40870917F
:104E6000E5088091E6089091E7080F9471180F9477
:104E70001B207093661A6093651A0093591A109359
:104E80005C1A8AE490E1A0E0B0E080935D1A909310
:104E90005E1AA0935F1AB093601A0E949BF320E001
:104EA00030E040E251E46091E8087091E9088091B7
:104EB000EA089091EB080F9471180F941B207093DF
:104EC000661A6093651A0093591A10935C1A8CE461
:104ED00090E1A0E0B0E080935D1A90935E1AA093F9
:104EE0005F1AB093601A0E949BF303C0832D0E9447
:104EF000F7D961E070E080E090E00F94F1038AE080
:104F000090E09093661A8093651A85E08093591A11
:104F100082E880935C1A80E092E1A0E0B0E08093A8
:104F20005D1A90935E1AA0935F1AB093601A0E9464
:104F30009BF310925516ECC783E090E00E9491D548
:104F4000892B09F0E5C780910D1A90910E1AA09156
:104F50000F1AB091101A863530E19307A105B105FB
:104F600009F055C28091151A9091161A8130910559
:104F7000C9F48091860880930C06109286082091CF
:104F80000E0630910F064091100650911106609167
:104F9000EC087091ED088091EE089091EF080F9465
:104FA000D61E1CC08230910509F0D6C080918608BB
:104FB00080930C061092860820910E0630910F0601
:104FC00040911006509111066091EC087091ED0827
:104FD0008091EE089091EF080F94D71E6093EC0833
:104FE0007093ED088093EE089093EF088091170678
:104FF000882309F456C083E00E94F7D920E030E00E
:1050000040E251E460910E0670910F068091100607
:10501000909111060F9471180F941B207093661ACB
:105020006093651A05E00093591A12E810935C1A10
:1050300084E590E1A0E0B0E080935D1A90935E1A61
:10504000A0935F1AB093601A0E949BF320E030E0B7
:1050500040E251E4609112067091130680911406AB
:10506000909115060F9471180F941B207093661A77
:105070006093651A0093591A10935C1A88E590E1C1
:10508000A0E0B0E080935D1A90935E1AA0935F1A3F
:10509000B093601A0E949BF380910C06809386085F
:1050A00037C7C0900002D0900102E0900202F09059
:1050B000030220E030E040EA50E4C701B6010F945B
:1050C000D61E9B01AC01609188087091890880917F
:1050D0008A0890918B080F940C1887FF8CCF81E081
:1050E00080931706C701B6010F941B207093661AB0
:1050F0006093651A85E08093591A82E880935C1A60
:1051000080E290E1A0E0B0E080935D1A90935E1A97
:10511000A0935F1AB093601A0E949BF365E070E061
:1051200080E090E00F94F10380915116882351F0B4
:1051300081E09AE59093661A8093651A88E190E081
:105140000C94521A81E09AE59093661A8093651A3E
:1051500082E490E00C94521A83309105D1F480914E
:10516000860880930C0611E01093860820911206A1
:105170003091130640911406509115066091EC0889
:105180007091ED088091EE089091EF080F94D61E73
:105190001DC08430910509F046C080918608809337
:1051A0000C0611E010938608209112063091130628
:1051B00040911406509115066091EC087091ED082D
:1051C0008091EE089091EF080F94D71E6093EC0841
:1051D0007093ED088093EE089093EF088091170686
:1051E000811109CFC0900002D0900102E09002022C
:1051F000F090030220E030E040EA50E4C701B6013D
:105200000F94D61E9B01AC016091880870918908AB
:1052100080918A0890918B080F940C1887FFEBCE31
:10522000109317065FCF8530910509F0C0C081E06B
:105230008093160600916A0610916B06C0900002DA
:10524000D0900102E0900202F0900302B801012E1A
:10525000000C880B990B0F941218A70196010F945C
:10526000FE2087FF05C0C701B6010F941B208B01EC
:1052700010936B0600936A0620E030E048EC52E49D
:10528000609188087091890880918A0890918B08B4
:105290000F9471186B017C01B801110F880B990BE9
:1052A0000F9412189B01AC01C701B6010F94B31FF4
:1052B0000F9420206436710510F064E670E070935E
:1052C000661A6093651A05E00093591A12E8109364
:1052D0005C1A84E290E1A0E0B0E080935D1A9093C4
:1052E0005E1AA0935F1AB093601A0E949BF36091BC
:1052F00088087091890880918A0890918B080F9492
:105300001B207093661A6093651A0093591A1093C4
:105310005C1A86E390E1A0E0B0E080935D1A909380
:105320005E1AA0935F1AB093601A0E949BF380915B
:105330006A0690916B069093661A8093651A0093A3
:10534000591A10935C1A84E390E1A0E0B0E08093D6
:105350005D1A90935E1AA0935F1AB093601A0E9430
:105360009BF365E070E080E090E00F94F1038091A2
:105370005116882349F081E09AE59093661A80934C
:10538000651A8AE190E008C081E09AE59093661A78
:105390008093651A84E490E09093681A8093671A6A
:1053A00087E08093591A10935C1A0C945C1A86302B
:1053B0009105D1F41092170680915116882351F06F
:1053C00081E09AE59093661A8093651A87E190E0F0
:1053D0000C94521A81E09AE59093661A8093651AAC
:1053E00081E490E00C94521A813F910559F4109297
:1053F00017061092160661E070E080E090E00F94CE
:10540000F103DACF803F910509F0F5CD81C58435F0
:10541000E0E19E07A105B105B9F46091151A7091FC
:10542000161A80E090E00F94101820E030E040E27F
:1054300051E40F94B31F60930E0670930F06809390
:1054400010069093110664C588359041A105B105F9
:1054500009F05EC56091151A7091161A80E090E00F
:105460000F94101820E030E040E251E40F94B31F95
:10547000609312067093130680931406909315069A
:1054800047C56091151A7091161A8EEE93E00E942E
:105490007D888091151A9091161A019711F40C9439
:1054A0001E1F89EE93E090930509809304090E94E2
:1054B0002FB72EC5D8018D918D01882319F00E9438
:1054C00003B7F8CF8091151A9091161A8130910583
:1054D00009F082C180E090E00E9491D5892B09F00B
:1054E00017C580915216813009F0EEC08EE196E02A
:1054F0000E940AB785EE93E0909305098093040912
:105500000E942FB7C12C90E2D92EE12CF12C05E09E
:1055100012E81092661A1092651A0093591A1093A5
:105520005C1AC0925D1AD0925E1AE0925F1AF092F5
:10553000601A0E949BF3BFEFCB1ADB0AEB0AFB0A4F
:10554000EAE0CE16E0E2DE06E104F10411F7009194
:105550001D06F2E10F02800111240859164FF801CF
:1055600001900020E9F7C8018E1B9F0B439697FD21
:1055700001967C01F594E7941E141F04DCF49E014F
:105580002F5F3F4F690184E1D9011D928A95E9F7A8
:10559000A70165EB74E0C9010F943D22B801C60173
:1055A0008E0D9F1D0F94282240E050E260E070E0D5
:1055B000C60105C040E050E260E070E0C8010E9412
:1055C00042D562E070E080E090E00F94F1038091BA
:1055D0005116882349F181E090E09093661A8093F8
:1055E000651A85E08093591A12E810935C1A84E1D9
:1055F00090E1A0E0B0E080935D1A90935E1AA093D2
:105600005F1AB093601A0E949BF362E070E080E042
:1056100090E00F94F10381E09AE59093661A8093ED
:10562000651A8AE090E028C08DE090E09093661AB9
:105630008093651A85E08093591A12E810935C1ADA
:1056400084E190E1A0E0B0E080935D1A90935E1A4F
:10565000A0935F1AB093601A0E949BF362E070E01F
:1056600080E090E00F94F10381E09AE59093661A50
:105670008093651A84E390E09093681A8093671A88
:1056800087E08093591A10935C1A84E890E0A0E0B8
:10569000B0E080935D1A90935E1AA0935F1AB09366
:1056A000601A0E949BF381E0809335028093920DF3
:1056B00080930D0993E090930E0980931209109244
:1056C000910D10921D0681C0823009F081C08E01BB
:1056D0000F5F1F4F8EE1F80111928A95E9F78091D3
:1056E00033068F93809132068F938CED93E09F93D6
:1056F0008F931F930F930F94DE17C8010E940AB770
:105700000F900F900F900F900F900F908091611756
:10571000882319F081E0809360170E94B1888091FE
:105720005116882319F081E090E002C08DE090E0EE
:105730009093661A8093651A85E08093591A82E8DF
:1057400080935C1A84E190E1A0E0B0E080935D1A60
:1057500090935E1AA0935F1AB093601A0E949BF315
:105760001092910D83E080930E0981E080931209DD
:1057700080915116882349F081E09AE59093661A4A
:105780008093651A8AE090E008C081E09AE59093E2
:10579000661A8093651A84E390E09093681A809368
:1057A000671A87E08093591A82E880935C1A84E82C
:1057B00090E0A0E0B0E080935D1A90935E1AA09311
:1057C0005F1AB093601A0E949BF310925216A0C306
:1057D000833009F09DC3F0CD892B09F099C38091E6
:1057E0005216813081F580915116882349F081E06D
:1057F0009AE59093661A8093651A82E090E008C05B
:1058000081E09AE59093661A8093651A8EE290E0A3
:105810009093681A8093671A87E08093591A82E8F8
:1058200080935C1A84E890E0A0E0B0E080935D1A79
:1058300090935E1AA0935F1AB093601A0E949BF334
:1058400010920D09C2CF8230B1F480915116882395
:1058500049F081E09AE59093661A8093651A8CE08E
:1058600090E09BCF81E09AE59093661A8093651A49
:1058700086E390E092CF833009F0A7CF8091511654
:10588000882349F081E09AE59093661A8093651A1F
:1058900087E190E082CF81E09AE59093661A809349
:1058A000651A81E490E079CF8091151A9091161ACB
:1058B0008F3F910531F028F08FEF90E0A0E0B0E04D
:1058C00002C0A0E0B0E08093700690937106A093B0
:1058D0007206B09373068091700690917106A09144
:1058E0007206B09173060097A105B10519F51092E3
:1058F000661A1092651A05E00093591A12E810937F
:105900005C1A8AE890E1A0E0B0E080935D1A909381
:105910005E1AA0935F1AB093601A0E949BF389E00D
:1059200090E09093661A8093651A0093591A109329
:105930005C1A22C00196A11DB11D05E0B695A79580
:10594000979587950A95D1F7BC01CD0161507109F2
:10595000810991092AE830E140E050E00E943FF4DB
:1059600088E090E09093661A8093651A85E08093B2
:10597000591A82E880935C1A8CE890E1A0E0B0E0CC
:1059800080935D1A90935E1AA0935F1AB093601A89
:105990000E949BF38091700690917106A09172060F
:1059A000B09173066627782F892F9A2F21EA30E06D
:1059B00040E050E00E943FF4ABC22091611780911B
:1059C0000D1A90910E1AA0910F1AB091101A22235D
:1059D00009F44EC1833DF0E29F07A105B10509F02E
:1059E00047C18091151A9091161A2091160930918D
:1059F00017092817390708F48BC2815080931509BD
:105A0000A4ED8A2EA0E29A2EA12CB12C05E012E87A
:105A10001092661A1092651A0093591A10935C1A24
:105A200080925D1A90925E1AA0925F1AB092601AEC
:105A30000E949BF32FEF821A920AA20AB20A3EED4D
:105A4000831630E29306A104B10411F78091150981
:105A5000A2E18A02C0011124FC01E859F64F7F013E
:105A600001900020E9F7C7018E1B9F0B439697FD1D
:105A700001968C011595079510161106FCF49E01F0
:105A80002F5F3F4F690184E1D9011D928A95E9F7A3
:105A9000A80165EB74E0C9010F943D22B701C6016E
:105AA000800F911F0F94282244ED50E260E070E0D7
:105AB000C6010E9442D505E012E806C044ED50E25E
:105AC00060E070E0C701F5CF1092661A1092651A77
:105AD0000093591A10935C1A80925D1A90925E1A84
