:100000000C9481170C94B2170C94B2170C94B2177D
:100010000C94B2170C94B2170C94B2170C94B2173C
:100020000C94B2170C94B2170C94B2170C94B2172C
:100030000C94B2170C94B2170C94B2170C94B2171C
:100040000C94B2170C9419810C94B2170C94B2173B
:100050000C94B2170C94B2170C94F3A60D942B04C5
:100060000C94B2170C94DFA90C94B2170C94B2172D
:100070000C94B2170C94B2170C94B2170C94B217DC
:100080000C94B2170C94B2170C94B2170C94B217CC
:100090000C94B2170C94B2170C94B2170C94B217BC
:1000A0000C94B2170C94B2170C94B2170C94B217AC
:1000B0000C94B2170C94B2170C94B2170C94B2179C
:1000C0000C94B2170C94B2170C94B2170C94D6A3DC
:1000D0000C94ADA30C94B2170C94B2170C94B217F5
:1000E0000C94B2172A1A531B801CB51B912F912F09
:1000F000A01E2B1F5D1F912F912F1121F9223D234F
:10010000912F4626912F912FA527912F912F4A2A83
:10011000261A912F5D2CE62C1B8C1E8C258C288C8E
:100120002C8C228C2F8C328C368C398C3C8C408CD5
:10013000438C468C228C4A8C4D8C508C628E818EE6
:10014000A08EC38EE68E8590098F2A8F4B8F6E8F7F
:10015000918FB48FD78FFA8F85901D9040906390C8
:1001600012AA18AA29AA34AA3CAA51AA40AA51AA9A
:1001700044AA48AA51AA4EAA100134012A014601F4
:100180002601400112013A014C011C010E0130010F
:1001900044011E014001420118012E0122012401E7
:1001A00028013E011A010A01380114010601320139
:1001B0002C014A01480108010A0116010C013C0109
:1001C000084AD73B3BCE016E84BCBFFDC12F3D6CBE
:1001D00074319ABD56833DDA3D00C77F11BED9E424
:1001E000BB4C3E916BAAAABE000000803F05A84C04
:1001F000CDB2D44EB93836A9020C50B991868808D0
:100200003CA6AAAA2ABE000000803F000D9460030D
:100210000D9497030D94BF030D94AB030D940B0243
:100220000D94F2010D94F9010D9458030D94A1035E
:100230000D9423020D9446030D9407020D941902A8
:100240000D94CC100D9428030D942D030D94EE0104
:100250000D9432030D94E4010D9474030D94270260
:100260000D9411020D946A030D94F5010D94ED1097
:100270000D9450030D94FD010D94B5030D943C03B2
:100280000D942C020D941F020D9415020D94E8019B
:100290000D948D030D947E030D9403024E414E493F
:1002A0004E495459494E46CDCCCC3D0AD7233C1734
:1002B000B7D13877CC2B329595E6241FB14F0A0081
:1002C0000020410000C84200401C4620BCBE4CCA71
:1002D0001B0E5AAEC59D7400407A10F35A00A072EE
:1002E0004E18090010A5D4E80000E8764817000071
:1002F000E40B54020000CA9A3B000000E1F505003F
:100300000080969800000040420F000000A0860187
:10031000000000102700000000E803000000006457
:1003200000000000000A00000000000100000000C2
:10033000002C76D888DC674F0823DFC1DFAE59E197
:10034000B1B796E5E3E453C63AE651997696E8E606
:10035000C28426EB898C9B62ED407C6FFCEFBC9CD9
:100360009F40F2BAA56FA5F490055A2AF75C936BEB
:100370006CF9676DC11BFCE0E40D47FEF520E6B5A6
:1003800000D0ED902E0300943577050080841E0880
:100390000000204E0A000000C80C333333330F989E
:1003A0006E12831141EF8D2114893BE65516CFFE65
:1003B000E6DB18D1844B381BF77C1D901DA4BBE4F1
:1003C00024203284725E228100C9F124ECA1E53D33
:1003D000274D3234004D3233202573004D313039F2
:1003E00020532569004D3234004D333030000A204F
:1003F0002A2A2A7265636461742E646174615B30B9
:100400005D203D0047312046313030205A31302EBA
:100410003200473238004D343230205330004D34F2
:1004200032302053310047312046313030205A30AD
:10043000004731205833302059323730204635308C
:1004400030300047312046313030205A333B0047AE
:10045000312046313030205A300047312058323771
:100460003020593237302046353030300047312087
:1004700046313030205A333B00473120463130304E
:10048000205A30004731205832373020593330203D
:1004900046353030300047312046313030205A3335
:1004A0003B0047312046313030205A300047312060
:1004B0005833302059333020463530303000473102
:1004C0002046313030205A333B004731204631300E
:1004D00030205A30004731205831353020593135DD
:1004E0003020463530303000473120463130302022
:1004F0005A333B0047312046313030205A302E30BD
:1005000000473120583135302059313530204635BB
:100510003030300047312046313030205A31302ED3
:10052000323B004732390047312046323030205AC2
:10053000302E3000473930004732382058302059AB
:1005400030205A300047312046313530205A302E85
:100550003000473238205A3000473238004D3834A6
:100560000047312046313530205A302E3000473296
:1005700038002F2F616374696F6E3A726573756D01
:10058000650A004D31303920532569004D32340061
:100590004D3235002F2F616374696F6E3A7061754B
:1005A00073650A0046726F6D2050617573657072D5
:1005B000696E740A0A000A205254535570646174BB
:1005C000652057616974776179004D3235002F2FAE
:1005D000616374696F6E3A70617573650A000A46EB
:1005E000726F6D2052756E6F75740A0A00434F4D1D
:1005F0004D554E49434154494F4E0044525952556E
:100600004E004552524F525300494E464F0045430B
:10061000484F0047322F4733206261642070617277
:10062000616D65746572730A00205A3A2000205982
:100630003A200042656420583A20004D65736820D6
:10064000706F696E742063616E6E6F7420626520D6
:100650007265736F6C7665640A00456E6420666926
:100660006C65206C6973740A00426567696E206668
:10067000696C65206C6973740A004D31323500284D
:100680006E6F2066696C65290043757272656E74C1
:100690002066696C653A20005072696E7420746936
:1006A0006D653A20006F6E2E0A006F66662E0A0096
:1006B00047323620446562756720000E060906023F
:1006C00006FB05ED056F66660044454255473A0056
:1006D0004D3131332053006F6B00544845524D412A
:1006E0004C5F50524F54454354494F4E004155546E
:1006F0004F5245504F52545F53445F5354415455E9
:100700005300454D455247454E43595F5041525362
:10071000455200434153455F4C494748545F42525C
:10072000494748544E45535300544F47474C455F43
:100730004C494748545300534F4654574152455F24
:10074000504F574552004255494C445F5045524323
:10075000454E54004C4556454C494E475F44415424
:1007600041005A5F50524F4245004155544F4C454D
:1007700056454C005052494E545F4A4F4200505229
:100780004F4752455353004155544F5245504F52D5
:10079000545F54454D5000564F4C554D45545249A9
:1007A0004300454550524F4D0053455249414C5F1F
:1007B000584F4E5F584F4646004649524D5741529A
:1007C000455F4E414D453A4D61726C696E20312E48
:1007D000312E395F423620544D3344205353534415
:1007E0004E5520534F555243455F434F44455F5547
:1007F000524C3A68747470733A2F2F676974687535
:10080000622E636F6D2F496E73616E6974794175E5
:10081000746F6D6174696F6E2F4D61726C696E2FAC
:100820002050524F544F434F4C5F56455253494FFF
:100830004E3A312E30204D414348494E455F545980
:1008400050453A43522D3130532050726F20455855
:100850005452554445525F434F554E543A312055FA
:100860005549443A63656465326132662D343161BD
:10087000322D343734382D396231322D63353563BA
:1008800036326633363766660A002F2F2000205432
:1008900000205200416363656C65726174696F6E1C
:1008A0003A2050005741524E494E4721204C6F7715
:1008B000205A204A65726B206D6179206C656164F5
:1008C00020746F20756E77616E7465642070617539
:1008D0007365732E0A00546F6F2066617220667212
:1008E0006F6D207265666572656E636520706F69F5
:1008F0006E740A0020466C6F773A200020643A003C
:1009000020693A0020703A00496E76616C69642073
:1009100065787472756465720A0043290A00616221
:100920006C656420286D696E2074656D70200043CD
:100930006F6C64206578747275646573206172658C
:10094000200020643A0020693A0020703A004E6F7F
:100950002063617365206C696768740A004D657374
:100960006820706F696E742063616E6E6F742062B0
:1009700065207265736F6C7665640A004D343231A0
:1009800020696E636F727265637420706172616D4D
:10099000657465722075736167650A00454550523C
:1009A0004F4D204F4B0A003F5A206F7574206F66E1
:1009B0002072616E676520282D323020746F2032DE
:1009C00030290A003A200050726F6265205A204F89
:1009D0006666736574004163746976652045787452
:1009E00072756465723A2000496E76616C696420A4
:1009F00065787472756465720A000A20696E69749C
:100A0000207A70726F62655F7A6F666673657420B4
:100A10003D20004D343230205331002020506C6195
:100A20006E6E657242756666657242797465733A78
:100A300020002046726565204D656D6F72793A2001
:100A400000436F6D70696C65643A204D61792031A7
:100A50003920323031390A00207C20417574686FAA
:100A6000723A20536948796F656E0A003230313925
:100A70002D30332D323000204C617374205570645A
:100A8000617465643A2000312E312E395F42360A96
:100A9000004D61726C696E0020536F6674776172ED
:100AA000652052657365740A002057617463686439
:100AB0006F672052657365740A002042726F776E0B
:100AC000206F75742052657365740A002045787430
:100AD00065726E616C2052657365740A00506F77A1
:100AE000657255700A0073746172740A004D323475
:100AF000004D3233202573006175746F25692E67B0
:100B0000006572726F722077726974696E67207403
:100B10006F2066696C650A00205A3A0020593A0035
:100B200020583A00656E6473746F7073206869743E
:100B30003A2000446F6E6520736176696E672066A7
:100B4000696C652E0A004D323900205A0020590088
:100B5000580020204D61783A2000205A002059008A
:100B6000580020204D696E3A20004F6E20004F66DD
:100B70006600536F667420656E6473746F70733AA9
:100B800020004B64200023646566696E652044453F
:100B90004641554C545F004B6920002364656669EB
:100BA0006E652044454641554C545F004B70200013
:100BB00023646566696E652044454641554C545F23
:100BC00000504944204175746F74756E65206669E4
:100BD0006E6973686564212050757420746865209F
:100BE0006C617374204B702C204B6920616E642003
:100BF0004B6420636F6E7374616E74732066726FE2
:100C00006D2062656C6F7720696E746F20436F6E24
:100C100066696775726174696F6E2E680A00504963
:100C200044204175746F74756E65206661696C65EA
:100C300064212074696D656F75740A004531205414
:100C40004845524D414C2052554E41574159004262
:100C5000454420544845524D414C2052554E415731
:100C6000415900546865726D616C2052756E6177F0
:100C700061790045312048656174696E672066615D
:100C8000696C6564004265642068656174696E67BB
:100C9000206661696C65640048656174696E6720EF
:100CA0006661696C656400504944204175746F74D5
:100CB000756E65206661696C6564212054656D7090
:100CC0006572617475726520746F6F2068696768FA
:100CD0000A00204B643A2000204B693A2000204B48
:100CE000703A20000A20436C617373696320504995
:100CF00044200A002054753A2000204B753A200009
:100D0000206D61783A2000206D696E3A20002064E1
:100D10003A200020626961733A2000504944204122
:100D200075746F74756E65206661696C65642120E9
:100D3000426164206578747275646572206E756DA9
:100D40006265720A00504944204175746F74756E73
:100D5000652073746172740A004F66660A0046610A
:100D60006465204865696768742000426564204CAA
:100D70006576656C696E6720004661696C65642004
:100D8000746F20656E61626C6520426564204C65FD
:100D900076656C696E670A00496E736572742066C9
:100DA000696C616D656E7420616E642073656E643C
:100DB000204D3130380A0053656E64204D31303893
:100DC00020746F2068656174206E6F7A7A6C650A92
:100DD00000496E736572742066696C616D656E742E
:100DE00020616E6420707265737320627574746F15
:100DF0006E20286F72204D313038290A002F2F6164
:100E00006374696F6E3A726573756D650A0050722E
:100E10006F62696E67206661696C65640050726F0D
:100E200062696E67206661696C65640A00205A3ADF
:100E3000200020593A200042656420583A200020C2
:100E400066697273740A005A0059005800486F6D41
:100E50006520002F2F616374696F6E3A63616E6362
:100E6000656C0A004D3834002F2F616374696F6E12
:100E70003A63616E63656C0A0042696C696E656114
:100E800072204C6576656C696E6720477269643ABA
:100E90000A00486F6D652058592066697273740A9C
:100EA0000020746F6F206C6F6E67206578747275A8
:100EB00073696F6E2070726576656E7465640A0082
:100EC00020636F6C6420657874727573696F6E202F
:100ED00070726576656E7465640A00526573656E3E
:100EE000643A20002042002050006F6B0020746F95
:100EF0006F206C6F6E6720657874727573696F6EA2
:100F00002070726576656E7465640A0020636F6C8C
:100F10006420657874727573696F6E20707265767F
:100F2000656E7465640A0024F4D43050C38E20C208
:100F3000A24017828B7011127A910D816CD90AA888
:100F400061E108C7586607615143061E4B5D05C144
:100F500045A7041A411104093D9803713931034032
:100F600036DB0265339102D4305402802E1D0263B9
:100F70002CEE01752AC501B028A001102781018F30
:100F80002564012B244B01E0223401AC211F018D8B
:100F9000200D01801FFC00841EED00971DDF00B8AE
:100FA0001CD200E61BC600201BBC00641AB200B2B3
:100FB00019A8000A19A0006A189900D117910040D9
:100FC000178B00B516840031167E00B31579003AF0
:100FD000157300C7146F0058146A00EE136600887A
:100FE00013630025135E00C7125B006C12570015D7
:100FF000125400C111510070114F0021114B00D645
:101000001049008D1047004610440002104200C0F5
:101010000F4000800F3E00420F3C00060F3B00CB0C
:101020000E3800930E37005C0E3500270E3400F3A7
:101030000D3200C10D3100900D3000600D2E0032D8
:101040000D2D00050D2C00D90C2B00AE0C290085B0
:101050000C29005C0C2700350C27000E0C2600E83C
:101060000B2400C40B2400A00B23007D0B23005A8B
:101070000B2100390B2100180B2000F80A1F00D9A2
:101080000A1E00BB0A1E009D0A1D00800A1D006387
:101090000A1C00470A1B002C0A1B00110A1A00F741
:1010A000091A00DD091900C4091900AB09190092D9
:1010B0000917007B091800630917004C0916003650
:1010C000091600200916000A091500F5081500E0A8
:1010D000081400CC081400B8081400A408140090E8
:1010E0000813007D0812006B081300580812004610
:1010F0000812003408110023081100120811000121
:10110000081100F0071000E0071000D0071000C021
:10111000071000B0070F00A107100091070E008311
:10112000070F0074070F0065070E0057070E0049F0
:10113000070E003B070D002E070E0020070D0013C1
:10114000070D0006070D00F9060C00ED060D00E086
:10115000060C00D4060C00C8060C00BC060C00B03F
:10116000060C00A4060B0099060C008D060B0082ED
:10117000060B0077060B006C060B0061060A005791
:10118000060B004C060A0042060A0038060A002E2A
:10119000060A0024060A001A060A001006090007BB
:1011A000060A00FD050900F4050900EB050900E247
:1011B000050900D9050900D0050900C7050900BEC9
:1011C000050900B5050800AD050800A50509009C46
:1011D000050800940508008C050800840508007CBB
:1011E000050800740508006C050700650508005D2A
:1011F000050700560508004E050700470507004093
:1012000005080038050700310507002A05070023F7
:101210000507001C050600160507000F0507000856
:1012200005060002050700FB040600F5040700EEB2
:10123000040600E8040600E2040700DB040600D50B
:10124000040600CF040600C9040600C3040600BD5E
:10125000040600B7040600B1040500AC040600A6AD
:10126000040600A00405009B0406009504050090F8
:101270000406008A04050085040500800406007A3F
:1012800004050075040500700405006B0405006684
:10129000040500610405005C0405005704050052C4
:1012A0000405004D04050048040500430405003E04
:1012B0000404003A04050035040500300404002C41
:1012C00004050027040400230405001E0404001A7A
:1012D00004040016040500110404000D04040009B0
:1012E0000405000404040000040400FC030400F8E6
:1012F000030400F4030400F0030400EC030400E81A
:10130000030400E4030400E0030400DC030400D849
:10131000030400D4030400D0030400CC030400C879
:10132000030300C503030024F404D9201BC40C5C90
:101330000E9804C4095F0265077101F405F900FB0A
:1013400004B30048048700C1036900580355000333
:10135000034500BE023A008402310053022A0029EC
:1013600002250004022000E4011C00C8011900AF9E
:10137000011700980114008401130071011000612D
:1013800001100051010E0043010D0036010B002B2E
:10139000010B0020010B00150109000C01090003DD
:1013A000010800FB000800F3000800EB000700E460
:1013B000000600DE000600D8000600D2000600CCC1
:1013C000000500C7000500C2000500BD000400B90B
:1013D000000400B5000400B1000400AD000400A941
:1013E000000400A5000300A20003009F0004009B6E
:1013F0000003009800030095000200930003009092
:101400000003008D0002008B0003008800020086AC
:1014100000020084000300810002007F0002007DC2
:101420000002007B000200790002007700010076D4
:101430000002007400020072000100710002006FDF
:101440000002006D0001006C0002006A00010069EA
:1014500000020067000100660001006500010064F1
:101460000002006200010061000100600001005FF5
:101470000002005D0001005C0001005B0001005AF9
:1014800000010059000100580001005700010056FA
:1014900000010055000100540001005300000053FA
:1014A0000001005200010051000100500001004FF6
:1014B0000001004E0000004E0001004D0001004CF4
:1014C0000001004B0000004B0001004A00010049F0
:1014D00000010048000000480001004700010046EC
:1014E00000000046000100450000004500010044E6
:1014F00000010043000000430001004200000042E0
:101500000001004100000041000100400001003FD7
:101510000000003F0001003E0000003E0001003DD1
:101520000000003D0001003C0000003C0000003CC9
:101530000001003B0000003B0001003A0000003ABF
:1015400000010039000000390001003800000038B7
:1015500000000038000100370000003700010036AD
:1015600000000036000000360001003500000035A4
:101570000000003500010034000000340000003499
:10158000000100330000003300000033000100328E
:101590000000003200000032000100310000003184
:1015A0000000003100010030000000300000003079
:1015B0000001002F0000002F0000002F0000002F6E
:1015C0000001002E0000002E0000002E0001002D62
:1015D0000000002D0000002D0000002D0001002C57
:1015E0000000002C0000002C0000002C0001002B4B
:1015F0000000002B0000002B0000002B0001002A3F
:101600000000002A0000002A0000002A0001002932
:101610000000002900000029000000290000002926
:101620000001002800000028000000280000002819
:10163000000000280001002700000027000000270C
:1016400000000027000000270001002600000026FF
:1016500000000026000000260000002600010025F2
:1016600000000025000000250000002500000025E6
:1016700000000025000100240000002400000024D8
:1016800000000024000000240001002300000023CB
:1016900000000023000000230000002300000023BE
:1016A00000000023000100220000002200000022B0
:1016B00000000022000000220000002200010021A2
:1016C0000000002100000021000000210000002196
:1016D0000000002100000021000100200000002087
:1016E000000000200000002000000020000000207A
:1016F00000000020000000200001001F0000001F6B
:101700000000001F0000001F0000001F0000001F5D
:101710000000001F0001001E0000001E0000001E4F
:101720000000001E000000043700001E29000051C8
:101730001B00005810000010090000CC04000078C5
:10174000020000410100005A5F535445505F504968
:101750004E005A5F4D494E5F50494E005A5F454E0C
:1017600041424C455F50494E005A5F4449525F50D8
:10177000494E005A5F43535F50494E00595F5354DE
:1017800045505F50494E00595F4D494E5F50494E9C
:1017900000595F454E41424C455F50494E00595FEC
:1017A0004449525F50494E00595F43535F50494E80
:1017B00000585F535445505F50494E00585F4D49A3
:1017C0004E5F50494E00585F454E41424C455F5078
:1017D000494E00585F4449525F50494E00585F439C
:1017E000535F50494E0053535F50494E005345528A
:1017F000564F335F50494E00534552564F325F505B
:10180000494E00534552564F315F50494E005345A3
:1018100052564F305F50494E005344535300534487
:101820005F4445544543545F50494E0053434B5F1A
:1018300050494E0052414D50535F44395F50494E1C
:101840000052414D50535F44385F50494E00524161
:101850004D50535F4431305F50494E0050535F4FFD
:101860004E5F50494E004D4F53495F50494E004D19
:1018700049534F5F50494E004D4158363637355F1A
:101880005353004C45445F50494E00484541544530
:10189000525F4245445F50494E00484541544552CD
:1018A0005F315F50494E004845415445525F305FBB
:1018B00050494E0046494C5F52554E4F55545F506B
:1018C000494E0046414E5F50494E0045315F5354EA
:1018D00045505F50494E0045315F454E41424C45B1
:1018E0005F50494E0045315F4449525F50494E00B8
:1018F00045315F43535F50494E0045305F53544577
:10190000505F50494E0045305F454E41424C455F67
:1019100050494E0045305F4449525F50494E0045A2
:10192000305F43535F50494E00455F4D5558325F1D
:1019300050494E00455F4D5558315F50494E004566
:101940005F4D5558305F50494E004156525F5353DA
:101950005F50494E004156525F53434B5F50494ED2
:10196000004156525F4D4F53495F50494E0041561A
:10197000525F4D49534F5F50494E0054454D505FA3
:101980004245445F50494E0054454D505F315F50D1
:10199000494E0054454D505F305F50494E00464916
:1019A0004C57494454485F50494E005458440052E3
:1019B00058440046696C652064656C657465643ADA
:1019C0000044656C6574696F6E206661696C65645E
:1019D0002C2046696C653A2000000136372603FF4B
:1019E000FFFF353C3D380EFFFFFF312E303E12FF2A
:1019F000FFFFFF28FF0C0804FFFFFF1A1C18FFFF62
:101A00002A08440AFF4350726F746563746564204A
:101A100050696E0A002020206E6F6E2D7374616E07
:101A2000646172642050574D206D6F646500433AC5
:101A30002000423A2000413A200020202020434F3D
:101A40004D00202020636F6D7061726520696E7497
:101A500065727275707420656E61626C65640020D9
:101A600020206F766572666C6F7720696E74657280
:101A70007275707420656E61626C6564003A200056
:101A80002020202054494D534B00423A2000202072
:101A900020205443435200413A200020202020546B
:101AA000434352002020202043533A20002020208E
:101AB0002057474D3A200050574D3A202025346496
:101AC0000050574D3A20202534640047004800005C
:101AD0000088008A008C00B300B400000098009ACF
:101AE000009C00A800AA00AC0028012A012C0120BB
:101AF00020202054494D455200440045006E00808E
:101B00000081006F00B000B1007000900091007182
:101B100000A000A100720020012101730020697360
:101B200020616C736F207469656420746F20746821
:101B300069732070696E0054494D45523143000A63
:101B4000202E002020002020506F72743A20004F79
:101B50007574707574203D2000496E707574202076
:101B60003D200050574D3A20202534640050574DF9
:101B70003A20202534640050574D3A202025346403
:101B80000050574D3A20202534640050574D3A20DC
:101B9000202534640050574D3A20202534640050ED
:101BA000574D3A20202534640050574D3A202025C7
:101BB00034640050574D3A20202534640050574D6E
:101BC0003A20202534640050574D3A2020253464B3
:101BD0000050574D3A20202534640050574D3A208C
:101BE000202534640050574D3A202025346400509D
:101BF000574D3A20202534640050574D3A20202577
:101C000034640020202000202020416E616C6F672A
:101C100020696E203D20253564003C756E75736526
:101C2000642F756E6B6E6F776E3E002028412532F3
:101C30006429202000257350494E3A202533642022
:101C400000416E616C6F6720696E203D2025356410
:101C50000070726F746563746564200020284125EC
:101C6000326429202000257350494E3A20253364E0
:101C70002000AF190001AB1901019E193B00931917
:101C80004300881945007B1944006E19320161191F
:101C90003301551934014A1935013F192801341906
:101CA0002A0129192C011F192A0114191C010619CE
:101CB0001801FA181A01F0182C01E5182201D7189A
:101CC0001E01CB182401C3180401B4180201A7187F
:101CD0000A019A1809018B18080183180D01781858
:101CE00042016F183201661833015C180C014E185E
:101CF0000A0141180801341809012C1834011E1872
:101D00003101191835010E18070103180601F817DB
:101D10000501ED170401E6173501DD173501D3176D
:101D20003701C6172601BC170301B1173601A817E2
:101D300031019E173D019117380187170E017C175D
:101D40003C0173172801691730015C173E015217D7
:101D5000120147172E014572726F722077726974F3
:101D6000696E6720746F20454550524F4D210A001F
:101D7000454550524F4D206461746173697A652006
:101D80006572726F722E0A00290A002062797465EA
:101D9000733B20637263200053657474696E6773CC
:101DA0002053746F72656420280020573A00205A2F
:101DB0003A0020593A0020436F756E7420583A005B
:101DC00020453A00205A3A0020593A00583A004437
:101DD00069666665723A200046726F6D5374703A98
:101DE00000537465707065723A00556E4C65766587
:101DF0006C3A004C6576656C65643A005261773ADE
:101E000020202020000A4C6F676963616C3A002C27
:101E100020002C20003A004361703A0070012C0130
:101E200090012701B0012201C0011D01F00118013C
:101E30001002130130020E01600209019002040138
:101E4000C002FF000003FA004003F5008003F00029
:101E5000D003EB002004E6007004E100E004DC00A5
:101E60004005D700C005D2004006CD00D006C8000E
:101E70008007C3003008BE00F008B900C009B400F4
:101E8000B00AAF00B00BAA00D00CA500000EA00055
:101E9000500F9B00C01096005012910000148C004F
:101EA000C0158700B0178200B0197D00D01B7800E4
:101EB000001E730040206E0090226900F024640030
:101EC00040275F0090295A00E02B5500102E50004B
:101ED00020304B0010324600E033410090353C008A
:101EE0001037370070383200A0392D00B03A280082
:101EF000A03B2300603C1E00103D1900903D1400E3
:101F0000103E0F00703E0A00C03E0500003F00007A
:101F1000403FFBFF803FF6FFC03FF1FF45312054BB
:101F20004845524D414C2052554E4157415900426F
:101F3000454420544845524D414C2052554E41573E
:101F4000415900546865726D616C2052756E6177FD
:101F50006179004D383420582059205A20450020FE
:101F60002F002042403A0020403A002C2065793D65
:101F70000029202D3E202865783D002C2073793DD6
:101F80000020436F6E6E656374696E6720776974B5
:101F90006820766572746963616C206C696E652077
:101FA0002873783D002C2065793D0029202D3E20A6
:101FB0002865783D002C2073793D0020436F6E6EBC
:101FC000656374696E67207769746820686F7269E9
:101FD0007A6F6E74616C206C696E65202873783D31
:101FE000003F53706563696669656420582C592009
:101FF000636F6F7264696E617465206F7574206FB2
:102000006620626F756E64732E0A003F2852296540
:10201000706561742076616C7565206E6F742070D8
:102020006C61757369626C653B206D7573742062B9
:1020300065206174206C6561737420312E0A003F45
:102040002852296570656174206D7573742062650E
:1020500020737065636966696564207768656E20C2
:102060006E6F74207573696E6720616E204C4344F7
:102070002E0A003F537065636966696564206E6F60
:102080007A7A6C652074656D7065726174757265BD
:10209000206E6F7420706C61757369626C652E0AB6
:1020A000003F5370656369666965642066696C61A9
:1020B0006D656E742073697A65206E6F7420706C24
:1020C00061757369626C652E0A003F5370656369C0
:1020D00066696564207072696D65206C656E6774F1
:1020E00068206E6F7420706C61757369626C652E08
:1020F0000A003F5072696D65206C656E67746820D8
:102100006D757374206265207370656369666965B7
:1021100064207768656E206E6F74207573696E67D2
:1021200020616E204C43442E0A003F537065636962
:1021300066696564206E6F7A7A6C652073697A656A
:10214000206E6F7420706C61757369626C652E0A05
:10215000003F5370656369666965642052657472F7
:10216000616374696F6E204D756C7469706C69651C
:1021700072206E6F7420706C61757369626C652E6D
:102180000A003F52657472616374696F6E204D7509
:102190006C7469706C696572206D7573742062650A
:1021A000207370656369666965642E0A003F537029
:1021B00065636966696564206C617965722068652C
:1021C00069676874206E6F7420706C6175736962E2
:1021D0006C652E0A003F537065636966696564200B
:1021E0006265642074656D706572617475726520D6
:1021F0006E6F7420706C61757369626C6520283431
:10220000302D31343043292E0A0047323620636F97
:102210006D6D616E6420737461727465642E2057F5
:10222000616974696E6720666F72206865617465A4
:10223000722873292E0A002569730025696D2025EF
:102240006973002569682025696D2025697300255B
:102250006964202569682025696D2025697300253A
:10226000697920256964202569682025696D202504
:10227000697300656E7175657565696E672022000A
:102280005072696E7465722073746F70706564202B
:1022900064756520746F206572726F72732E2046AC
:1022A000697820746865206572726F7220616E644F
:1022B00020757365204D39393920746F207265732C
:1022C000746172742E202854656D70657261747526
:1022D00072652069732072657365742E205365746E
:1022E000206974206166746572207265737461720E
:1022F00074696E67290A004E6F20436865636B73CB
:10230000756D2077697468206C696E65206E756DD7
:102310006265722C204C617374204C696E653A20A2
:10232000004E6F20436865636B73756D2077697429
:1023300068206C696E65206E756D6265722C204C2C
:10234000617374204C696E653A2000636865636B45
:1023500073756D206D69736D617463682C204C61B9
:102360007374204C696E653A20004C696E65204E8E
:10237000756D626572206973206E6F74204C617395
:1023800074204C696E65204E756D6265722B312C20
:10239000204C617374204C696E653A20004D3131D8
:1023A0003000776169740A004D3331005344207264
:1023B000656164206572726F720A00446F6E6520F9
:1023C0007072696E74696E672066696C650A0020B8
:1023D000496E76616C6964206578747275646572A3
:1023E00020000000000000000000000000000000CD
:1023F0009B4300009B430000C8437C3C3E5E2B3D5A
:102400003F2F5B5D3B2C2A225C00627573793A207A
:1024100070617573656420666F7220696E70757483
:102420000A00627573793A2070617573656420667D
:102430006F7220757365720A00627573793A207045
:10244000726F63657373696E670A004B494C4C4544
:10245000442E20004B494C4C206361757365642009
:10246000627920746F6F206D75636820696E616397
:10247000746976652074696D65202D2063757272AC
:10248000656E7420636F6D6D616E643A20005072EA
:10249000696E7465722068616C7465642E206B6966
:1024A0006C6C28292063616C6C6564210A00000053
:1024B000000000000000000000000000F0420000EA
:1024C000F0420000C842000000005761726E696E61
:1024D000673A20486F6D696E672042756D702044C1
:1024E000697669736F72203C20310A000202040091
:1024F00000A0400000A0400000004000009B4300FE
:10250000009B430000C843FFFFFF486F74656E6483
:1025100020746F6F20636F6C640A00496E7365727C
:10252000742066696C616D656E7420616E642070E4
:102530007265737320627574746F6E20286F7220D9
:102540004D313038290A00486F74656E6420746F0D
:102550006F20636F6C640A002F2F616374696F6E64
:102560003A70617573650A0048617264636F6465EF
:10257000642044656661756C742053657474696E7B
:102580006773204C6F616465640A00EE020000EE20
:1025900002000064000000190000000000FA43007F
:1025A00000FA430000A041000070420000A0420079
:1025B00000A0420000C84300000C433A0A00202853
:1025C0006D6D290020204D36303320002055004C01
:1025D0000046696C616D656E74206C6F61642F7567
:1025E0006E6C6F6164206C656E677468733A0A0084
:1025F00020204D383531205A005A2D50726F6265B7
:10260000204F66667365740020204D3230392053A8
:10261000004175746F2D526574726163743A205372
:102620003D3020746F2064697361626C652C2031C9
:1026300020746F20696E7465727072657420452D08
:102640006F6E6C79206D6F76657320617320726593
:1026500074726163742F7265636F7665720A00200D
:10266000460020570020204D32303820530052655C
:10267000636F7665723A20533C6C656E6774683E92
:1026800020463C756E6974732F6D3E0A00205A0017
:1026900020460020570020204D3230372053005272
:1026A0006574726163743A20533C6C656E6774683C
:1026B0003E20463C756E6974732F6D3E205A3C6C0B
:1026C0006966743E0A0020440020490020204D33F2
:1026D000303420500020440020490020204D333069
:1026E000312050005049442073657474696E6773DB
:1026F0003A0A00205A00204A002020473239205749
:10270000204900205A0020204D343230205300410F
:1027100075746F20426564204C6576656C696E67E0
:102720003A0A00205A0020590020204D323036202D
:102730005800486F6D65206F66667365743A0A00CD
:10274000204500205A002059002058002054002025
:10275000530020204D32303520510020453C6D6122
:10276000785F655F6A65726B3E0020583C6D6178EA
:102770005F785F6A65726B3E20593C6D61785F7966
:102780005F6A65726B3E205A3C6D61785F7A5F6A62
:1027900065726B3E00416476616E6365643A2051F8
:1027A0003C6D696E5F7365676D656E745F74696DAE
:1027B000655F75733E20533C6D696E5F6665656449
:1027C000726174653E20543C6D696E5F747261760F
:1027D000656C5F66656564726174653E00205400D7
:1027E00020520020204D3230342050004163636578
:1027F0006C65726174696F6E2028756E6974732FD1
:102800007332293A20503C7072696E745F61636361
:10281000656C3E20523C726574726163745F6163E3
:1028200063656C3E20543C74726176656C5F6163D5
:1028300063656C3E0A00204500205A0020590020A4
:10284000204D3230312058004D6178696D756D2012
:10285000416363656C65726174696F6E2028756E83
:102860006974732F7332293A0A00204500205A00F8
:1028700020590020204D3230332058004D617869B6
:102880006D756D2066656564726174657320287569
:102890006E6974732F73293A0A00204500205A008C
:1028A00020590020204D3932205800537465707330
:1028B0002070657220756E69743A0A0020204D32CE
:1028C00030302044300A0020204D32303020440087
:1028D0002044697361626C65640A0046696C616DCD
:1028E000656E742073657474696E67733A00202096
:1028F000473231202020203B005344206361726422
:10290000206F6B0A006F70656E526F6F7420666186
:10291000696C65640A00766F6C756D652E696E6909
:1029200074206661696C65640A00534420696E69AD
:1029300074206661696C0A0057726974696E672059
:10294000746F2066696C653A20006F70656E206652
:1029500061696C65642C2046696C653A20006F7073
:10296000656E206661696C65642C2046696C653A09
:10297000200046696C652073656C65637465640A44
:10298000002053697A653A200046696C65206F70B3
:10299000656E65643A20002066696C653A200064C3
:1029A0006F696E67006672657368004E6F7720000E
:1029B000454E4420535542524F5554494E450A0006
:1029C0002220706F73002220706172656E743A224B
:1029D00000535542524F5554494E452043414C4CAB
:1029E000207461726765743A22004B494C4C45442F
:1029F0002E2000747279696E6720746F2063616C99
:102A00006C207375622D67636F64652066696C6501
:102A100073207769746820746F6F206D616E792000
:102A20006C6576656C732E204D4158206C6576651B
:102A30006C2069733A004572726F723A006F70656C
:102A40006E206661696C65642C2046696C653A206D
:102A5000000A202A2A2A4E6F7A7A6C6554656D70B6
:102A60005374617475735B325D203D00486F6D690E
:102A70006E67206661696C6564005452494747453A
:102A8000524544006F70656E003A20007A5F6D69B0
:102A90006E00795F6D696E00785F6D696E005265DA
:102AA000706F7274696E6720656E6473746F7020E6
:102AB0007374617475730A00290A00206279746561
:102AC000733B2063726320002073746F726564200F
:102AD00073657474696E6773207265747269657664
:102AE0006564202800202863616C63756C617465DF
:102AF0006429210A0020213D2000454550524F4DB8
:102B000020435243206D69736D61746368202D20EA
:102B10002873746F7265642920002053697A653ABE
:102B20002000496E6465783A2000204D61726C691E
:102B30006E3D563535290A0028454550524F4D3DCA
:102B400000454550524F4D2076657273696F6E2077
:102B50006D69736D617463682000446F6E652E0A41
:102B60000061626C65640A0064697300656E0065EB
:102B70006E6473746F70206D6F6E69746F72200075
:102B8000534552564F206E6F742073657475700AEA
:102B9000005761746368696E672070696E730A001C
:102BA00046696C616D656E7420757365643A2000CA
:102BB00053746174733A20002C204C6F6E676573F8
:102BC00074206A6F623A2000546F74616C207469DB
:102BD0006D653A200053746174733A20002C2046CE
:102BE00061696C65643A20002C2046696E697368DF
:102BF00065643A20005072696E74733A2000537411
:102C00006174733A200020573A0043616E6E6F740E
:102C1000206F70656E207375626469722000656351
:102C2000686F3A005344207072696E74696E672051
:102C30006279746520004E6F74205344207072696D
:102C40006E74696E670A006265640A002C207379ED
:102C50007374656D2073746F7070656421204865AE
:102C6000617465725F49443A2000453120457272B3
:102C70003A204D415854454D50004572723A204D0E
:102C8000415854454D5020424544004D415854450B
:102C90004D50207472696767657265640045312024
:102CA0004572723A204D494E54454D50004572725E
:102CB0003A204D494E54454D5020424544004D491F
:102CC0004E54454D502074726967676572656400A3
:102CD0004265642068656174696E67206661696C2D
:102CE00065640048656174696E67206661696C653A
:102CF000640045312048656174696E6720666169CA
:102D00006C65640048656174696E67206661696C12
:102D10006564004B494C4C45442E20004D32383000
:102D20002050302053393000202844525952554EFB
:102D30002900473239204175746F20426564204C68
:102D40006576656C696E67003F20284C2C522C46D6
:102D50002C4229206F7574206F6620626F756E6437
:102D6000732E0A003F2856296572626F7365206CC6
:102D70006576656C20697320696D706C6175736927
:102D8000626C652028302D34292E0A0042616420AF
:102D90005A2076616C75650A004E6F2062696C6915
:102DA0006E65617220677269640A00000021002468
:102DB0000027002A002D003000330001010000042C
:102DC0000107010A0100002200250028002B002E27
:102DD000003100340002010000050108010B010070
:102DE0000020002300260029002C002F00320000C4
:102DF0000100000301060109010505050507050895
:102E0000080808020202020A0A080804040404016D
:102E1000010101010101010303030303030303048F
:102E20000707070C0C0C0C0C0C0C0C02020202061F
:102E3000060606060606060B0B0B0B0B0B0B0B010F
:102E400002102020080810204010204080020102BB
:102E50000108040201010204081020408080402083
:102E600010080402018004020180402010080402BE
:102E7000010804020101020408102040800102043C
:102E8000081020408000000A0B02090C0D0E0807F4
:102E9000030401000000000000000000000000002A
:102EA0000000000000000000000000000000000022
:102EB00000121110000000000000000000000000DF
:102EC0000000000000000000000000556E6B6E6FF7
:102ED000776E20636F6D6D616E643A202200696EBB
:102EE000206D6F76655F746F282920666565645F65
:102EF00076616C756520666F722058593A0036010C
:102F0000200111241FBECFEFD1E2DEBFCDBF00E014
:102F10000CBF16E0A0E0B2E0E4E2F5E402E00BBF93
:102F200002C007900D92AA30B107D9F72BE1AAE0B1
:102F3000B6E001C01D92AE32B207E1F717E1C0E87A
:102F4000D7E100E006C021970109802FFE010F9410
:102F5000C721CF37D10780E00807A9F70F94A6064D
:102F60000D9481220C9400002F923F924F925F9219
:102F70006F927F928F929F92AF92BF92CF92DF9289
:102F8000EF92FF920F931F93CF93DF93CDB7DEB7EE
:102F9000E2970FB6F894DEBF0FBECDBF0E947E5AF7
:102FA00080914B168230B9F480915817811145C039
:102FB0008091301790913117891B8F7009F03DC0B7
:102FC0000AC00E94F4E08AEC95E09093FF08809399
:102FD000FE080E9421B70E946BDA00914D16002373
:102FE00081F0E6EBF5E084915F012FEFA21AB20ABF
:102FF000882321F00E94F5B6F501F5CF802F0E94BD
:10300000F5B680914D1681110C949E2F81EA882E81
:103010008AE1982E0AE180E996E10E949EA2A090A2
:103020001906B0901A06181619060CF07BC03AE182
:10303000A316B1040CF44EC075C06499CCCF809136
:103040004C168F5F80934C1665E070E080E090E056
:103050000F94E70380914C1683330CF4BCCF85E0CA
:1030600080934D16109258170E94F6FB80916806C7
:1030700090916906909331068093300681E08093A9
:103080008B0D10924C1610924B1684E08093080919
:1030900010928C0D1092EC1A1092EB1AEEEDF5E0F6
:1030A00084915F010FEFA01AB00A811103C0EEEC0A
:1030B000F5E004C00E94F5B6F501F2CF84915F01FE
:1030C0001FEFA11AB10A882309F47BCF0E94F5B63D
:1030D000F501F4CF80E996E10E947CA2F501EF555D
:1030E000F54E80838091A11A8A3571F01A141B0461
:1030F0000CF091CFD401E02F1D92EA95E9F71092E0
:103100001A061092190687CF6AE070E080E090E01E
:103110000F94E703FFEFAF1ABF0AB0921A06A0920E
:10312000190679CF1A141B0414F00C949E2F909159
:10313000021A8091A11A981322C09091031A8091CB
:10314000A21A98131CC003E0A016B104C4F0909119
:10315000A31A9093011A8091A41A8093041A9330B1
:10316000D9F4982F9D7F9038B9F49091A51A9F3487
:1031700009F05AC09091A61A9B3409F055C08AE113
:10318000E1EAFAE1DF011D928A95E9F710921A0649
:10319000109219060C949E2F833809F045C0809137
:1031A000A51A9091A61A982789279827A0E0B0E041
:1031B0008093051A9093061AA093071AB093081AE1
:1031C0004091A71A50E060E070E04093091A5093D4
:1031D0000A1A60930B1A70930C1A08EA802E0AE1FF
:1031E000902E80E090E0DC0184179507A607B707D2
:1031F00008F048C09C0135952795220F331FF9012F
:10320000E35FF54E5F01F401208130E0322F222789
:103210000181202BF501318320830296A11DB11D70
:10322000F2E08F0E911CE0CF813861F58091A51AF4
:1032300090E0A0E0B0E08093051A9093061AA09366
:10324000071AB093081A8091A61A482F50E060E040
:1032500070E04093091A50930A1A60930B1A709306
:103260000C1AA7EABAE1EDE0FAE190E020E030E0E4
:103270002817390739F04D9150E0419351932F5F52
:103280003F4FF6CF8AE1E1EAFAE1DF011D928A952C
:10329000E9F710921A061092190604E813E0F801F3
:1032A00081918F01882319F00E94F5B6F8CF8AE04A
:1032B0000E94F5B680914D1618161CF006EA13E030
:1032C00015C00CEB13E0D8018D918D01882319F006
:1032D0000E94F5B6F8CF60914D16062E000C770BC4
:1032E000880B990B0E94ACBB0C94912FF801819133
:1032F0008F01882319F00E94F5B6F8CF60910D1A5E
:1033000070910E1A80E090E04AE00E9403BB0BEC43
:1033100013E0D8018D918D01882319F00E94F5B634
:10332000F8CF6091051A7091061A8091071A909152
:10333000081A4AE00E9403BB8091051A9091061A70
:10334000A091071AB091081AE8E6F2E000E010E058
:10335000419151916191719141155105610571053D
:10336000D1F1481759076A077B0791F5AC01BD01F8
:103370004850504161097109453051056105710599
:1033800068F1AC01BD01477F4233504161057105D1
:1033900041F18433F0E19F07A105B10511F1AC01C2
:1033A000BD0146545041610971094730510561051D
:1033B0007105D0F0AC01BD0144555041610971095E
:1033C000453051056105710588F402E110E00EC039
:1033D0000F5F1F4FBDCF0FEF1FEF08C003E010E0DE
:1033E00005C008E010E002C00FE010E08A509042F3
:1033F000A109B109833D9105A105B10530F00F3F49
:103400002FEF120721F40C94912F09E110E08EEDBB
:10341000882E83E0982EF40181914F01882319F0C2
:103420000E94F5B6F8CFB801012E000C880B990B5D
:103430000E94ACBB0A31110510F00C94912FF801D9
:103440008827EE58FF4F8F4F0D94C7210CEE13E0E5
:103450000C94632A80910D1A90910E1A8130910577
:1034600009F043C01092390281E080930B098FEF7D
:1034700080930F090E947E5A0AEF13E0D8018D91C4
:103480008D01882319F00E94F5B6F8CF8091491676
:10349000882349F081E09AE590935E1A80935D1A43
:1034A00082E090E008C081E09AE590935E1A8093F4
:1034B0005D1A8EE290E09093601A80935F1A87E025
:1034C0008093511A82E88093541A84E890E0A0E037
:1034D000B0E08093551A9093561AA093571AB09360
:1034E000581A0E9491F30C94912F8230910509F0A3
:1034F000BFC081E08093390210928C0D0E94304B46
:103500008BE090E090935E1A80935D1A05E0009343
:10351000511A12E81093541A80E092E1A0E0B0E052
:103520008093551A9093561AA093571AB093581A2D
:103530000E9491F310925E1A10925D1A0093511A34
:103540001093541A8EE090E1A0E0B0E08093551AF9
:103550009093561AA093571AB093581A0E9491F359
:1035600010925E1A10925D1A0093511A1093541A19
:103570008FE090E1A0E0B0E08093551A9093561A46
:10358000A093571AB093581A0E9491F310925E1AA2
:1035900010925D1A0093511A1093541A86E190E12B
:1035A000A0E0B0E08093551A9093561AA093571A52
:1035B000B093581A0E9491F362E070E080E090E0CE
:1035C0000F94E70310925E1A10925D1A0093511A3D
:1035D0001093541A80E190E1A0E0B0E08093551A76
:1035E0009093561AA093571AB093581A0E9491F3C9
:1035F00010925E1A10925D1A0093511A1093541A89
:1036000082E190E1A0E0B0E08093551A9093561AC1
:10361000A093571AB093581A0E9491F30E94DBFBB3
:1036200010920009109201091092020910920309E8
:1036300004E214E0F80181918F01882319F00E94BF
:10364000F5B6F8CF80914916882349F081E09AE5D4
:1036500090935E1A80935D1A81E090E02CCF81E018
:103660009AE590935E1A80935D1A8DE290E023CFE5
:103670008330910581F481E08093390210928C0DA2
:103680000EE414E0D8018D918D01882309F42BC438
:103690000E94F5B6F7CF049711F00C94912F109279
:1036A00039020C94912F80910D1A90910E1A81304D
:1036B0009105D1F41092390280911D02882319F0EE
:1036C00082E090E002C083E090E090935E1A8093E5
:1036D0005D1A85E08093511A82E88093541A8EE136
:1036E00090E1A0E0B0E0F5CE8230910509F076C01F
:1036F00008E714E0F80181918F01882319F00E94F6
:10370000F5B6F8CF81E08093390290910809809155
:1037100049169330A1F4882349F081E09AE590930B
:103720005E1A80935D1A8AE090E0C5CE81E09AE54A
:1037300090935E1A80935D1A84E390E0BCCE94303F
:10374000C9F5882349F081E09AE590935E1A809349
:103750005D1A8CE090E0AFCE81E09AE590935E1A1E
:1037600080935D1A86E390E0A6CE8091051A909131
:10377000061AA091071AB091081A8830F0E19F0745
:10378000A105B10509F030C190918B0D80914916CA
:10379000913009F4BFC09111C5C020910D1A30912C
:1037A0000E1A203F310509F0BDC0909108099330F1
:1037B00009F4B1CF882349F081E09AE590935E1A2D
:1037C00080935D1A8BE090E076CE81E09AE590934D
:1037D0005E1A80935D1A85E390E06DCE833091058B
:1037E00009F049C020911D02222311F190935E1A25
:1037F00080935D1A85E08093511A82E88093541A71
:103800008EE190E1A0E0B0E08093551A9093561AB3
:10381000A093571AB093581A0E9491F38FEF90E03B
:1038200090930A098093090910921D020C94912F1C
:1038300082E090E090935E1A80935D1A85E0809319
:10384000511A82E88093541A8EE190E1A0E0B0E032
:103850008093551A9093561AA093571AB093581AFA
:103860000E9491F310920A091092090981E0809355
:103870001D020C94912F049711F00C94912F8091BC
:103880000C028823F1F082E090E090935E1A80931E
:103890005D1A85E08093511A82E88093541A8FE173
:1038A00090E1A0E0B0E08093551A9093561AA0934F
:1038B000571AB093581A0E9491F310920C020C946C
:1038C000912F83E090E090935E1A80935D1A85E0DB
:1038D0008093511A82E88093541A8FE190E1A0E01E
:1038E000B0E08093551A9093561AA093571AB0934C
:1038F000581A0E9491F381E080930C020C94912F4E
:1039000080910D1A90910E1A90930B0280930A02E7
:103910000C94912F20910D1A30910E1A203F3105F1
:1039200009F40FCF882349F081E09AE590935E1A5D
:1039300080935D1A86E590E008C081E09AE5909357
:103940005E1A80935D1A87E590E09093601A8093E9
:103950005F1A87E08093511A82E88093541A84E8B2
:1039600090E0A0E0B0E08093551A9093561AA0938F
:10397000571AB093581A0E9491F310925E1A10923F
:103980005D1A05E00093511A12E81093541A80E171
:1039900090E1A0E0B0E08093551A9093561AA0935E
:1039A000571AB093581A0E9491F310925E1A10920F
:1039B0005D1A0093511A1093541A82E190E1A0E02D
:1039C000B0E08093551A9093561AA093571AB0936B
:1039D000581A0E9491F31092EC1A1092EB1A10925E
:1039E0000C090E94A6515FC18A3000E19007A10531
:1039F000B10509F073C080910D1A90910E1A813FA4
:103A0000910511F00C94912F80914916882349F06B
:103A100081E09AE590935E1A80935D1A86E590E0C6
:103A200008C081E09AE590935E1A80935D1A87E55D
:103A300090E09093601A80935F1A87E08093511A08
:103A400082E88093541A84E890E0A0E0B0E080938C
:103A5000551A9093561AA093571AB093581A0E9469
:103A600091F381E080934D16109258170E94F6FB57
:103A7000E4EAF5E084918F010F5F1F4F811103C0CD
:103A8000E4E9F5E004C00E94F5B6F801F3CF8491B3
:103A90008F010F5F1F4F882321F00E94F5B6F801B8
:103AA000F6CF8091680690916906909331068093D5
:103AB000300681E080938B0D84E08093080910929A
:103AC000EC1A1092EB1A0E94F4E080E995E09093D2
:103AD000FF088093FE080E9421B7E5C08C3090411A
:103AE000A105B10509F0DFC080910D1A90910E1A61
:103AF000019709F0D8C080E090E00E9487D5892B1B
:103B0000B1F11092180610921706A5E0AA2EB2E89D
:103B1000BB2E1EE8C12E10E1D12EE12CF12C00911C
:103B20001706109118060530110514F00C94912F0A
:103B300010935E1A00935D1AA092511AB092541A13
:103B4000C092551AD092561AE092571AF092581A0B
:103B50000E9491F360E971E080E090E00F94E70348
:103B60000F5F1F4F1093180600931706D8CF8CE8ED
:103B700095E09093FF088093FE080E9421B7EEE441
:103B8000F3E18EE1DF011D928A95E9F7809131061C
:103B90008F93809130068F9383E895E09F938F9366
:103BA000FF93EF930F94D9178EE493E10E94FCB634
:103BB0000E94F4E00F900F900F900F900F900F90D5
:103BC000E2E7F5E084918F010F5F1F4F882321F01A
:103BD0000E94F5B6F801F6CF82E080934B16109262
:103BE000080981E08093390280EA9FE09093EC1A03
:103BF0008093EB1A80914916882329F010925E1A5F
:103C000010925D1A06C08CE090E090935E1A80934B
:103C10005D1A85E08093511A82E88093541A84E1FA
:103C200090E1A0E0B0E08093551A9093561AA093CB
:103C3000571AB093581A0E9491F310928B0D10925C
:103C4000EC1A1092EB1A81E080930C0980914916CE
:103C5000882349F081E09AE590935E1A80935D1A7B
:103C60008AE090E008C081E09AE590935E1A809324
:103C70005D1A84E390E09093601A80935F1A87E066
:103C80008093511A82E88093541A84E890E0A0E06F
:103C9000B0E08093551A9093561AA093571AB09398
:103CA000581A0E9491F38091051A9091061AA091DA
:103CB000071AB091081A8C309041A105B10511F096
:103CC0000C94912F80910D1A90910E1A029711F079
:103CD0000C94912F81E0809316061092080980932E
:103CE000390280EA9FE09093EC1A8093EB1A80915E
:103CF0003006909131069093690680936806109281
:103D000018061092170682E080934B168091491690
:103D1000882369F081E09AE590935E1A80935D1A9A
:103D200087E090E09093601A80935F1AC9CB81E09E
:103D30009AE590935E1A80935D1A82E590E0BBCB82
:103D400020910D1A30910E1AB90180E090E037FFF2
:103D500009C00F940B1820E030E040E857E40F94BE
:103D6000D11E02C00F940B1820E030E048EC52E462
:103D70000F94AE1F609358067093590680935A06AD
:103D800090935B06C0905806D0905906E0905A0672
:103D9000F0905B0620E030E040EA51ECC701B6014C
:103DA0000F94F92087FD53C020E030E040EA51E451
:103DB000C701B6010F94071818160CF448C0A701E4
:103DC00096016091A0087091A1088091A20890913D
:103DD000A3080F94D11E20E030E048EC53E40F9488
:103DE0006C1890580F941620CB010E94F8D5609162
:103DF00058067091590680915A0690915B0660931F
:103E0000A0087093A1088093A2089093A30820E0D3
:103E100030E048EC52E40F946C180F941620709325
:103E20005E1A60935D1A85E08093511A82E8809350
:103E3000541A86E290E1A0E0B0E08093551A909386
:103E4000561AA093571AB093581A0E9491F30E94E1
:103E5000E3910C94912F80910D1A90910E1A009776
:103E600039F481E08093390210928C0D0C94912FDB
:103E70009C01215031092230310510F40C94912F0E
:103E80008330910509F05BC090911D028091491625
:103E90009923D1F12FEF30E030930A0920930909DB
:103EA00010921D02882339F181E09AE590935E1A01
:103EB00080935D1A8FE090E0FECA8091051A909180
:103EC000061AA091071AB091081A8233F0E19F07F1
:103ED000A105B10509F084C180910D1A90910E1AC7
:103EE000009709F050C19091491680911D029111DF
:103EF00047C181111BC081E09AE590935E1A8093BF
:103F00005D1A89E390E0D7CA10920A091092090954
:103F100091E090931D02882349F081E09AE5909307
:103F20005E1A80935D1A80E190E0C5CA81E09AE54F
:103F300090935E1A80935D1A8AE390E0BCCA853044
:103F40009105A9F580E090E0A3E4B3E4809300023A
:103F500090930102A0930202B093030283EC90E0DD
:103F60000F94C51010926D0610926C060E9460A806
:103F700083EC90E090935E1A80935D1A05E00093C5
:103F8000511A12E81093541A84E390E1A0E0B0E0D3
:103F90008093551A9093561AA093571AB093581AB3
:103FA0000E9491F310925E1A10925D1A3AC0863008
:103FB0009105E1F580E090E0A0E7B3E48093000292
:103FC00090930102A0930202B093030280EF90E06D
:103FD0000F94C510FEE6EF2EF12CF0926D06E092E4
:103FE0006C060E9460A880EF90E090935E1A809328
:103FF0005D1A05E00093511A12E81093541A84E3F5
:1040000090E1A0E0B0E08093551A9093561AA093E7
:10401000571AB093581A0E9491F3F0925E1AE092E8
:104020005D1A0093511A1093541AD5C0813F91051F
:1040300011F00C94912F8FEF90E090930A098093E8
:10404000090910921D020E94F8A810925E1A10929F
:104050005D1A05E00093511A12E81093541A84E394
:1040600090E1A0E0B0E08093551A9093561AA09387
:10407000571AB093581A0E9491F361E070E080E003
:1040800090E00F94E70310925E1A10925D1A00936D
:10409000511A1093541A8AE390E1A0E0B0E08093A3
:1040A000551A9093561AA093571AB093581A0E9413
:1040B00091F361E070E080E090E00F94E70380917D
:1040C0004916882309F188E090E090935E1A809366
:1040D0005D1A0093511A1093541A84E190E1A0E004
:1040E000B0E08093551A9093561AA093571AB09344
:1040F000581A0E9491F381E09AE590935E1A80939A
:104100005D1A8FE090E020C084E190E090935E1A09
:1041100080935D1A0093511A1093541A84E190E130
:10412000A0E0B0E08093551A9093561AA093571AC6
:10413000B093581A0E9491F381E09AE590935E1A29
:1041400080935D1A89E390E09093601A80935F1AE0
:1041500087E08093511A1093541A84E890E0A0E00D
:10416000B0E08093551A9093561AA093571AB093C3
:10417000581A0E9491F382E0809308090C94912FC1
:104180008111CBCE91CE8130910599F410926906C0
:104190001092680610925E1A10925D1A85E0809364
:1041A000511A82E88093541A84E390E1A0E0B0E0D1
:1041B00090C9029711F00C94912F10926D061092F5
:1041C0006C0610925E1A10925D1A85E08093511A67
:1041D00082E88093541A8AE390E1A0E0B0E079C9C4
:1041E000843300E19007A105B10551F480910D1AC7
:1041F00090910E1A90936906809368060C94912F03
:104200008A339041A105B10511F00C94912F809152
:104210000D1A90910E1A90936D0680936C060C9473
:10422000912F80910D1A90910E1A009709F419CED2
:104230008130910509F06CC080911102882319F03A
:1042400082E090E002C083E090E090935E1A809359
:104250005D1A85E08093511A82E88093541A85E4B0
:1042600090E1A0E0B0E08093551A9093561AA09385
:10427000571AB093581A0E9491F38AE090E09093F5
:104280005E1A80935D1A85E08093511A82E88093CC
:10429000541A80E092E1A0E0B0E08093551A909328
:1042A000561AA093571AB093581A0E9491F312E02D
:1042B00010934D168EE695E09093FF088093FE08CC
:1042C0000E9421B710934D1680E00E94425F81E664
:1042D00095E09093FF088093FE080E9421B781E04B
:1042E0000E94425F80914916882349F081E09AE557
:1042F00090935E1A80935D1A86E190E0DCC881E0BD
:104300009AE590935E1A80935D1A80E490E0D3C89A
:104310008230910509F0B6C081E080933902109295
:104320008C0D88E0ECE0F6E0DF011D928A95E9F75C
:1043300080E090E0A0E2B1E480930C0690930D063B
:10434000A0930E06B0930F0680931006909311066B
:10435000A0931206B093130684E690E090935E1A41
:1043600080935D1A05E00093511A12E81093541AD5
:1043700084E590E1A0E0B0E08093551A9093561A3E
:10438000A093571AB093581A0E9491F320E030E09E
:1043900040E251E46091100670911106809112067E
:1043A000909113060F946C180F94162070935E1A58
:1043B00060935D1A0093511A1093541A88E590E1A6
:1043C000A0E0B0E08093551A9093561AA093571A24
:1043D000B093581A0E9491F36091820870918308FB
:1043E00080918408909185080F94162070935E1A2E
:1043F00060935D1A0093511A1093541A86E390E16A
:10440000A0E0B0E08093551A9093561AA093571AE3
:10441000B093581A0E9491F38091680690916906B2
:1044200090935E1A80935D1A0093511A1093541A58
:1044300084E390E1A0E0B0E08093551A9093561A7F
:10444000A093571AB093581A0E9491F362E070E05B
:1044500080E090E00F94E70380914916882349F0AB
:1044600081E09AE590935E1A80935D1A87E190E06F
:104470009CC781E09AE590935E1A80935D1A81E46F
:1044800090E093C78330910509F092C01092330CED
:1044900020E030E040E251E46091DA087091DB08FE
:1044A0008091DC089091DD080F946C180F94162011
:1044B00070935E1A60935D1A05E00093511A12E83A
:1044C0001093541A88E490E1A0E0B0E08093551A6C
:1044D0009093561AA093571AB093581A0E9491F3CA
:1044E00020E030E040E251E46091DE087091DF08A6
:1044F0008091E0089091E1080F946C180F941620B9
:1045000070935E1A60935D1A0093511A1093541AB7
:104510008AE490E1A0E0B0E08093551A9093561A97
:10452000A093571AB093581A0E9491F320E030E0FC
:1045300040E251E46091E2087091E3088091E40860
:104540009091E5080F946C180F94162070935E1AE2
:1045500060935D1A0093511A1093541A8CE490E101
:10456000A0E0B0E08093551A9093561AA093571A82
:10457000B093581A0E9491F362E070E080E090E0FE
:104580000F94E70380914916882349F081E09AE56A
:1045900090935E1A80935D1A8DE190E006C781E0EA
:1045A0009AE590935E1A80935D1A87E490E0FDC6C9
:1045B0008430910511F40C94912F8530910551F4BC
:1045C0004EE750E160E070E08FE994E00E9438D55A
:1045D0000C94912F069711F00C94912F8DE595E096
:1045E0009093FF088093FE080E9421B78BE090E033
:1045F0003DC380910D1A90910E1A0197A9F580EA9A
:104600009FE09093EC1A8093EB1A109239028091FC
:104610004916882349F081E09AE590935E1A8093C9
:104620005D1A85E190E008C081E09AE590935E1AFA
:1046300080935D1A8FE390E09093601A80935F1AE5
:1046400087E08093511A82E88093541A84E890E0BE
:10465000A0E0B0E08093551A9093561AA093571A91
:10466000B093581A0E9491F380910D1A90910E1AEE
:10467000029711F00C94912F35CE80910D1A9091E4
:104680000E1A8130910509F056C080914816877046
:10469000873019F089E595E002C082E595E09093B6
:1046A000FF088093FE080E9421B780E00E94425FCD
:1046B00085E495E09093FF088093FE080E9421B75F
:1046C00083E090E090935E1A80935D1A05E000937A
:1046D000511A12E81093541A85E490E1A0E0B0E07A
:1046E0008093551A9093561AA093571AB093581A5C
:1046F0000E9491F36091A0087091A1088091A20896
:104700009091A308609358067093590680935A06B7
:1047100090935B0620E030E048EC52E40F946C1874
:104720000F94162070935E1A60935D1A0093511ACD
:104730001093541A8BC282309105B1F52DEC3CECEC
:104740004CEC5DE36091A0087091A1088091A208F3
:104750009091A3080F94D21E6B017C0120E030E001
:1047600040EA51EC0F94F92087FD7EC220E030E052
:1047700040EA51E4C701B6010F94071818160CF46B
:1047800073C288E290E00E94F8D52DEC3CEC4CEC32
:104790005DE36091A0087091A1088091A2089091BA
:1047A000A3080F94D21E39C08330910509F068C068
:1047B0002DEC3CEC4CEC5DE36091A0087091A108FD
:1047C0008091A2089091A3080F94D11E6B017C01E7
:1047D00020E030E040EA51EC0F94F92087FD44C21C
:1047E00020E030E040EA51E4C701B6010F94071819
:1047F00018160CF439C288ED9FEF0E94F8D52DEC05
:104800003CEC4CEC5DE36091A0087091A1088091B4
:10481000A2089091A3080F94D11E6093A0087093F2
:10482000A1088093A2089093A30860935806709300
:10483000590680935A0690935B0620E030E048ECDE
:1048400052E40F946C180F94162070935E1A6093C4
:104850005D1A85E08093511A82E88093541A86E2AB
:1048600090E1A0E0B0E08093551A9093561AA0937F
:10487000571AB093581A0E9491F30E94E391F4C121
:104880008430910509F05AC084E080934D1688E386
:1048900095E09093FF088093FE080E9421B784E37F
:1048A00095E09093FF088093FE080E9421B782E074
:1048B00080934D1680E00E94425F87E295E09093DE
:1048C000FF088093FE080E9421B783E090E0909358
:1048D0005E1A80935D1A85E08093511A12E8109356
:1048E000541A85E490E1A0E0B0E08093551A9093CB
:1048F000561AA093571AB093581A0E9491F38091B8
:104900004916882349F081E09AE590935E1A8093D6
:104910005D1A8CE190E008C081E09AE590935E1A00
:1049200080935D1A84E590E09093601A80935F1AFB
:1049300087E08093511A1093541A10C28530910564
:1049400009F07DC083E080934D1681E090E0909364
:104950005E1A80935D1A85E08093511A12E81093D5
:10496000541A8DE890E1A0E0B0E08093551A90933E
:10497000561AA093571AB093581A0E9491F3809137
:104980004916882349F081E09AE590935E1A809356
:104990005D1A8BE290E008C081E09AE590935E1A80
:1049A00080935D1A85E590E09093601A80935F1A7A
:1049B00087E08093511A1093541A84E890E0A0E0A5
:1049C000B0E08093551A9093561AA093571AB0935B
:1049D000581A0E9491F383E295E09093FF08809328
:1049E000FE080E9421B780E00E94425F84E195E0CA
:1049F0009093FF088093FE080E9421B781E095E024
:104A00009093FF088093FE080E9421B784EF94E002
:104A10009093FF088093FE080E9421B783E090E006
:104A200090935E1A80935D1A85E08093511A82E814
:104A30008093541A85E490E1A0E0B0E00BC1863089
:104A40009105C9F484E080934D1688EE94E090932C
:104A5000FF088093FE080E9421B785ED94E09093B3
:104A6000FF088093FE080E9421B782E080934D16D4
:104A70008AEC94E053C087309105C9F484E08093B8
:104A80004D168EEB94E09093FF088093FE080E94F1
:104A900021B78DEA94E09093FF088093FE080E946E
:104AA00021B782E080934D1682EA94E037C08830C7
:104AB0009105C9F484E080934D1686E994E09093C3
:104AC000FF088093FE080E9421B784E894E0909349
:104AD000FF088093FE080E9421B782E080934D1664
:104AE00089E794E01BC089309105F9F484E0809354
:104AF0004D168DE694E09093FF088093FE080E9487
:104B000021B78AE594E09093FF088093FE080E9405
:104B100021B782E080934D168FE494E09093FF08D4
:104B20008093FE080E9421B79FC08A309105C9F486
:104B300084E080934D1683E494E09093FF08809383
:104B4000FE080E9421B781E394E09093FF088093D0
:104B5000FE080E9421B782E080934D1686E294E021
:104B6000DDCF0B9709F080C0809111028823F9F006
:104B700083E090E090935E1A80935D1A85E08093C5
:104B8000511A82E88093541A85E490E1A0E0B0E0E5
:104B90008093551A9093561AA093571AB093581AA7
:104BA0000E9491F3109211028EE194E01FC082E006
:104BB00090E090935E1A80935D1A85E08093511A7D
:104BC00082E88093541A85E490E1A0E0B0E08093FD
:104BD000551A9093561AA093571AB093581A0E94D8
:104BE00091F381E08093110286E194E09093FF08B5
:104BF0008093FE080E9421B7809158069091590633
:104C0000A0915A06B0915B0680936C1390936D133C
:104C1000A0936E13B0936F1320E030E048EC52E4A1
:104C20006091A0087091A1088091A2089091A308BA
:104C30000F946C180F94162070935E1A60935D1A8F
:104C400085E08093511A82E88093541A86E290E1BD
:104C5000A0E0B0E08093551A9093561AA093571A8B
:104C6000B093581A0E9491F38AE090E090935E1AF4
:104C700080935D1A85E08093511A82E88093541ADC
:104C800080E092E1A0E0B0E00C94691A84E08093A7
:104C90004D168091051A9091061AA091071AB091AD
:104CA000081A60910D1A70910E1A8834E0E19E077F
:104CB000A105B10509F45AC08A34F0E19F07A105A6
:104CC000B10509F45BC08C3400E19007A105B10582
:104CD00009F45DC086349041A105B10509F05FC0BB
:104CE0006330710509F03FC082E194E09093FF08C2
:104CF0008093FE080E9421B784E094E09093FF081F
:104D00008093FE080E9421B781E08093340C809349
:104D1000390210920B061092EC1A1092EB1A809145
:104D20004916882349F081E09AE590935E1A8093B2
:104D30005D1A80E290E008C081E09AE590935E1AE7
:104D400080935D1A8AE490E09093601A80935F1AD2
:104D500087E08093511A82E88093541A84E890E0A7
:104D6000A0E0B0E077CF6093330CECC0C12CD12C25
:104D7000EBE9EE2EE3E4FE2E312C11C0C12CD12C38
:104D80005BE9E52E53E4F52E3324339408C0C12C9F
:104D9000D12C38ECE32E33E4F32E42E0342EA32C56
:104DA000B12C80E090E00F940B1820E030E040E25E
:104DB00051E40F94AE1F2B013C0120E030E0A9012B
:104DC0000F940718AA0CBB1CAA0CBB1C87FF08C0B9
:104DD000F501E652F74F108211821282138214C03D
:104DE000A7019601C301B2010F94F920F501E65223
:104DF000F74F18162CF0408251826282738204C0F1
:104E0000C082D182E282F38222E0321278C082E054
:104E10000E94EDD920E030E040E251E46091DA08F0
:104E20007091DB088091DC089091DD080F946C187C
:104E30000F94162070935E1A60935D1A05E000933C
:104E4000511A12E81093541A88E490E1A0E0B0E0FF
:104E50008093551A9093561AA093571AB093581AE4
:104E60000E9491F320E030E040E251E46091DE08DE
:104E70007091DF088091E0089091E1080F946C1820
:104E80000F94162070935E1A60935D1A0093511A66
:104E90001093541A8AE490E1A0E0B0E08093551A90
:104EA0009093561AA093571AB093581A0E9491F3F0
:104EB00020E030E040E251E46091E2087091E308C4
:104EC0008091E4089091E5080F946C180F941620D7
:104ED00070935E1A60935D1A0093511A1093541ADE
:104EE0008CE490E1A0E0B0E08093551A9093561ABC
:104EF000A093571AB093581A0E9491F303C0832DC0
:104F00000E94EDD961E070E080E090E00F94E7034B
:104F10008AE090E090935E1A80935D1A85E080931A
:104F2000511A82E88093541A80E092E1A0E0B0E048
:104F30008093551A9093561AA093571AB093581A03
:104F40000E9491F310924D16ECC783E090E00E940E
:104F500087D5892B09F0E5C78091051A9091061A2B
:104F6000A091071AB091081A863530E19307A10580
:104F7000B10509F055C280910D1A90910E1A813039
:104F80009105C9F48091800880930A0610928008E8
:104F900020910C0630910D0640910E0650910F069F
:104FA0006091E6087091E7088091E8089091E9081F
:104FB0000F94D11E1CC08230910509F0D6C080919B
:104FC000800880930A061092800820910C06309188
:104FD0000D0640910E0650910F066091E608709103
:104FE000E7088091E8089091E9080F94D21E609339
:104FF000E6087093E7088093E8089093E9088091A9
:105000001506882309F456C083E00E94EDD920E0FC
:1050100030E040E251E460910C0670910D06809101
:105020000E0690910F060F946C180F941620709333
:105030005E1A60935D1A05E00093511A12E810930E
:10504000541A84E590E1A0E0B0E08093551A909363
:10505000561AA093571AB093581A0E9491F320E061
:1050600030E040E251E460911006709111068091A9
:105070001206909113060F946C180F9416207093DB
:105080005E1A60935D1A0093511A1093541A88E5C2
:1050900090E1A0E0B0E08093551A9093561AA09347
:1050A000571AB093581A0E9491F380910A06809380
:1050B000800837C7C0900002D0900102E090020241
:1050C000F090030220E030E040EA50E4C701B6016E
:1050D0000F94D11E9B01AC016091820870918308EE
:1050E00080918408909185080F94071887FF8CCFD2
:1050F00081E080931506C701B6010F9416207093C6
:105100005E1A60935D1A85E08093511A82E880935D
:10511000541A80E290E1A0E0B0E08093551A909399
:10512000561AA093571AB093581A0E9491F365E04B
:1051300070E080E090E00F94E703809149168823A7
:1051400051F081E09AE590935E1A80935D1A88E1B0
:1051500090E00C945B1A81E09AE590935E1A80933C
:105160005D1A82E490E00C945B1A83309105D1F4CF
:105170008091800880930A0611E0109380082091A6
:10518000100630911106409112065091130660915D
:10519000E6087091E7088091E8089091E9080F947B
:1051A000D11E1DC08430910509F046C08091800851
:1051B00080930A0611E01093800820911006309128
:1051C000110640911206509113066091E608709105
:1051D000E7088091E8089091E9080F94D21E609347
:1051E000E6087093E7088093E8089093E9088091B7
:1051F0001506811109CFC0900002D0900102E09005
:105200000202F090030220E030E040EA50E4C701DF
:10521000B6010F94D11E9B01AC0160918208709180
:10522000830880918408909185080F94071887FF60
:10523000EBCE109315065FCF8530910509F0C0C005
:1052400081E0809314060091680610916906C09071
:105250000002D0900102E0900202F0900302B80137
:10526000012E000C880B990B0F940D18A7019601C5
:105270000F94F92087FF05C0C701B6010F941620CF
:105280008B01109369060093680620E030E048EC3B
:1052900052E4609182087091830880918408909113
:1052A00085080F946C186B017C01B801110F880BF5
:1052B000990B0F940D189B01AC01C701B6010F9417
:1052C000AE1F0F941B206436710510F064E670E089
:1052D00070935E1A60935D1A05E00093511A12E80C
:1052E0001093541A84E290E1A0E0B0E08093551A44
:1052F0009093561AA093571AB093581A0E9491F39C
:10530000609182087091830880918408909185084B
:105310000F94162070935E1A60935D1A0093511AD1
:105320001093541A86E390E1A0E0B0E08093551A00
:105330009093561AA093571AB093581A0E9491F35B
:10534000809168069091690690935E1A80935D1A29
:105350000093511A1093541A84E390E1A0E0B0E056
:105360008093551A9093561AA093571AB093581ACF
:105370000E9491F365E070E080E090E00F94E70315
:1053800080914916882349F081E09AE590935E1A4E
:1053900080935D1A8AE190E008C081E09AE59093DD
:1053A0005E1A80935D1A84E490E09093601A809373
:1053B0005F1A87E08093511A1093541A0C94651A5F
:1053C00086309105D1F410921506809149168823F4
:1053D00051F081E09AE590935E1A80935D1A87E11F
:1053E00090E00C945B1A81E09AE590935E1A8093AA
:1053F0005D1A81E490E00C945B1A813F910559F4A9
:10540000109215061092140661E070E080E090E0C2
:105410000F94E703DACF803F910509F0F5CD81C500
:105420008435E0E19E07A105B105B9F460910D1A3C
:1054300070910E1A80E090E00F940B1820E030E09D
:1054400040E251E40F94AE1F60930C0670930D067A
:1054500080930E0690930F0664C588359041A10590
:10546000B10509F05EC560910D1A70910E1A80E0C9
:1054700090E00F940B1820E030E040E251E40F94EC
:10548000AE1F6093100670931106809312069093DE
:10549000130647C560910D1A70910E1A8EEE93E0B7
:1054A0000E94868880910D1A90910E1A019711F42E
:1054B0000C94271F89EE93E09093FF088093FE08D9
:1054C0000E9421B72EC5D8018D918D01882319F036
:1054D0000E94F5B6F8CF80910D1A90910E1A813086
:1054E000910509F082C180E090E00E9487D5892B68
:1054F00009F017C580914A16813009F0EEC08CE1A1
:1055000096E00E94FCB685EE93E09093FF088093AE
:10551000FE080E9421B7C12C90E2D92EE12CF12C7B
:1055200005E012E810925E1A10925D1A0093511A6B
:105530001093541AC092551AD092561AE092571AE4
:10554000F092581A0E9491F3BFEFCB1ADB0AEB0AD4
:10555000FB0AEAE0CE16E0E2DE06E104F10411F710
:1055600000911B06F2E10F02800111240E59164F23
:10557000F80101900020E9F7C8018E1B9F0B4396AC
:1055800097FD01967C01F594E7941E141F04DCF44A
:105590009E012F5F3F4F690184E1D9011D928A95D9
:1055A000E9F7A70162EB74E0C9010F943822B80152
:1055B000C6018E0D9F1D0F94232240E050E260E053
:1055C00070E0C60105C040E050E260E070E0C80154
:1055D0000E9438D562E070E080E090E00F94E7032D
:1055E00080914916882349F181E090E090935E1AFA
:1055F00080935D1A85E08093511A12E81093541A33
:1056000084E190E1A0E0B0E08093551A9093561A9F
:10561000A093571AB093581A0E9491F362E070E079
:1056200080E090E00F94E70381E09AE590935E1AA2
:1056300080935D1A8AE090E028C08DE090E090931E
:105640005E1A80935D1A85E08093511A12E81093D8
:10565000541A84E190E1A0E0B0E08093551A909351
:10566000561AA093571AB093581A0E9491F362E009
:1056700070E080E090E00F94E70381E09AE590937A
:105680005E1A80935D1A84E390E09093601A809391
:105690005F1A87E08093511A1093541A84E890E0BF
:1056A000A0E0B0E08093551A9093561AA093571A31
:1056B000B093581A0E9491F381E08093390280934D
:1056C0008C0D8093070993E09093080980930C094F
:1056D00010928B0D10921B0681C0823009F081C0A0
:1056E0008E010F5F1F4F8EE1F80111928A95E9F745
:1056F000809131068F93809130068F938CED93E0EB
:105700009F938F931F930F930F94D917C8010E94F3
:10571000FCB60F900F900F900F900F900F9080910C
:105720005917882319F081E0809358170E94BA888E
:1057300080914916882319F081E090E002C08DE045
:1057400090E090935E1A80935D1A85E08093511AE1
:1057500082E88093541A84E190E1A0E0B0E0809365
:10576000551A9093561AA093571AB093581A0E943C
:1057700091F310928B0D83E08093080981E0809370
:105780000C0980914916882349F081E09AE59093AD
:105790005E1A80935D1A8AE090E008C081E09AE585
:1057A00090935E1A80935D1A84E390E09093601A60
:1057B00080935F1A87E08093511A82E88093541A8D
:1057C00084E890E0A0E0B0E08093551A9093561AD8
:1057D000A093571AB093581A0E9491F310924A1648
:1057E000A0C3833009F09DC3F0CD892B09F099C384
:1057F00080914A16813081F580914916882349F0BD
:1058000081E09AE590935E1A80935D1A82E090E0C1
:1058100008C081E09AE590935E1A80935D1A8EE24B
:1058200090E09093601A80935F1A87E08093511AFA
:1058300082E88093541A84E890E0A0E0B0E080937E
:10584000551A9093561AA093571AB093581A0E945B
:1058500091F310920709C2CF8230B1F480914916BA
:10586000882349F081E09AE590935E1A80935D1A4F
:105870008CE090E09BCF81E09AE590935E1A809354
:105880005D1A86E390E092CF833009F0A7CF809134
:105890004916882349F081E09AE590935E1A809337
:1058A0005D1A87E190E082CF81E09AE590935E1ADD
:1058B00080935D1A81E490E079CF80910D1A9091E8
:1058C0000E1A8F3F910531F028F08FEF90E0A0E0A5
:1058D000B0E002C0A0E0B0E080930D0290930E0211
:1058E000A0930F02B093100280910D0290910E02CE
:1058F000A0910F02B09110020097A105B10519F512
:1059000010925E1A10925D1A05E00093511A12E887
:105910001093541A8AE890E1A0E0B0E08093551A01
:105920009093561AA093571AB093581A0E9491F365
:1059300089E090E090935E1A80935D1A0093511A6B
:105940001093541A22C00196A11DB11D05E0B69511
:10595000A795979587950A95D1F7BC01CD01615020
:105960007109810991092AE830E140E050E00E9484
:1059700035F488E090E090935E1A80935D1A85E09C
:105980008093511A82E88093541A8CE890E1A0E049
:10599000B0E08093551A9093561AA093571AB0937B
:1059A000581A0E9491F380910D0290910E02A091DD
:1059B0000F02B09110026627782F892F9A2F21EAC3
:1059C00030E040E050E00E9435F4ABC2209159171E
:1059D0008091051A9091061AA091071AB091081AA1
:1059E000222309F44EC1833DF0E29F07A105B105D2
:1059F00009F047C180910D1A90910E1A209110095B
:105A0000309111092817390708F48BC2815080930F
:105A10000F09A4ED8A2EA0E29A2EA12CB12C05E04C
:105A200012E810925E1A10925D1A0093511A1093A8
:105A3000541A8092551A9092561AA092571AB09200
:105A4000581A0E9491F32FEF821A920AA20AB20A00
:105A50003EED831630E29306A104B10411F7809164
:105A60000F09A2E18A02C0011124FC01EE59F64F90
:105A70007F0101900020E9F7C7018E1B9F0B439621
:105A800097FD01968C011595079510161106FCF4EB
:105A90009E012F5F3F4F690184E1D9011D928A95D4
:105AA000E9F7A80162EB74E0C9010F943822B7014D
:105AB000C601800F911F0F94232244ED50E260E055
:105AC00070E0C6010E9438D505E012E806C044ED3A
:105AD00050E260E070E0C701F5CF10925E1A1092BC
